{"contracts/JustDAO.sol":{"JustDAO":{"abi":[{"inputs":[],"name":"_dao_ids","outputs":[{"internalType":"uint256","name":"","type":"uint256"}],"stateMutability":"view","type":"function"},{"inputs":[{"internalType":"uint256","name":"","type":"uint256"}],"name":"_dao_uris","outputs":[{"internalType":"string","name":"dao_wallet","type":"string"},{"internalType":"string","name":"dao_uri","type":"string"},{"internalType":"string","name":"finished","type":"string"}],"stateMutability":"view","type":"function"},{"inputs":[{"internalType":"string","name":"","type":"string"}],"name":"_donated","outputs":[{"internalType":"uint256","name":"","type":"uint256"}],"stateMutability":"view","type":"function"},{"inputs":[{"internalType":"uint256","name":"","type":"uint256"}],"name":"_donations","outputs":[{"internalType":"uint256","name":"ideas_id","type":"uint256"},{"internalType":"string","name":"wallet","type":"string"},{"internalType":"uint256","name":"donation","type":"uint256"}],"stateMutability":"view","type":"function"},{"inputs":[],"name":"_donations_ids","outputs":[{"internalType":"uint256","name":"","type":"uint256"}],"stateMutability":"view","type":"function"},{"inputs":[],"name":"_goal_ids","outputs":[{"internalType":"uint256","name":"","type":"uint256"}],"stateMutability":"view","type":"function"},{"inputs":[{"internalType":"uint256","name":"","type":"uint256"}],"name":"_goal_uris","outputs":[{"internalType":"uint256","name":"dao_id","type":"uint256"},{"internalType":"string","name":"goal_uri","type":"string"}],"stateMutability":"view","type":"function"},{"inputs":[],"name":"_ideas_ids","outputs":[{"internalType":"uint256","name":"","type":"uint256"}],"stateMutability":"view","type":"function"},{"inputs":[{"internalType":"uint256","name":"","type":"uint256"}],"name":"_ideas_uris","outputs":[{"internalType":"uint256","name":"goal_id","type":"uint256"},{"internalType":"string","name":"ideas_uri","type":"string"},{"internalType":"uint256","name":"donation","type":"uint256"}],"stateMutability":"view","type":"function"},{"inputs":[],"name":"_ideas_vote_ids","outputs":[{"internalType":"uint256","name":"","type":"uint256"}],"stateMutability":"view","type":"function"},{"inputs":[],"name":"_join_ids","outputs":[{"internalType":"uint256","name":"","type":"uint256"}],"stateMutability":"view","type":"function"},{"inputs":[{"internalType":"uint256","name":"","type":"uint256"}],"name":"_joined_person","outputs":[{"internalType":"uint256","name":"daoid","type":"uint256"},{"internalType":"string","name":"wallet","type":"string"}],"stateMutability":"view","type":"function"},{"inputs":[],"name":"_message_ids","outputs":[{"internalType":"uint256","name":"","type":"uint256"}],"stateMutability":"view","type":"function"},{"inputs":[],"name":"_message_read_ids","outputs":[{"internalType":"uint256","name":"","type":"uint256"}],"stateMutability":"view","type":"function"},{"inputs":[],"name":"_reply_ids","outputs":[{"internalType":"uint256","name":"","type":"uint256"}],"stateMutability":"view","type":"function"},{"inputs":[],"name":"_smart_contract_ids","outputs":[{"internalType":"uint256","name":"","type":"uint256"}],"stateMutability":"view","type":"function"},{"inputs":[{"internalType":"uint256","name":"","type":"uint256"}],"name":"_smart_contracts_uris","outputs":[{"internalType":"uint256","name":"smart_contract_id","type":"uint256"},{"internalType":"uint256","name":"ideas_id","type":"uint256"},{"internalType":"string","name":"smart_contract_uri","type":"string"}],"stateMutability":"view","type":"function"},{"inputs":[{"internalType":"uint256","name":"","type":"uint256"}],"name":"_template_uris","outputs":[{"internalType":"string","name":"","type":"string"}],"stateMutability":"view","type":"function"},{"inputs":[{"internalType":"string","name":"","type":"string"}],"name":"_user_badges","outputs":[{"internalType":"string","name":"wallet","type":"string"},{"internalType":"bool","name":"dao","type":"bool"},{"internalType":"bool","name":"joined","type":"bool"},{"internalType":"bool","name":"goal","type":"bool"},{"internalType":"bool","name":"ideas","type":"bool"},{"internalType":"bool","name":"vote","type":"bool"},{"internalType":"bool","name":"donation","type":"bool"},{"internalType":"bool","name":"comment","type":"bool"},{"internalType":"bool","name":"reply","type":"bool"}],"stateMutability":"view","type":"function"},{"inputs":[{"internalType":"uint256","name":"_ideas_id","type":"uint256"},{"internalType":"uint256","name":"_doantion","type":"uint256"},{"internalType":"string","name":"_donator","type":"string"}],"name":"add_donation","outputs":[],"stateMutability":"nonpayable","type":"function"},{"inputs":[{"internalType":"uint256","name":"","type":"uint256"}],"name":"all_goal_ideas_votes","outputs":[{"internalType":"uint256","name":"goal_id","type":"uint256"},{"internalType":"uint256","name":"ideas_id","type":"uint256"},{"internalType":"string","name":"wallet","type":"string"}],"stateMutability":"view","type":"function"},{"inputs":[{"internalType":"uint256","name":"","type":"uint256"}],"name":"all_messages","outputs":[{"internalType":"uint256","name":"message_id","type":"uint256"},{"internalType":"uint256","name":"ideas_id","type":"uint256"},{"internalType":"string","name":"message","type":"string"},{"internalType":"string","name":"sender","type":"string"}],"stateMutability":"view","type":"function"},{"inputs":[{"internalType":"uint256","name":"","type":"uint256"}],"name":"all_read_messages","outputs":[{"internalType":"uint256","name":"message_id","type":"uint256"},{"internalType":"uint256","name":"ideas_id","type":"uint256"},{"internalType":"string","name":"wallet","type":"string"},{"internalType":"string","name":"msg_type","type":"string"}],"stateMutability":"view","type":"function"},{"inputs":[{"internalType":"uint256","name":"","type":"uint256"}],"name":"all_replies","outputs":[{"internalType":"uint256","name":"reply_id","type":"uint256"},{"internalType":"uint256","name":"message_id","type":"uint256"},{"internalType":"uint256","name":"ideas_id","type":"uint256"},{"internalType":"string","name":"message","type":"string"}],"stateMutability":"view","type":"function"},{"inputs":[{"internalType":"string","name":"_dao_wallet","type":"string"},{"internalType":"string","name":"_dao_uri","type":"string"},{"internalType":"string","name":"_template","type":"string"}],"name":"create_dao","outputs":[{"internalType":"uint256","name":"","type":"uint256"}],"stateMutability":"nonpayable","type":"function"},{"inputs":[{"internalType":"string","name":"_goal_uri","type":"string"},{"internalType":"uint256","name":"_dao_id","type":"uint256"},{"internalType":"string","name":"_wallet","type":"string"}],"name":"create_goal","outputs":[{"internalType":"uint256","name":"","type":"uint256"}],"stateMutability":"nonpayable","type":"function"},{"inputs":[{"internalType":"uint256","name":"_goal_id","type":"uint256"},{"internalType":"uint256","name":"_ideas_id","type":"uint256"},{"internalType":"string","name":"_wallet","type":"string"}],"name":"create_goal_ideas_vote","outputs":[{"internalType":"uint256","name":"","type":"uint256"}],"stateMutability":"nonpayable","type":"function"},{"inputs":[{"internalType":"string","name":"_ideas_uri","type":"string"},{"internalType":"uint256","name":"_goal_id","type":"uint256"},{"internalType":"string[]","name":"_smart_contracts","type":"string[]"},{"internalType":"string","name":"_wallet","type":"string"}],"name":"create_ideas","outputs":[{"internalType":"uint256","name":"","type":"uint256"}],"stateMutability":"nonpayable","type":"function"},{"inputs":[{"internalType":"uint256","name":"_dao_id","type":"uint256"}],"name":"dao_uri","outputs":[{"internalType":"string","name":"","type":"string"}],"stateMutability":"view","type":"function"},{"inputs":[{"internalType":"uint256","name":"ideas_id","type":"uint256"}],"name":"getMsgIDs","outputs":[{"internalType":"uint256[]","name":"","type":"uint256[]"}],"stateMutability":"view","type":"function"},{"inputs":[{"internalType":"uint256","name":"_message_id","type":"uint256"},{"internalType":"string","name":"msg_type","type":"string"}],"name":"getReadMsg","outputs":[{"internalType":"bool","name":"","type":"bool"}],"stateMutability":"view","type":"function"},{"inputs":[{"internalType":"uint256","name":"message_id","type":"uint256"}],"name":"getReplyIDs","outputs":[{"internalType":"uint256[]","name":"","type":"uint256[]"}],"stateMutability":"view","type":"function"},{"inputs":[],"name":"get_all_daos","outputs":[{"internalType":"string[]","name":"","type":"string[]"}],"stateMutability":"view","type":"function"},{"inputs":[],"name":"get_all_goals","outputs":[{"internalType":"string[]","name":"","type":"string[]"}],"stateMutability":"view","type":"function"},{"inputs":[{"internalType":"uint256","name":"_dao_id","type":"uint256"}],"name":"get_all_goals_by_dao_id","outputs":[{"internalType":"string[]","name":"","type":"string[]"}],"stateMutability":"view","type":"function"},{"inputs":[],"name":"get_all_ideas","outputs":[{"internalType":"string[]","name":"","type":"string[]"}],"stateMutability":"view","type":"function"},{"inputs":[{"internalType":"uint256","name":"_goal_id","type":"uint256"}],"name":"get_all_ideas_by_goal_id","outputs":[{"internalType":"string[]","name":"","type":"string[]"}],"stateMutability":"view","type":"function"},{"inputs":[{"internalType":"string","name":"_goal_uri","type":"string"}],"name":"get_goal_id_by_goal_uri","outputs":[{"internalType":"uint256","name":"","type":"uint256"}],"stateMutability":"view","type":"function"},{"inputs":[{"internalType":"string","name":"_ideas_uri","type":"string"}],"name":"get_goal_id_from_ideas_uri","outputs":[{"internalType":"uint256","name":"","type":"uint256"}],"stateMutability":"view","type":"function"},{"inputs":[{"internalType":"string","name":"_ideas_uri","type":"string"}],"name":"get_ideas_id_by_ideas_uri","outputs":[{"internalType":"uint256","name":"","type":"uint256"}],"stateMutability":"view","type":"function"},{"inputs":[{"internalType":"uint256","name":"_goal_id","type":"uint256"},{"internalType":"uint256","name":"_ideas_id","type":"uint256"}],"name":"get_ideas_votes_from_goal","outputs":[{"internalType":"string[]","name":"","type":"string[]"}],"stateMutability":"view","type":"function"},{"inputs":[{"internalType":"uint256","name":"_goal_id","type":"uint256"}],"name":"goal_uri","outputs":[{"internalType":"string","name":"","type":"string"}],"stateMutability":"view","type":"function"},{"inputs":[{"internalType":"uint256","name":"_ideas_id","type":"uint256"}],"name":"ideas_uri","outputs":[{"internalType":"string","name":"","type":"string"}],"stateMutability":"view","type":"function"},{"inputs":[{"internalType":"string","name":"wallet","type":"string"}],"name":"is_person_joined","outputs":[{"internalType":"bool","name":"","type":"bool"}],"stateMutability":"view","type":"function"},{"inputs":[{"internalType":"uint256","name":"dao_id","type":"uint256"},{"internalType":"string","name":"person","type":"string"}],"name":"join_community","outputs":[],"stateMutability":"nonpayable","type":"function"},{"inputs":[],"name":"reset_all","outputs":[],"stateMutability":"nonpayable","type":"function"},{"inputs":[{"internalType":"uint256","name":"_ideas_id","type":"uint256"},{"internalType":"string","name":"_message","type":"string"},{"internalType":"string","name":"_sender","type":"string"}],"name":"sendMsg","outputs":[{"internalType":"uint256","name":"","type":"uint256"}],"stateMutability":"nonpayable","type":"function"},{"inputs":[{"internalType":"uint256","name":"_message_id","type":"uint256"},{"internalType":"uint256","name":"_ideas_id","type":"uint256"},{"internalType":"string","name":"_wallet","type":"string"},{"internalType":"string","name":"msg_type","type":"string"}],"name":"sendReadMsg","outputs":[{"internalType":"uint256","name":"","type":"uint256"}],"stateMutability":"nonpayable","type":"function"},{"inputs":[{"internalType":"uint256","name":"_message_id","type":"uint256"},{"internalType":"string","name":"_reply","type":"string"},{"internalType":"uint256","name":"ideas_id","type":"uint256"},{"internalType":"string","name":"_wallet","type":"string"}],"name":"sendReply","outputs":[{"internalType":"uint256","name":"","type":"uint256"}],"stateMutability":"nonpayable","type":"function"},{"inputs":[{"internalType":"uint256","name":"_dao_id","type":"uint256"},{"internalType":"string","name":"_dao_wallet","type":"string"},{"internalType":"string","name":"_dao_uri","type":"string"}],"name":"set_dao","outputs":[],"stateMutability":"nonpayable","type":"function"},{"inputs":[{"internalType":"uint256","name":"_goal_id","type":"uint256"},{"internalType":"string","name":"_goal_uri","type":"string"}],"name":"set_goal","outputs":[],"stateMutability":"nonpayable","type":"function"},{"inputs":[{"internalType":"uint256","name":"_ideas_id","type":"uint256"},{"internalType":"string","name":"_ideas_uri","type":"string"}],"name":"set_ideas","outputs":[],"stateMutability":"nonpayable","type":"function"},{"inputs":[{"internalType":"uint256","name":"_dao_id","type":"uint256"},{"internalType":"string","name":"_template","type":"string"}],"name":"update_template","outputs":[],"stateMutability":"nonpayable","type":"function"}],"devdoc":{"kind":"dev","methods":{},"version":1},"evm":{"bytecode":{"linkReferences":{},"object":"608060405234801561001057600080fd5b5061433e806100206000396000f3fe608060405234801561001057600080fd5b50600436106103275760003560e01c8063812fae1f116101b8578063b527d45e11610104578063d3791b20116100a2578063ec2458021161007c578063ec24580214610b01578063ec39925514610b1f578063eca7f5fe14610b4f578063ff4a37ef14610b7f57610327565b8063d3791b2014610a97578063e32acc1a14610ab5578063e3863cef14610ae557610327565b8063c29595c5116100de578063c29595c5146109fa578063ca013f1714610a16578063cace8d4614610a34578063cd23080914610a6757610327565b8063b527d45e1461098d578063c04e7430146109c0578063c04fe978146109dc57610327565b80639077007d11610171578063a1ca91781161014b578063a1ca917814610905578063aa2bf5d314610935578063aa4cdf2a14610953578063b16060a61461098357610327565b80639077007d1461089157806397ee7606146108af5780639f9ff54b146108cd57610327565b8063812fae1f1461079957806382fcc732146107c957806387633eb2146107f9578063881de858146108155780638c59143d146108315780638d3d25951461086157610327565b8063468d0c80116102775780636ecda4ee116102305780637bbd582d1161020a5780637bbd582d146106e85780637f2035d4146107065780637fc543ec14610737578063803f5b9f1461076957610327565b80636ecda4ee1461065857806377935be71461068857806377b2ec23146106b857610327565b8063468d0c801461055c578063494ce2951461058e5780634a797bd7146105be5780634be7adb5146105dc5780635132f0c71461060c5780635d907da11461062857610327565b80631ba44c4c116102e457806329b56f60116102be57806329b56f60146104aa578063330b8f26146104c85780633f50602f146104f95780633f87a2f41461052957610327565b80631ba44c4c146104165780631e9ac9f51461044857806327a568b91461047857610327565b8063109ac9701461032c5780631171b6211461035c578063131d44f21461037a57806313bf4cea146103aa57806318426b46146103c85780631b592aeb146103f8575b600080fd5b610346600480360381019061034191906131a6565b610bb1565b6040516103539190613325565b60405180910390f35b610364610d20565b6040516103719190613356565b60405180910390f35b610394600480360381019061038f91906131a6565b610d26565b6040516103a19190613325565b60405180910390f35b6103b2610e95565b6040516103bf9190613356565b60405180910390f35b6103e260048036038101906103dd919061358c565b610e9b565b6040516103ef9190613356565b60405180910390f35b610400610fbb565b60405161040d9190613356565b60405180910390f35b610430600480360381019061042b91906131a6565b610fc1565b60405161043f93929190613691565b60405180910390f35b610462600480360381019061045d91906136cf565b611073565b60405161046f9190613356565b60405180910390f35b610492600480360381019061048d91906131a6565b6110e4565b6040516104a193929190613718565b60405180910390f35b6104b26112a6565b6040516104bf9190613325565b60405180910390f35b6104e260048036038101906104dd91906131a6565b6113e1565b6040516104f0929190613764565b60405180910390f35b610513600480360381019061050e9190613794565b61148d565b6040516105209190613356565b60405180910390f35b610543600480360381019061053e91906131a6565b611568565b604051610553949392919061381f565b60405180910390f35b610576600480360381019061057191906131a6565b611620565b6040516105859392919061386b565b60405180910390f35b6105a860048036038101906105a391906138a9565b6116d2565b6040516105b59190613356565b60405180910390f35b6105c66117a2565b6040516105d39190613356565b60405180910390f35b6105f660048036038101906105f19190613948565b6117a8565b6040516106039190613325565b60405180910390f35b61062660048036038101906106219190613988565b61193a565b005b610642600480360381019061063d91906131a6565b6119dd565b60405161064f91906139e4565b60405180910390f35b610672600480360381019061066d91906131a6565b611a85565b60405161067f91906139e4565b60405180910390f35b6106a2600480360381019061069d91906136cf565b611b25565b6040516106af9190613356565b60405180910390f35b6106d260048036038101906106cd9190613a06565b611b53565b6040516106df9190613356565b60405180910390f35b6106f0611c00565b6040516106fd9190613356565b60405180910390f35b610720600480360381019061071b91906131a6565b611c06565b60405161072e929190613764565b60405180910390f35b610751600480360381019061074c91906131a6565b611cb2565b6040516107609392919061386b565b60405180910390f35b610783600480360381019061077e91906131a6565b611d64565b6040516107909190613b4f565b60405180910390f35b6107b360048036038101906107ae91906131a6565b611e47565b6040516107c09190613b4f565b60405180910390f35b6107e360048036038101906107de9190613b71565b611f2a565b6040516107f09190613356565b60405180910390f35b610813600480360381019061080e9190613988565b611fe7565b005b61082f600480360381019061082a9190613794565b61200c565b005b61084b60048036038101906108469190613be0565b612059565b6040516108589190613356565b60405180910390f35b61087b600480360381019061087691906131a6565b6120f9565b60405161088891906139e4565b60405180910390f35b6108996121a1565b6040516108a69190613356565b60405180910390f35b6108b76121a7565b6040516108c49190613325565b60405180910390f35b6108e760048036038101906108e291906136cf565b6122e2565b6040516108fc99989796959493929190613c9a565b60405180910390f35b61091f600480360381019061091a91906136cf565b612436565b60405161092c9190613356565b60405180910390f35b61093d6124a7565b60405161094a9190613356565b60405180910390f35b61096d600480360381019061096891906136cf565b6124ad565b60405161097a9190613356565b60405180910390f35b61098b612534565b005b6109a760048036038101906109a291906131a6565b6127e6565b6040516109b79493929190613d2e565b60405180910390f35b6109da60048036038101906109d59190613988565b612926565b005b6109e461294e565b6040516109f19190613325565b60405180910390f35b610a146004803603810190610a0f9190613988565b612a88565b005b610a1e612ab0565b604051610a2b9190613356565b60405180910390f35b610a4e6004803603810190610a4991906131a6565b612ab6565b604051610a5e9493929190613d2e565b60405180910390f35b610a816004803603810190610a7c9190613988565b612bf6565b604051610a8e9190613d81565b60405180910390f35b610a9f612c87565b604051610aac9190613356565b60405180910390f35b610acf6004803603810190610aca91906131a6565b612c8d565b604051610adc91906139e4565b60405180910390f35b610aff6004803603810190610afa9190613b71565b612d35565b005b610b09612e4b565b604051610b169190613356565b60405180910390f35b610b396004803603810190610b349190613d9c565b612e51565b604051610b469190613356565b60405180910390f35b610b696004803603810190610b6491906136cf565b612f7b565b604051610b769190613d81565b60405180910390f35b610b996004803603810190610b9491906131a6565b612fed565b604051610ba893929190613691565b60405180910390f35b6060600060025467ffffffffffffffff811115610bd157610bd061337b565b5b604051908082528060200260200182016040528015610c0457816020015b6060815260200190600190039081610bef5790505b509050600080600090505b600254811015610d155784600d60008381526020019081526020016000206000015403610d0257600d60008281526020019081526020016000206001018054610c5790613e72565b80601f0160208091040260200160405190810160405280929190818152602001828054610c8390613e72565b8015610cd05780601f10610ca557610100808354040283529160200191610cd0565b820191906000526020600020905b815481529060010190602001808311610cb357829003601f168201915b5050505050838381518110610ce857610ce7613ea3565b5b60200260200101819052508180610cfe90613f01565b9250505b8080610d0d90613f01565b915050610c0f565b508192505050919050565b60045481565b6060600060035467ffffffffffffffff811115610d4657610d4561337b565b5b604051908082528060200260200182016040528015610d7957816020015b6060815260200190600190039081610d645790505b509050600080600090505b600354811015610e8a5784600e60008381526020019081526020016000206000015403610e6957600e60008281526020019081526020016000206001018054610dcc90613e72565b80601f0160208091040260200160405190810160405280929190818152602001828054610df890613e72565b8015610e455780601f10610e1a57610100808354040283529160200191610e45565b820191906000526020600020905b815481529060010190602001808311610e2857829003601f168201915b5050505050838381518110610e5d57610e5c613ea3565b5b60200260200101819052505b8180610e7490613f01565b9250508080610e8290613f01565b915050610d84565b508192505050919050565b60025481565b600060405180606001604052808581526020018681526020016000815250600e60006003548152602001908152602001600020600082015181600001556020820151816001019081610eed91906140f5565b50604082015181600201559050506001601683604051610f0d9190614203565b908152602001604051809103902060010160036101000a81548160ff02191690831515021790555060036000815480929190610f4890613f01565b919050555060005b8351811015610fad57610f82600354600554868481518110610f7557610f74613ea3565b5b602002602001015161309f565b60056000815480929190610f9590613f01565b91905055508080610fa590613f01565b915050610f50565b506003549050949350505050565b60055481565b6012602052806000526040600020600091509050806000015490806001015490806002018054610ff090613e72565b80601f016020809104026020016040519081016040528092919081815260200182805461101c90613e72565b80156110695780601f1061103e57610100808354040283529160200191611069565b820191906000526020600020905b81548152906001019060200180831161104c57829003601f168201915b5050505050905083565b600080600090505b6002548110156110d9578280519060200120600d60008381526020019081526020016000206001016040516110b091906142bd565b6040518091039020036110c657809150506110df565b80806110d190613f01565b91505061107b565b50600090505b919050565b600a60205280600052604060002060009150905080600001805461110790613e72565b80601f016020809104026020016040519081016040528092919081815260200182805461113390613e72565b80156111805780601f1061115557610100808354040283529160200191611180565b820191906000526020600020905b81548152906001019060200180831161116357829003601f168201915b50505050509080600101805461119590613e72565b80601f01602080910402602001604051908101604052809291908181526020018280546111c190613e72565b801561120e5780601f106111e35761010080835404028352916020019161120e565b820191906000526020600020905b8154815290600101906020018083116111f157829003601f168201915b50505050509080600201805461122390613e72565b80601f016020809104026020016040519081016040528092919081815260200182805461124f90613e72565b801561129c5780601f106112715761010080835404028352916020019161129c565b820191906000526020600020905b81548152906001019060200180831161127f57829003601f168201915b5050505050905083565b6060600060025467ffffffffffffffff8111156112c6576112c561337b565b5b6040519080825280602002602001820160405280156112f957816020015b60608152602001906001900390816112e45790505b50905060005b6002548110156113d957600d6000828152602001908152602001600020600101805461132a90613e72565b80601f016020809104026020016040519081016040528092919081815260200182805461135690613e72565b80156113a35780601f10611378576101008083540402835291602001916113a3565b820191906000526020600020905b81548152906001019060200180831161138657829003601f168201915b50505050508282815181106113bb576113ba613ea3565b5b602002602001018190525080806113d190613f01565b9150506112ff565b508091505090565b600c60205280600052604060002060009150905080600001549080600101805461140a90613e72565b80601f016020809104026020016040519081016040528092919081815260200182805461143690613e72565b80156114835780601f1061145857610100808354040283529160200191611483565b820191906000526020600020905b81548152906001019060200180831161146657829003601f168201915b5050505050905082565b600060016016836040516114a19190614203565b908152602001604051809103902060010160066101000a81548160ff02191690831515021790555060405180608001604052806007548152602001858152602001848152602001838152506013600060075481526020019081526020016000206000820151816000015560208201518160010155604082015181600201908161152a91906140f5565b50606082015181600301908161154091906140f5565b509050506007600081548092919061155790613f01565b919050555060075490509392505050565b601560205280600052604060002060009150905080600001549080600101549080600201549080600301805461159d90613e72565b80601f01602080910402602001604051908101604052809291908181526020018280546115c990613e72565b80156116165780601f106115eb57610100808354040283529160200191611616565b820191906000526020600020905b8154815290600101906020018083116115f957829003601f168201915b5050505050905084565b600e60205280600052604060002060009150905080600001549080600101805461164990613e72565b80601f016020809104026020016040519081016040528092919081815260200182805461167590613e72565b80156116c25780601f10611697576101008083540402835291602001916116c2565b820191906000526020600020905b8154815290600101906020018083116116a557829003601f168201915b5050505050908060020154905083565b600060016016836040516116e69190614203565b908152602001604051809103902060010160076101000a81548160ff0219169083151502179055506040518060800160405280600954815260200186815260200184815260200185815250601560006009548152602001908152602001600020600082015181600001556020820151816001015560408201518160020155606082015181600301908161177991906140f5565b509050506009600081548092919061179090613f01565b91905055506009549050949350505050565b60065481565b6060600060065467ffffffffffffffff8111156117c8576117c761337b565b5b6040519080825280602002602001820160405280156117fb57816020015b60608152602001906001900390816117e65790505b509050600080600090505b60065481101561192e5785601260008381526020019081526020016000206000015414801561184a5750846012600083815260200190815260200160002060010154145b1561190d5760126000828152602001908152602001600020600201805461187090613e72565b80601f016020809104026020016040519081016040528092919081815260200182805461189c90613e72565b80156118e95780601f106118be576101008083540402835291602001916118e9565b820191906000526020600020905b8154815290600101906020018083116118cc57829003601f168201915b505050505083838151811061190157611900613ea3565b5b60200260200101819052505b818061191890613f01565b925050808061192690613f01565b915050611806565b50819250505092915050565b600160168260405161194c9190614203565b908152602001604051809103902060010160016101000a81548160ff021916908315150217905550604051806040016040528083815260200182815250600c600060045481526020019081526020016000206000820151816000015560208201518160010190816119bd91906140f5565b50905050600460008154809291906119d490613f01565b91905055505050565b6060600a60008381526020019081526020016000206001018054611a0090613e72565b80601f0160208091040260200160405190810160405280929190818152602001828054611a2c90613e72565b8015611a795780601f10611a4e57610100808354040283529160200191611a79565b820191906000526020600020905b815481529060010190602001808311611a5c57829003601f168201915b50505050509050919050565b600b6020528060005260406000206000915090508054611aa490613e72565b80601f0160208091040260200160405190810160405280929190818152602001828054611ad090613e72565b8015611b1d5780601f10611af257610100808354040283529160200191611b1d565b820191906000526020600020905b815481529060010190602001808311611b0057829003601f168201915b505050505081565b600f818051602081018201805184825260208301602085012081835280955050505050506000915090505481565b6000604051806040016040528084815260200185815250600d60006002548152602001908152602001600020600082015181600001556020820151816001019081611b9e91906140f5565b509050506001601683604051611bb49190614203565b908152602001604051809103902060010160026101000a81548160ff02191690831515021790555060026000815480929190611bef90613f01565b919050555060025490509392505050565b60005481565b600d602052806000526040600020600091509050806000015490806001018054611c2f90613e72565b80601f0160208091040260200160405190810160405280929190818152602001828054611c5b90613e72565b8015611ca85780601f10611c7d57610100808354040283529160200191611ca8565b820191906000526020600020905b815481529060010190602001808311611c8b57829003601f168201915b5050505050905082565b6010602052806000526040600020600091509050806000015490806001018054611cdb90613e72565b80601f0160208091040260200160405190810160405280929190818152602001828054611d0790613e72565b8015611d545780601f10611d2957610100808354040283529160200191611d54565b820191906000526020600020905b815481529060010190602001808311611d3757829003601f168201915b5050505050908060020154905083565b6060600060075467ffffffffffffffff811115611d8457611d8361337b565b5b604051908082528060200260200182016040528015611db25781602001602082028036833780820191505090505b509050600080600090505b600754811015611e3c5784601360008381526020019081526020016000206001015403611e29576013600082815260200190815260200160002060000154838381518110611e0e57611e0d613ea3565b5b6020026020010181815250508180611e2590613f01565b9250505b8080611e3490613f01565b915050611dbd565b508192505050919050565b6060600060095467ffffffffffffffff811115611e6757611e6661337b565b5b604051908082528060200260200182016040528015611e955781602001602082028036833780820191505090505b509050600080600090505b600954811015611f1f5784601560008381526020019081526020016000206001015403611f0c576015600082815260200190815260200160002060000154838381518110611ef157611ef0613ea3565b5b6020026020010181815250508180611f0890613f01565b9250505b8080611f1790613f01565b915050611ea0565b508192505050919050565b60006001601683604051611f3e9190614203565b908152602001604051809103902060010160046101000a81548160ff02191690831515021790555060405180606001604052808581526020018481526020018381525060126000600654815260200190815260200160002060008201518160000155602082015181600101556040820151816002019081611fbf91906140f5565b5090505060066000815480929190611fd690613f01565b919050555060065490509392505050565b80600b6000848152602001908152602001600020908161200791906140f5565b505050565b81600a6000858152602001908152602001600020600001908161202f91906140f5565b5080600a6000858152602001908152602001600020600101908161205391906140f5565b50505050565b6000604051806080016040528086815260200185815260200184815260200183815250601460006008548152602001908152602001600020600082015181600001556020820151816001015560408201518160020190816120ba91906140f5565b5060608201518160030190816120d091906140f5565b50905050600860008154809291906120e790613f01565b91905055506008549050949350505050565b6060600e6000838152602001908152602001600020600101805461211c90613e72565b80601f016020809104026020016040519081016040528092919081815260200182805461214890613e72565b80156121955780601f1061216a57610100808354040283529160200191612195565b820191906000526020600020905b81548152906001019060200180831161217857829003601f168201915b50505050509050919050565b60075481565b6060600060035467ffffffffffffffff8111156121c7576121c661337b565b5b6040519080825280602002602001820160405280156121fa57816020015b60608152602001906001900390816121e55790505b50905060005b6003548110156122da57600e6000828152602001908152602001600020600101805461222b90613e72565b80601f016020809104026020016040519081016040528092919081815260200182805461225790613e72565b80156122a45780601f10612279576101008083540402835291602001916122a4565b820191906000526020600020905b81548152906001019060200180831161228757829003601f168201915b50505050508282815181106122bc576122bb613ea3565b5b602002602001018190525080806122d290613f01565b915050612200565b508091505090565b60168180516020810182018051848252602083016020850120818352809550505050505060009150905080600001805461231b90613e72565b80601f016020809104026020016040519081016040528092919081815260200182805461234790613e72565b80156123945780601f1061236957610100808354040283529160200191612394565b820191906000526020600020905b81548152906001019060200180831161237757829003601f168201915b5050505050908060010160009054906101000a900460ff16908060010160019054906101000a900460ff16908060010160029054906101000a900460ff16908060010160039054906101000a900460ff16908060010160049054906101000a900460ff16908060010160059054906101000a900460ff16908060010160069054906101000a900460ff16908060010160079054906101000a900460ff16905089565b600080600090505b60035481101561249c578280519060200120600e600083815260200190815260200160002060010160405161247391906142bd565b60405180910390200361248957809150506124a2565b808061249490613f01565b91505061243e565b50600090505b919050565b60095481565b600080600090505b600354811015612529578280519060200120600e60008381526020019081526020016000206001016040516124ea91906142bd565b60405180910390200361251657600e60008281526020019081526020016000206000015491505061252f565b808061252190613f01565b9150506124b5565b50600090505b919050565b60005b60005481101561259a57600a60008281526020019081526020016000206000808201600061256591906130ff565b60018201600061257591906130ff565b60028201600061258591906130ff565b5050808061259290613f01565b915050612537565b5060005b6002548110156125e957600d60008281526020019081526020016000206000808201600090556001820160006125d491906130ff565b505080806125e190613f01565b91505061259e565b5060005b60035481101561264057600e600082815260200190815260200160002060008082016000905560018201600061262391906130ff565b60028201600090555050808061263890613f01565b9150506125ed565b5060005b6002548110156126975760116000828152602001908152602001600020600080820160009055600182016000905560028201600061268291906130ff565b5050808061268f90613f01565b915050612644565b5060005b6007548110156126fe576013600082815260200190815260200160002060008082016000905560018201600090556002820160006126d991906130ff565b6003820160006126e991906130ff565b505080806126f690613f01565b91505061269b565b5060005b60095481101561275d57601560008281526020019081526020016000206000808201600090556001820160009055600282016000905560038201600061274891906130ff565b5050808061275590613f01565b915050612702565b5060005b6006548110156127b45760126000828152602001908152602001600020600080820160009055600182016000905560028201600061279f91906130ff565b505080806127ac90613f01565b915050612761565b506000808190555060006002819055506000600381905550600060078190555060006009819055506000600681905550565b601360205280600052604060002060009150905080600001549080600101549080600201805461281590613e72565b80601f016020809104026020016040519081016040528092919081815260200182805461284190613e72565b801561288e5780601f106128635761010080835404028352916020019161288e565b820191906000526020600020905b81548152906001019060200180831161287157829003601f168201915b5050505050908060030180546128a390613e72565b80601f01602080910402602001604051908101604052809291908181526020018280546128cf90613e72565b801561291c5780601f106128f15761010080835404028352916020019161291c565b820191906000526020600020905b8154815290600101906020018083116128ff57829003601f168201915b5050505050905084565b80600e6000848152602001908152602001600020600101908161294991906140f5565b505050565b60606000805467ffffffffffffffff81111561296d5761296c61337b565b5b6040519080825280602002602001820160405280156129a057816020015b606081526020019060019003908161298b5790505b50905060005b600054811015612a8057600a600082815260200190815260200160002060010180546129d190613e72565b80601f01602080910402602001604051908101604052809291908181526020018280546129fd90613e72565b8015612a4a5780601f10612a1f57610100808354040283529160200191612a4a565b820191906000526020600020905b815481529060010190602001808311612a2d57829003601f168201915b5050505050828281518110612a6257612a61613ea3565b5b60200260200101819052508080612a7890613f01565b9150506129a6565b508091505090565b80600d60008481526020019081526020016000206001019081612aab91906140f5565b505050565b60085481565b6014602052806000526040600020600091509050806000015490806001015490806002018054612ae590613e72565b80601f0160208091040260200160405190810160405280929190818152602001828054612b1190613e72565b8015612b5e5780601f10612b3357610100808354040283529160200191612b5e565b820191906000526020600020905b815481529060010190602001808311612b4157829003601f168201915b505050505090806003018054612b7390613e72565b80601f0160208091040260200160405190810160405280929190818152602001828054612b9f90613e72565b8015612bec5780601f10612bc157610100808354040283529160200191612bec565b820191906000526020600020905b815481529060010190602001808311612bcf57829003601f168201915b5050505050905084565b6000806000905060005b600854811015612c7c57846014600083815260200190815260200160002060000154148015612c5f575060146000828152602001908152602001600020600301604051612c4d91906142bd565b60405180910390208480519060200120145b15612c6957600191505b8080612c7490613f01565b915050612c00565b508091505092915050565b60035481565b6060600d60008381526020019081526020016000206001018054612cb090613e72565b80601f0160208091040260200160405190810160405280929190818152602001828054612cdc90613e72565b8015612d295780601f10612cfe57610100808354040283529160200191612d29565b820191906000526020600020905b815481529060010190602001808311612d0c57829003601f168201915b50505050509050919050565b6001601682604051612d479190614203565b908152602001604051809103902060010160056101000a81548160ff02191690831515021790555081600e60008581526020019081526020016000206002016000828254612d9591906142d4565b9250508190555081600f82604051612dad9190614203565b90815260200160405180910390206000828254612dca91906142d4565b92505081905550604051806060016040528084815260200182815260200183815250601060006001548152602001908152602001600020600082015181600001556020820151816001019081612e2091906140f5565b506040820151816002015590505060016000815480929190612e4190613f01565b9190505550505050565b60015481565b600060405180606001604052808581526020018481526020016040518060400160405280600581526020017f46616c7365000000000000000000000000000000000000000000000000000000815250815250600a6000805481526020019081526020016000206000820151816000019081612ecc91906140f5565b506020820151816001019081612ee291906140f5565b506040820151816002019081612ef891906140f5565b5090505081600b6000805481526020019081526020016000209081612f1d91906140f5565b506001601685604051612f309190614203565b908152602001604051809103902060010160006101000a81548160ff021916908315150217905550600080815480929190612f6a90613f01565b919050555060005490509392505050565b600080600090505b600454811015612fe2578280519060200120600c6000838152602001908152602001600020600101604051612fb891906142bd565b604051809103902003612fcf576001915050612fe8565b8080612fda90613f01565b915050612f83565b50600090505b919050565b601160205280600052604060002060009150905080600001549080600101549080600201805461301c90613e72565b80601f016020809104026020016040519081016040528092919081815260200182805461304890613e72565b80156130955780601f1061306a57610100808354040283529160200191613095565b820191906000526020600020905b81548152906001019060200180831161307857829003601f168201915b5050505050905083565b60405180606001604052808481526020018381526020018281525060116000848152602001908152602001600020600082015181600001556020820151816001015560408201518160020190816130f691906140f5565b50905050505050565b50805461310b90613e72565b6000825580601f1061311d575061313c565b601f01602090049060005260206000209081019061313b919061313f565b5b50565b5b80821115613158576000816000905550600101613140565b5090565b6000604051905090565b600080fd5b600080fd5b6000819050919050565b61318381613170565b811461318e57600080fd5b50565b6000813590506131a08161317a565b92915050565b6000602082840312156131bc576131bb613166565b5b60006131ca84828501613191565b91505092915050565b600081519050919050565b600082825260208201905092915050565b6000819050602082019050919050565b600081519050919050565b600082825260208201905092915050565b60005b8381101561323957808201518184015260208101905061321e565b60008484015250505050565b6000601f19601f8301169050919050565b6000613261826131ff565b61326b818561320a565b935061327b81856020860161321b565b61328481613245565b840191505092915050565b600061329b8383613256565b905092915050565b6000602082019050919050565b60006132bb826131d3565b6132c581856131de565b9350836020820285016132d7856131ef565b8060005b8581101561331357848403895281516132f4858261328f565b94506132ff836132a3565b925060208a019950506001810190506132db565b50829750879550505050505092915050565b6000602082019050818103600083015261333f81846132b0565b905092915050565b61335081613170565b82525050565b600060208201905061336b6000830184613347565b92915050565b600080fd5b600080fd5b7f4e487b7100000000000000000000000000000000000000000000000000000000600052604160045260246000fd5b6133b382613245565b810181811067ffffffffffffffff821117156133d2576133d161337b565b5b80604052505050565b60006133e561315c565b90506133f182826133aa565b919050565b600067ffffffffffffffff8211156134115761341061337b565b5b61341a82613245565b9050602081019050919050565b82818337600083830152505050565b6000613449613444846133f6565b6133db565b90508281526020810184848401111561346557613464613376565b5b613470848285613427565b509392505050565b600082601f83011261348d5761348c613371565b5b813561349d848260208601613436565b91505092915050565b600067ffffffffffffffff8211156134c1576134c061337b565b5b602082029050602081019050919050565b600080fd5b60006134ea6134e5846134a6565b6133db565b9050808382526020820190506020840283018581111561350d5761350c6134d2565b5b835b8181101561355457803567ffffffffffffffff81111561353257613531613371565b5b80860161353f8982613478565b8552602085019450505060208101905061350f565b5050509392505050565b600082601f83011261357357613572613371565b5b81356135838482602086016134d7565b91505092915050565b600080600080608085870312156135a6576135a5613166565b5b600085013567ffffffffffffffff8111156135c4576135c361316b565b5b6135d087828801613478565b94505060206135e187828801613191565b935050604085013567ffffffffffffffff8111156136025761360161316b565b5b61360e8782880161355e565b925050606085013567ffffffffffffffff81111561362f5761362e61316b565b5b61363b87828801613478565b91505092959194509250565b600082825260208201905092915050565b6000613663826131ff565b61366d8185613647565b935061367d81856020860161321b565b61368681613245565b840191505092915050565b60006060820190506136a66000830186613347565b6136b36020830185613347565b81810360408301526136c58184613658565b9050949350505050565b6000602082840312156136e5576136e4613166565b5b600082013567ffffffffffffffff8111156137035761370261316b565b5b61370f84828501613478565b91505092915050565b600060608201905081810360008301526137328186613658565b905081810360208301526137468185613658565b9050818103604083015261375a8184613658565b9050949350505050565b60006040820190506137796000830185613347565b818103602083015261378b8184613658565b90509392505050565b6000806000606084860312156137ad576137ac613166565b5b60006137bb86828701613191565b935050602084013567ffffffffffffffff8111156137dc576137db61316b565b5b6137e886828701613478565b925050604084013567ffffffffffffffff8111156138095761380861316b565b5b61381586828701613478565b9150509250925092565b60006080820190506138346000830187613347565b6138416020830186613347565b61384e6040830185613347565b81810360608301526138608184613658565b905095945050505050565b60006060820190506138806000830186613347565b81810360208301526138928185613658565b90506138a16040830184613347565b949350505050565b600080600080608085870312156138c3576138c2613166565b5b60006138d187828801613191565b945050602085013567ffffffffffffffff8111156138f2576138f161316b565b5b6138fe87828801613478565b935050604061390f87828801613191565b925050606085013567ffffffffffffffff8111156139305761392f61316b565b5b61393c87828801613478565b91505092959194509250565b6000806040838503121561395f5761395e613166565b5b600061396d85828601613191565b925050602061397e85828601613191565b9150509250929050565b6000806040838503121561399f5761399e613166565b5b60006139ad85828601613191565b925050602083013567ffffffffffffffff8111156139ce576139cd61316b565b5b6139da85828601613478565b9150509250929050565b600060208201905081810360008301526139fe8184613658565b905092915050565b600080600060608486031215613a1f57613a1e613166565b5b600084013567ffffffffffffffff811115613a3d57613a3c61316b565b5b613a4986828701613478565b9350506020613a5a86828701613191565b925050604084013567ffffffffffffffff811115613a7b57613a7a61316b565b5b613a8786828701613478565b9150509250925092565b600081519050919050565b600082825260208201905092915050565b6000819050602082019050919050565b613ac681613170565b82525050565b6000613ad88383613abd565b60208301905092915050565b6000602082019050919050565b6000613afc82613a91565b613b068185613a9c565b9350613b1183613aad565b8060005b83811015613b42578151613b298882613acc565b9750613b3483613ae4565b925050600181019050613b15565b5085935050505092915050565b60006020820190508181036000830152613b698184613af1565b905092915050565b600080600060608486031215613b8a57613b89613166565b5b6000613b9886828701613191565b9350506020613ba986828701613191565b925050604084013567ffffffffffffffff811115613bca57613bc961316b565b5b613bd686828701613478565b9150509250925092565b60008060008060808587031215613bfa57613bf9613166565b5b6000613c0887828801613191565b9450506020613c1987828801613191565b935050604085013567ffffffffffffffff811115613c3a57613c3961316b565b5b613c4687828801613478565b925050606085013567ffffffffffffffff811115613c6757613c6661316b565b5b613c7387828801613478565b91505092959194509250565b60008115159050919050565b613c9481613c7f565b82525050565b6000610120820190508181036000830152613cb5818c613658565b9050613cc4602083018b613c8b565b613cd1604083018a613c8b565b613cde6060830189613c8b565b613ceb6080830188613c8b565b613cf860a0830187613c8b565b613d0560c0830186613c8b565b613d1260e0830185613c8b565b613d20610100830184613c8b565b9a9950505050505050505050565b6000608082019050613d436000830187613347565b613d506020830186613347565b8181036040830152613d628185613658565b90508181036060830152613d768184613658565b905095945050505050565b6000602082019050613d966000830184613c8b565b92915050565b600080600060608486031215613db557613db4613166565b5b600084013567ffffffffffffffff811115613dd357613dd261316b565b5b613ddf86828701613478565b935050602084013567ffffffffffffffff811115613e0057613dff61316b565b5b613e0c86828701613478565b925050604084013567ffffffffffffffff811115613e2d57613e2c61316b565b5b613e3986828701613478565b9150509250925092565b7f4e487b7100000000000000000000000000000000000000000000000000000000600052602260045260246000fd5b60006002820490506001821680613e8a57607f821691505b602082108103613e9d57613e9c613e43565b5b50919050565b7f4e487b7100000000000000000000000000000000000000000000000000000000600052603260045260246000fd5b7f4e487b7100000000000000000000000000000000000000000000000000000000600052601160045260246000fd5b6000613f0c82613170565b91507fffffffffffffffffffffffffffffffffffffffffffffffffffffffffffffffff8203613f3e57613f3d613ed2565b5b600182019050919050565b60008190508160005260206000209050919050565b60006020601f8301049050919050565b600082821b905092915050565b600060088302613fab7fffffffffffffffffffffffffffffffffffffffffffffffffffffffffffffffff82613f6e565b613fb58683613f6e565b95508019841693508086168417925050509392505050565b6000819050919050565b6000613ff2613fed613fe884613170565b613fcd565b613170565b9050919050565b6000819050919050565b61400c83613fd7565b61402061401882613ff9565b848454613f7b565b825550505050565b600090565b614035614028565b614040818484614003565b505050565b5b818110156140645761405960008261402d565b600181019050614046565b5050565b601f8211156140a95761407a81613f49565b61408384613f5e565b81016020851015614092578190505b6140a661409e85613f5e565b830182614045565b50505b505050565b600082821c905092915050565b60006140cc600019846008026140ae565b1980831691505092915050565b60006140e583836140bb565b9150826002028217905092915050565b6140fe826131ff565b67ffffffffffffffff8111156141175761411661337b565b5b6141218254613e72565b61412c828285614068565b600060209050601f83116001811461415f576000841561414d578287015190505b61415785826140d9565b8655506141bf565b601f19841661416d86613f49565b60005b8281101561419557848901518255600182019150602085019450602081019050614170565b868310156141b257848901516141ae601f8916826140bb565b8355505b6001600288020188555050505b505050505050565b600081905092915050565b60006141dd826131ff565b6141e781856141c7565b93506141f781856020860161321b565b80840191505092915050565b600061420f82846141d2565b915081905092915050565b600081905092915050565b60008190508160005260206000209050919050565b6000815461424781613e72565b614251818661421a565b9450600182166000811461426c5760018114614281576142b4565b60ff19831686528115158202860193506142b4565b61428a85614225565b60005b838110156142ac5781548189015260018201915060208101905061428d565b838801955050505b50505092915050565b60006142c9828461423a565b915081905092915050565b60006142df82613170565b91506142ea83613170565b925082820190508082111561430257614301613ed2565b5b9291505056fea2646970667358221220b8966c2e470edca5120846842d4169fc208519c02f65a713b0976deda1e57c1564736f6c63430008110033","opcodes":"PUSH1 0x80 PUSH1 0x40 MSTORE CALLVALUE DUP1 ISZERO PUSH2 0x10 JUMPI PUSH1 0x0 DUP1 REVERT JUMPDEST POP PUSH2 0x433E DUP1 PUSH2 0x20 PUSH1 0x0 CODECOPY PUSH1 0x0 RETURN INVALID PUSH1 0x80 PUSH1 0x40 MSTORE CALLVALUE DUP1 ISZERO PUSH2 0x10 JUMPI PUSH1 0x0 DUP1 REVERT JUMPDEST POP PUSH1 0x4 CALLDATASIZE LT PUSH2 0x327 JUMPI PUSH1 0x0 CALLDATALOAD PUSH1 0xE0 SHR DUP1 PUSH4 0x812FAE1F GT PUSH2 0x1B8 JUMPI DUP1 PUSH4 0xB527D45E GT PUSH2 0x104 JUMPI DUP1 PUSH4 0xD3791B20 GT PUSH2 0xA2 JUMPI DUP1 PUSH4 0xEC245802 GT PUSH2 0x7C JUMPI DUP1 PUSH4 0xEC245802 EQ PUSH2 0xB01 JUMPI DUP1 PUSH4 0xEC399255 EQ PUSH2 0xB1F JUMPI DUP1 PUSH4 0xECA7F5FE EQ PUSH2 0xB4F JUMPI DUP1 PUSH4 0xFF4A37EF EQ PUSH2 0xB7F JUMPI PUSH2 0x327 JUMP JUMPDEST DUP1 PUSH4 0xD3791B20 EQ PUSH2 0xA97 JUMPI DUP1 PUSH4 0xE32ACC1A EQ PUSH2 0xAB5 JUMPI DUP1 PUSH4 0xE3863CEF EQ PUSH2 0xAE5 JUMPI PUSH2 0x327 JUMP JUMPDEST DUP1 PUSH4 0xC29595C5 GT PUSH2 0xDE JUMPI DUP1 PUSH4 0xC29595C5 EQ PUSH2 0x9FA JUMPI DUP1 PUSH4 0xCA013F17 EQ PUSH2 0xA16 JUMPI DUP1 PUSH4 0xCACE8D46 EQ PUSH2 0xA34 JUMPI DUP1 PUSH4 0xCD230809 EQ PUSH2 0xA67 JUMPI PUSH2 0x327 JUMP JUMPDEST DUP1 PUSH4 0xB527D45E EQ PUSH2 0x98D JUMPI DUP1 PUSH4 0xC04E7430 EQ PUSH2 0x9C0 JUMPI DUP1 PUSH4 0xC04FE978 EQ PUSH2 0x9DC JUMPI PUSH2 0x327 JUMP JUMPDEST DUP1 PUSH4 0x9077007D GT PUSH2 0x171 JUMPI DUP1 PUSH4 0xA1CA9178 GT PUSH2 0x14B JUMPI DUP1 PUSH4 0xA1CA9178 EQ PUSH2 0x905 JUMPI DUP1 PUSH4 0xAA2BF5D3 EQ PUSH2 0x935 JUMPI DUP1 PUSH4 0xAA4CDF2A EQ PUSH2 0x953 JUMPI DUP1 PUSH4 0xB16060A6 EQ PUSH2 0x983 JUMPI PUSH2 0x327 JUMP JUMPDEST DUP1 PUSH4 0x9077007D EQ PUSH2 0x891 JUMPI DUP1 PUSH4 0x97EE7606 EQ PUSH2 0x8AF JUMPI DUP1 PUSH4 0x9F9FF54B EQ PUSH2 0x8CD JUMPI PUSH2 0x327 JUMP JUMPDEST DUP1 PUSH4 0x812FAE1F EQ PUSH2 0x799 JUMPI DUP1 PUSH4 0x82FCC732 EQ PUSH2 0x7C9 JUMPI DUP1 PUSH4 0x87633EB2 EQ PUSH2 0x7F9 JUMPI DUP1 PUSH4 0x881DE858 EQ PUSH2 0x815 JUMPI DUP1 PUSH4 0x8C59143D EQ PUSH2 0x831 JUMPI DUP1 PUSH4 0x8D3D2595 EQ PUSH2 0x861 JUMPI PUSH2 0x327 JUMP JUMPDEST DUP1 PUSH4 0x468D0C80 GT PUSH2 0x277 JUMPI DUP1 PUSH4 0x6ECDA4EE GT PUSH2 0x230 JUMPI DUP1 PUSH4 0x7BBD582D GT PUSH2 0x20A JUMPI DUP1 PUSH4 0x7BBD582D EQ PUSH2 0x6E8 JUMPI DUP1 PUSH4 0x7F2035D4 EQ PUSH2 0x706 JUMPI DUP1 PUSH4 0x7FC543EC EQ PUSH2 0x737 JUMPI DUP1 PUSH4 0x803F5B9F EQ PUSH2 0x769 JUMPI PUSH2 0x327 JUMP JUMPDEST DUP1 PUSH4 0x6ECDA4EE EQ PUSH2 0x658 JUMPI DUP1 PUSH4 0x77935BE7 EQ PUSH2 0x688 JUMPI DUP1 PUSH4 0x77B2EC23 EQ PUSH2 0x6B8 JUMPI PUSH2 0x327 JUMP JUMPDEST DUP1 PUSH4 0x468D0C80 EQ PUSH2 0x55C JUMPI DUP1 PUSH4 0x494CE295 EQ PUSH2 0x58E JUMPI DUP1 PUSH4 0x4A797BD7 EQ PUSH2 0x5BE JUMPI DUP1 PUSH4 0x4BE7ADB5 EQ PUSH2 0x5DC JUMPI DUP1 PUSH4 0x5132F0C7 EQ PUSH2 0x60C JUMPI DUP1 PUSH4 0x5D907DA1 EQ PUSH2 0x628 JUMPI PUSH2 0x327 JUMP JUMPDEST DUP1 PUSH4 0x1BA44C4C GT PUSH2 0x2E4 JUMPI DUP1 PUSH4 0x29B56F60 GT PUSH2 0x2BE JUMPI DUP1 PUSH4 0x29B56F60 EQ PUSH2 0x4AA JUMPI DUP1 PUSH4 0x330B8F26 EQ PUSH2 0x4C8 JUMPI DUP1 PUSH4 0x3F50602F EQ PUSH2 0x4F9 JUMPI DUP1 PUSH4 0x3F87A2F4 EQ PUSH2 0x529 JUMPI PUSH2 0x327 JUMP JUMPDEST DUP1 PUSH4 0x1BA44C4C EQ PUSH2 0x416 JUMPI DUP1 PUSH4 0x1E9AC9F5 EQ PUSH2 0x448 JUMPI DUP1 PUSH4 0x27A568B9 EQ PUSH2 0x478 JUMPI PUSH2 0x327 JUMP JUMPDEST DUP1 PUSH4 0x109AC970 EQ PUSH2 0x32C JUMPI DUP1 PUSH4 0x1171B621 EQ PUSH2 0x35C JUMPI DUP1 PUSH4 0x131D44F2 EQ PUSH2 0x37A JUMPI DUP1 PUSH4 0x13BF4CEA EQ PUSH2 0x3AA JUMPI DUP1 PUSH4 0x18426B46 EQ PUSH2 0x3C8 JUMPI DUP1 PUSH4 0x1B592AEB EQ PUSH2 0x3F8 JUMPI JUMPDEST PUSH1 0x0 DUP1 REVERT JUMPDEST PUSH2 0x346 PUSH1 0x4 DUP1 CALLDATASIZE SUB DUP2 ADD SWAP1 PUSH2 0x341 SWAP2 SWAP1 PUSH2 0x31A6 JUMP JUMPDEST PUSH2 0xBB1 JUMP JUMPDEST PUSH1 0x40 MLOAD PUSH2 0x353 SWAP2 SWAP1 PUSH2 0x3325 JUMP JUMPDEST PUSH1 0x40 MLOAD DUP1 SWAP2 SUB SWAP1 RETURN JUMPDEST PUSH2 0x364 PUSH2 0xD20 JUMP JUMPDEST PUSH1 0x40 MLOAD PUSH2 0x371 SWAP2 SWAP1 PUSH2 0x3356 JUMP JUMPDEST PUSH1 0x40 MLOAD DUP1 SWAP2 SUB SWAP1 RETURN JUMPDEST PUSH2 0x394 PUSH1 0x4 DUP1 CALLDATASIZE SUB DUP2 ADD SWAP1 PUSH2 0x38F SWAP2 SWAP1 PUSH2 0x31A6 JUMP JUMPDEST PUSH2 0xD26 JUMP JUMPDEST PUSH1 0x40 MLOAD PUSH2 0x3A1 SWAP2 SWAP1 PUSH2 0x3325 JUMP JUMPDEST PUSH1 0x40 MLOAD DUP1 SWAP2 SUB SWAP1 RETURN JUMPDEST PUSH2 0x3B2 PUSH2 0xE95 JUMP JUMPDEST PUSH1 0x40 MLOAD PUSH2 0x3BF SWAP2 SWAP1 PUSH2 0x3356 JUMP JUMPDEST PUSH1 0x40 MLOAD DUP1 SWAP2 SUB SWAP1 RETURN JUMPDEST PUSH2 0x3E2 PUSH1 0x4 DUP1 CALLDATASIZE SUB DUP2 ADD SWAP1 PUSH2 0x3DD SWAP2 SWAP1 PUSH2 0x358C JUMP JUMPDEST PUSH2 0xE9B JUMP JUMPDEST PUSH1 0x40 MLOAD PUSH2 0x3EF SWAP2 SWAP1 PUSH2 0x3356 JUMP JUMPDEST PUSH1 0x40 MLOAD DUP1 SWAP2 SUB SWAP1 RETURN JUMPDEST PUSH2 0x400 PUSH2 0xFBB JUMP JUMPDEST PUSH1 0x40 MLOAD PUSH2 0x40D SWAP2 SWAP1 PUSH2 0x3356 JUMP JUMPDEST PUSH1 0x40 MLOAD DUP1 SWAP2 SUB SWAP1 RETURN JUMPDEST PUSH2 0x430 PUSH1 0x4 DUP1 CALLDATASIZE SUB DUP2 ADD SWAP1 PUSH2 0x42B SWAP2 SWAP1 PUSH2 0x31A6 JUMP JUMPDEST PUSH2 0xFC1 JUMP JUMPDEST PUSH1 0x40 MLOAD PUSH2 0x43F SWAP4 SWAP3 SWAP2 SWAP1 PUSH2 0x3691 JUMP JUMPDEST PUSH1 0x40 MLOAD DUP1 SWAP2 SUB SWAP1 RETURN JUMPDEST PUSH2 0x462 PUSH1 0x4 DUP1 CALLDATASIZE SUB DUP2 ADD SWAP1 PUSH2 0x45D SWAP2 SWAP1 PUSH2 0x36CF JUMP JUMPDEST PUSH2 0x1073 JUMP JUMPDEST PUSH1 0x40 MLOAD PUSH2 0x46F SWAP2 SWAP1 PUSH2 0x3356 JUMP JUMPDEST PUSH1 0x40 MLOAD DUP1 SWAP2 SUB SWAP1 RETURN JUMPDEST PUSH2 0x492 PUSH1 0x4 DUP1 CALLDATASIZE SUB DUP2 ADD SWAP1 PUSH2 0x48D SWAP2 SWAP1 PUSH2 0x31A6 JUMP JUMPDEST PUSH2 0x10E4 JUMP JUMPDEST PUSH1 0x40 MLOAD PUSH2 0x4A1 SWAP4 SWAP3 SWAP2 SWAP1 PUSH2 0x3718 JUMP JUMPDEST PUSH1 0x40 MLOAD DUP1 SWAP2 SUB SWAP1 RETURN JUMPDEST PUSH2 0x4B2 PUSH2 0x12A6 JUMP JUMPDEST PUSH1 0x40 MLOAD PUSH2 0x4BF SWAP2 SWAP1 PUSH2 0x3325 JUMP JUMPDEST PUSH1 0x40 MLOAD DUP1 SWAP2 SUB SWAP1 RETURN JUMPDEST PUSH2 0x4E2 PUSH1 0x4 DUP1 CALLDATASIZE SUB DUP2 ADD SWAP1 PUSH2 0x4DD SWAP2 SWAP1 PUSH2 0x31A6 JUMP JUMPDEST PUSH2 0x13E1 JUMP JUMPDEST PUSH1 0x40 MLOAD PUSH2 0x4F0 SWAP3 SWAP2 SWAP1 PUSH2 0x3764 JUMP JUMPDEST PUSH1 0x40 MLOAD DUP1 SWAP2 SUB SWAP1 RETURN JUMPDEST PUSH2 0x513 PUSH1 0x4 DUP1 CALLDATASIZE SUB DUP2 ADD SWAP1 PUSH2 0x50E SWAP2 SWAP1 PUSH2 0x3794 JUMP JUMPDEST PUSH2 0x148D JUMP JUMPDEST PUSH1 0x40 MLOAD PUSH2 0x520 SWAP2 SWAP1 PUSH2 0x3356 JUMP JUMPDEST PUSH1 0x40 MLOAD DUP1 SWAP2 SUB SWAP1 RETURN JUMPDEST PUSH2 0x543 PUSH1 0x4 DUP1 CALLDATASIZE SUB DUP2 ADD SWAP1 PUSH2 0x53E SWAP2 SWAP1 PUSH2 0x31A6 JUMP JUMPDEST PUSH2 0x1568 JUMP JUMPDEST PUSH1 0x40 MLOAD PUSH2 0x553 SWAP5 SWAP4 SWAP3 SWAP2 SWAP1 PUSH2 0x381F JUMP JUMPDEST PUSH1 0x40 MLOAD DUP1 SWAP2 SUB SWAP1 RETURN JUMPDEST PUSH2 0x576 PUSH1 0x4 DUP1 CALLDATASIZE SUB DUP2 ADD SWAP1 PUSH2 0x571 SWAP2 SWAP1 PUSH2 0x31A6 JUMP JUMPDEST PUSH2 0x1620 JUMP JUMPDEST PUSH1 0x40 MLOAD PUSH2 0x585 SWAP4 SWAP3 SWAP2 SWAP1 PUSH2 0x386B JUMP JUMPDEST PUSH1 0x40 MLOAD DUP1 SWAP2 SUB SWAP1 RETURN JUMPDEST PUSH2 0x5A8 PUSH1 0x4 DUP1 CALLDATASIZE SUB DUP2 ADD SWAP1 PUSH2 0x5A3 SWAP2 SWAP1 PUSH2 0x38A9 JUMP JUMPDEST PUSH2 0x16D2 JUMP JUMPDEST PUSH1 0x40 MLOAD PUSH2 0x5B5 SWAP2 SWAP1 PUSH2 0x3356 JUMP JUMPDEST PUSH1 0x40 MLOAD DUP1 SWAP2 SUB SWAP1 RETURN JUMPDEST PUSH2 0x5C6 PUSH2 0x17A2 JUMP JUMPDEST PUSH1 0x40 MLOAD PUSH2 0x5D3 SWAP2 SWAP1 PUSH2 0x3356 JUMP JUMPDEST PUSH1 0x40 MLOAD DUP1 SWAP2 SUB SWAP1 RETURN JUMPDEST PUSH2 0x5F6 PUSH1 0x4 DUP1 CALLDATASIZE SUB DUP2 ADD SWAP1 PUSH2 0x5F1 SWAP2 SWAP1 PUSH2 0x3948 JUMP JUMPDEST PUSH2 0x17A8 JUMP JUMPDEST PUSH1 0x40 MLOAD PUSH2 0x603 SWAP2 SWAP1 PUSH2 0x3325 JUMP JUMPDEST PUSH1 0x40 MLOAD DUP1 SWAP2 SUB SWAP1 RETURN JUMPDEST PUSH2 0x626 PUSH1 0x4 DUP1 CALLDATASIZE SUB DUP2 ADD SWAP1 PUSH2 0x621 SWAP2 SWAP1 PUSH2 0x3988 JUMP JUMPDEST PUSH2 0x193A JUMP JUMPDEST STOP JUMPDEST PUSH2 0x642 PUSH1 0x4 DUP1 CALLDATASIZE SUB DUP2 ADD SWAP1 PUSH2 0x63D SWAP2 SWAP1 PUSH2 0x31A6 JUMP JUMPDEST PUSH2 0x19DD JUMP JUMPDEST PUSH1 0x40 MLOAD PUSH2 0x64F SWAP2 SWAP1 PUSH2 0x39E4 JUMP JUMPDEST PUSH1 0x40 MLOAD DUP1 SWAP2 SUB SWAP1 RETURN JUMPDEST PUSH2 0x672 PUSH1 0x4 DUP1 CALLDATASIZE SUB DUP2 ADD SWAP1 PUSH2 0x66D SWAP2 SWAP1 PUSH2 0x31A6 JUMP JUMPDEST PUSH2 0x1A85 JUMP JUMPDEST PUSH1 0x40 MLOAD PUSH2 0x67F SWAP2 SWAP1 PUSH2 0x39E4 JUMP JUMPDEST PUSH1 0x40 MLOAD DUP1 SWAP2 SUB SWAP1 RETURN JUMPDEST PUSH2 0x6A2 PUSH1 0x4 DUP1 CALLDATASIZE SUB DUP2 ADD SWAP1 PUSH2 0x69D SWAP2 SWAP1 PUSH2 0x36CF JUMP JUMPDEST PUSH2 0x1B25 JUMP JUMPDEST PUSH1 0x40 MLOAD PUSH2 0x6AF SWAP2 SWAP1 PUSH2 0x3356 JUMP JUMPDEST PUSH1 0x40 MLOAD DUP1 SWAP2 SUB SWAP1 RETURN JUMPDEST PUSH2 0x6D2 PUSH1 0x4 DUP1 CALLDATASIZE SUB DUP2 ADD SWAP1 PUSH2 0x6CD SWAP2 SWAP1 PUSH2 0x3A06 JUMP JUMPDEST PUSH2 0x1B53 JUMP JUMPDEST PUSH1 0x40 MLOAD PUSH2 0x6DF SWAP2 SWAP1 PUSH2 0x3356 JUMP JUMPDEST PUSH1 0x40 MLOAD DUP1 SWAP2 SUB SWAP1 RETURN JUMPDEST PUSH2 0x6F0 PUSH2 0x1C00 JUMP JUMPDEST PUSH1 0x40 MLOAD PUSH2 0x6FD SWAP2 SWAP1 PUSH2 0x3356 JUMP JUMPDEST PUSH1 0x40 MLOAD DUP1 SWAP2 SUB SWAP1 RETURN JUMPDEST PUSH2 0x720 PUSH1 0x4 DUP1 CALLDATASIZE SUB DUP2 ADD SWAP1 PUSH2 0x71B SWAP2 SWAP1 PUSH2 0x31A6 JUMP JUMPDEST PUSH2 0x1C06 JUMP JUMPDEST PUSH1 0x40 MLOAD PUSH2 0x72E SWAP3 SWAP2 SWAP1 PUSH2 0x3764 JUMP JUMPDEST PUSH1 0x40 MLOAD DUP1 SWAP2 SUB SWAP1 RETURN JUMPDEST PUSH2 0x751 PUSH1 0x4 DUP1 CALLDATASIZE SUB DUP2 ADD SWAP1 PUSH2 0x74C SWAP2 SWAP1 PUSH2 0x31A6 JUMP JUMPDEST PUSH2 0x1CB2 JUMP JUMPDEST PUSH1 0x40 MLOAD PUSH2 0x760 SWAP4 SWAP3 SWAP2 SWAP1 PUSH2 0x386B JUMP JUMPDEST PUSH1 0x40 MLOAD DUP1 SWAP2 SUB SWAP1 RETURN JUMPDEST PUSH2 0x783 PUSH1 0x4 DUP1 CALLDATASIZE SUB DUP2 ADD SWAP1 PUSH2 0x77E SWAP2 SWAP1 PUSH2 0x31A6 JUMP JUMPDEST PUSH2 0x1D64 JUMP JUMPDEST PUSH1 0x40 MLOAD PUSH2 0x790 SWAP2 SWAP1 PUSH2 0x3B4F JUMP JUMPDEST PUSH1 0x40 MLOAD DUP1 SWAP2 SUB SWAP1 RETURN JUMPDEST PUSH2 0x7B3 PUSH1 0x4 DUP1 CALLDATASIZE SUB DUP2 ADD SWAP1 PUSH2 0x7AE SWAP2 SWAP1 PUSH2 0x31A6 JUMP JUMPDEST PUSH2 0x1E47 JUMP JUMPDEST PUSH1 0x40 MLOAD PUSH2 0x7C0 SWAP2 SWAP1 PUSH2 0x3B4F JUMP JUMPDEST PUSH1 0x40 MLOAD DUP1 SWAP2 SUB SWAP1 RETURN JUMPDEST PUSH2 0x7E3 PUSH1 0x4 DUP1 CALLDATASIZE SUB DUP2 ADD SWAP1 PUSH2 0x7DE SWAP2 SWAP1 PUSH2 0x3B71 JUMP JUMPDEST PUSH2 0x1F2A JUMP JUMPDEST PUSH1 0x40 MLOAD PUSH2 0x7F0 SWAP2 SWAP1 PUSH2 0x3356 JUMP JUMPDEST PUSH1 0x40 MLOAD DUP1 SWAP2 SUB SWAP1 RETURN JUMPDEST PUSH2 0x813 PUSH1 0x4 DUP1 CALLDATASIZE SUB DUP2 ADD SWAP1 PUSH2 0x80E SWAP2 SWAP1 PUSH2 0x3988 JUMP JUMPDEST PUSH2 0x1FE7 JUMP JUMPDEST STOP JUMPDEST PUSH2 0x82F PUSH1 0x4 DUP1 CALLDATASIZE SUB DUP2 ADD SWAP1 PUSH2 0x82A SWAP2 SWAP1 PUSH2 0x3794 JUMP JUMPDEST PUSH2 0x200C JUMP JUMPDEST STOP JUMPDEST PUSH2 0x84B PUSH1 0x4 DUP1 CALLDATASIZE SUB DUP2 ADD SWAP1 PUSH2 0x846 SWAP2 SWAP1 PUSH2 0x3BE0 JUMP JUMPDEST PUSH2 0x2059 JUMP JUMPDEST PUSH1 0x40 MLOAD PUSH2 0x858 SWAP2 SWAP1 PUSH2 0x3356 JUMP JUMPDEST PUSH1 0x40 MLOAD DUP1 SWAP2 SUB SWAP1 RETURN JUMPDEST PUSH2 0x87B PUSH1 0x4 DUP1 CALLDATASIZE SUB DUP2 ADD SWAP1 PUSH2 0x876 SWAP2 SWAP1 PUSH2 0x31A6 JUMP JUMPDEST PUSH2 0x20F9 JUMP JUMPDEST PUSH1 0x40 MLOAD PUSH2 0x888 SWAP2 SWAP1 PUSH2 0x39E4 JUMP JUMPDEST PUSH1 0x40 MLOAD DUP1 SWAP2 SUB SWAP1 RETURN JUMPDEST PUSH2 0x899 PUSH2 0x21A1 JUMP JUMPDEST PUSH1 0x40 MLOAD PUSH2 0x8A6 SWAP2 SWAP1 PUSH2 0x3356 JUMP JUMPDEST PUSH1 0x40 MLOAD DUP1 SWAP2 SUB SWAP1 RETURN JUMPDEST PUSH2 0x8B7 PUSH2 0x21A7 JUMP JUMPDEST PUSH1 0x40 MLOAD PUSH2 0x8C4 SWAP2 SWAP1 PUSH2 0x3325 JUMP JUMPDEST PUSH1 0x40 MLOAD DUP1 SWAP2 SUB SWAP1 RETURN JUMPDEST PUSH2 0x8E7 PUSH1 0x4 DUP1 CALLDATASIZE SUB DUP2 ADD SWAP1 PUSH2 0x8E2 SWAP2 SWAP1 PUSH2 0x36CF JUMP JUMPDEST PUSH2 0x22E2 JUMP JUMPDEST PUSH1 0x40 MLOAD PUSH2 0x8FC SWAP10 SWAP9 SWAP8 SWAP7 SWAP6 SWAP5 SWAP4 SWAP3 SWAP2 SWAP1 PUSH2 0x3C9A JUMP JUMPDEST PUSH1 0x40 MLOAD DUP1 SWAP2 SUB SWAP1 RETURN JUMPDEST PUSH2 0x91F PUSH1 0x4 DUP1 CALLDATASIZE SUB DUP2 ADD SWAP1 PUSH2 0x91A SWAP2 SWAP1 PUSH2 0x36CF JUMP JUMPDEST PUSH2 0x2436 JUMP JUMPDEST PUSH1 0x40 MLOAD PUSH2 0x92C SWAP2 SWAP1 PUSH2 0x3356 JUMP JUMPDEST PUSH1 0x40 MLOAD DUP1 SWAP2 SUB SWAP1 RETURN JUMPDEST PUSH2 0x93D PUSH2 0x24A7 JUMP JUMPDEST PUSH1 0x40 MLOAD PUSH2 0x94A SWAP2 SWAP1 PUSH2 0x3356 JUMP JUMPDEST PUSH1 0x40 MLOAD DUP1 SWAP2 SUB SWAP1 RETURN JUMPDEST PUSH2 0x96D PUSH1 0x4 DUP1 CALLDATASIZE SUB DUP2 ADD SWAP1 PUSH2 0x968 SWAP2 SWAP1 PUSH2 0x36CF JUMP JUMPDEST PUSH2 0x24AD JUMP JUMPDEST PUSH1 0x40 MLOAD PUSH2 0x97A SWAP2 SWAP1 PUSH2 0x3356 JUMP JUMPDEST PUSH1 0x40 MLOAD DUP1 SWAP2 SUB SWAP1 RETURN JUMPDEST PUSH2 0x98B PUSH2 0x2534 JUMP JUMPDEST STOP JUMPDEST PUSH2 0x9A7 PUSH1 0x4 DUP1 CALLDATASIZE SUB DUP2 ADD SWAP1 PUSH2 0x9A2 SWAP2 SWAP1 PUSH2 0x31A6 JUMP JUMPDEST PUSH2 0x27E6 JUMP JUMPDEST PUSH1 0x40 MLOAD PUSH2 0x9B7 SWAP5 SWAP4 SWAP3 SWAP2 SWAP1 PUSH2 0x3D2E JUMP JUMPDEST PUSH1 0x40 MLOAD DUP1 SWAP2 SUB SWAP1 RETURN JUMPDEST PUSH2 0x9DA PUSH1 0x4 DUP1 CALLDATASIZE SUB DUP2 ADD SWAP1 PUSH2 0x9D5 SWAP2 SWAP1 PUSH2 0x3988 JUMP JUMPDEST PUSH2 0x2926 JUMP JUMPDEST STOP JUMPDEST PUSH2 0x9E4 PUSH2 0x294E JUMP JUMPDEST PUSH1 0x40 MLOAD PUSH2 0x9F1 SWAP2 SWAP1 PUSH2 0x3325 JUMP JUMPDEST PUSH1 0x40 MLOAD DUP1 SWAP2 SUB SWAP1 RETURN JUMPDEST PUSH2 0xA14 PUSH1 0x4 DUP1 CALLDATASIZE SUB DUP2 ADD SWAP1 PUSH2 0xA0F SWAP2 SWAP1 PUSH2 0x3988 JUMP JUMPDEST PUSH2 0x2A88 JUMP JUMPDEST STOP JUMPDEST PUSH2 0xA1E PUSH2 0x2AB0 JUMP JUMPDEST PUSH1 0x40 MLOAD PUSH2 0xA2B SWAP2 SWAP1 PUSH2 0x3356 JUMP JUMPDEST PUSH1 0x40 MLOAD DUP1 SWAP2 SUB SWAP1 RETURN JUMPDEST PUSH2 0xA4E PUSH1 0x4 DUP1 CALLDATASIZE SUB DUP2 ADD SWAP1 PUSH2 0xA49 SWAP2 SWAP1 PUSH2 0x31A6 JUMP JUMPDEST PUSH2 0x2AB6 JUMP JUMPDEST PUSH1 0x40 MLOAD PUSH2 0xA5E SWAP5 SWAP4 SWAP3 SWAP2 SWAP1 PUSH2 0x3D2E JUMP JUMPDEST PUSH1 0x40 MLOAD DUP1 SWAP2 SUB SWAP1 RETURN JUMPDEST PUSH2 0xA81 PUSH1 0x4 DUP1 CALLDATASIZE SUB DUP2 ADD SWAP1 PUSH2 0xA7C SWAP2 SWAP1 PUSH2 0x3988 JUMP JUMPDEST PUSH2 0x2BF6 JUMP JUMPDEST PUSH1 0x40 MLOAD PUSH2 0xA8E SWAP2 SWAP1 PUSH2 0x3D81 JUMP JUMPDEST PUSH1 0x40 MLOAD DUP1 SWAP2 SUB SWAP1 RETURN JUMPDEST PUSH2 0xA9F PUSH2 0x2C87 JUMP JUMPDEST PUSH1 0x40 MLOAD PUSH2 0xAAC SWAP2 SWAP1 PUSH2 0x3356 JUMP JUMPDEST PUSH1 0x40 MLOAD DUP1 SWAP2 SUB SWAP1 RETURN JUMPDEST PUSH2 0xACF PUSH1 0x4 DUP1 CALLDATASIZE SUB DUP2 ADD SWAP1 PUSH2 0xACA SWAP2 SWAP1 PUSH2 0x31A6 JUMP JUMPDEST PUSH2 0x2C8D JUMP JUMPDEST PUSH1 0x40 MLOAD PUSH2 0xADC SWAP2 SWAP1 PUSH2 0x39E4 JUMP JUMPDEST PUSH1 0x40 MLOAD DUP1 SWAP2 SUB SWAP1 RETURN JUMPDEST PUSH2 0xAFF PUSH1 0x4 DUP1 CALLDATASIZE SUB DUP2 ADD SWAP1 PUSH2 0xAFA SWAP2 SWAP1 PUSH2 0x3B71 JUMP JUMPDEST PUSH2 0x2D35 JUMP JUMPDEST STOP JUMPDEST PUSH2 0xB09 PUSH2 0x2E4B JUMP JUMPDEST PUSH1 0x40 MLOAD PUSH2 0xB16 SWAP2 SWAP1 PUSH2 0x3356 JUMP JUMPDEST PUSH1 0x40 MLOAD DUP1 SWAP2 SUB SWAP1 RETURN JUMPDEST PUSH2 0xB39 PUSH1 0x4 DUP1 CALLDATASIZE SUB DUP2 ADD SWAP1 PUSH2 0xB34 SWAP2 SWAP1 PUSH2 0x3D9C JUMP JUMPDEST PUSH2 0x2E51 JUMP JUMPDEST PUSH1 0x40 MLOAD PUSH2 0xB46 SWAP2 SWAP1 PUSH2 0x3356 JUMP JUMPDEST PUSH1 0x40 MLOAD DUP1 SWAP2 SUB SWAP1 RETURN JUMPDEST PUSH2 0xB69 PUSH1 0x4 DUP1 CALLDATASIZE SUB DUP2 ADD SWAP1 PUSH2 0xB64 SWAP2 SWAP1 PUSH2 0x36CF JUMP JUMPDEST PUSH2 0x2F7B JUMP JUMPDEST PUSH1 0x40 MLOAD PUSH2 0xB76 SWAP2 SWAP1 PUSH2 0x3D81 JUMP JUMPDEST PUSH1 0x40 MLOAD DUP1 SWAP2 SUB SWAP1 RETURN JUMPDEST PUSH2 0xB99 PUSH1 0x4 DUP1 CALLDATASIZE SUB DUP2 ADD SWAP1 PUSH2 0xB94 SWAP2 SWAP1 PUSH2 0x31A6 JUMP JUMPDEST PUSH2 0x2FED JUMP JUMPDEST PUSH1 0x40 MLOAD PUSH2 0xBA8 SWAP4 SWAP3 SWAP2 SWAP1 PUSH2 0x3691 JUMP JUMPDEST PUSH1 0x40 MLOAD DUP1 SWAP2 SUB SWAP1 RETURN JUMPDEST PUSH1 0x60 PUSH1 0x0 PUSH1 0x2 SLOAD PUSH8 0xFFFFFFFFFFFFFFFF DUP2 GT ISZERO PUSH2 0xBD1 JUMPI PUSH2 0xBD0 PUSH2 0x337B JUMP JUMPDEST JUMPDEST PUSH1 0x40 MLOAD SWAP1 DUP1 DUP3 MSTORE DUP1 PUSH1 0x20 MUL PUSH1 0x20 ADD DUP3 ADD PUSH1 0x40 MSTORE DUP1 ISZERO PUSH2 0xC04 JUMPI DUP2 PUSH1 0x20 ADD JUMPDEST PUSH1 0x60 DUP2 MSTORE PUSH1 0x20 ADD SWAP1 PUSH1 0x1 SWAP1 SUB SWAP1 DUP2 PUSH2 0xBEF JUMPI SWAP1 POP JUMPDEST POP SWAP1 POP PUSH1 0x0 DUP1 PUSH1 0x0 SWAP1 POP JUMPDEST PUSH1 0x2 SLOAD DUP2 LT ISZERO PUSH2 0xD15 JUMPI DUP5 PUSH1 0xD PUSH1 0x0 DUP4 DUP2 MSTORE PUSH1 0x20 ADD SWAP1 DUP2 MSTORE PUSH1 0x20 ADD PUSH1 0x0 KECCAK256 PUSH1 0x0 ADD SLOAD SUB PUSH2 0xD02 JUMPI PUSH1 0xD PUSH1 0x0 DUP3 DUP2 MSTORE PUSH1 0x20 ADD SWAP1 DUP2 MSTORE PUSH1 0x20 ADD PUSH1 0x0 KECCAK256 PUSH1 0x1 ADD DUP1 SLOAD PUSH2 0xC57 SWAP1 PUSH2 0x3E72 JUMP JUMPDEST DUP1 PUSH1 0x1F ADD PUSH1 0x20 DUP1 SWAP2 DIV MUL PUSH1 0x20 ADD PUSH1 0x40 MLOAD SWAP1 DUP2 ADD PUSH1 0x40 MSTORE DUP1 SWAP3 SWAP2 SWAP1 DUP2 DUP2 MSTORE PUSH1 0x20 ADD DUP3 DUP1 SLOAD PUSH2 0xC83 SWAP1 PUSH2 0x3E72 JUMP JUMPDEST DUP1 ISZERO PUSH2 0xCD0 JUMPI DUP1 PUSH1 0x1F LT PUSH2 0xCA5 JUMPI PUSH2 0x100 DUP1 DUP4 SLOAD DIV MUL DUP4 MSTORE SWAP2 PUSH1 0x20 ADD SWAP2 PUSH2 0xCD0 JUMP JUMPDEST DUP3 ADD SWAP2 SWAP1 PUSH1 0x0 MSTORE PUSH1 0x20 PUSH1 0x0 KECCAK256 SWAP1 JUMPDEST DUP2 SLOAD DUP2 MSTORE SWAP1 PUSH1 0x1 ADD SWAP1 PUSH1 0x20 ADD DUP1 DUP4 GT PUSH2 0xCB3 JUMPI DUP3 SWAP1 SUB PUSH1 0x1F AND DUP3 ADD SWAP2 JUMPDEST POP POP POP POP POP DUP4 DUP4 DUP2 MLOAD DUP2 LT PUSH2 0xCE8 JUMPI PUSH2 0xCE7 PUSH2 0x3EA3 JUMP JUMPDEST JUMPDEST PUSH1 0x20 MUL PUSH1 0x20 ADD ADD DUP2 SWAP1 MSTORE POP DUP2 DUP1 PUSH2 0xCFE SWAP1 PUSH2 0x3F01 JUMP JUMPDEST SWAP3 POP POP JUMPDEST DUP1 DUP1 PUSH2 0xD0D SWAP1 PUSH2 0x3F01 JUMP JUMPDEST SWAP2 POP POP PUSH2 0xC0F JUMP JUMPDEST POP DUP2 SWAP3 POP POP POP SWAP2 SWAP1 POP JUMP JUMPDEST PUSH1 0x4 SLOAD DUP2 JUMP JUMPDEST PUSH1 0x60 PUSH1 0x0 PUSH1 0x3 SLOAD PUSH8 0xFFFFFFFFFFFFFFFF DUP2 GT ISZERO PUSH2 0xD46 JUMPI PUSH2 0xD45 PUSH2 0x337B JUMP JUMPDEST JUMPDEST PUSH1 0x40 MLOAD SWAP1 DUP1 DUP3 MSTORE DUP1 PUSH1 0x20 MUL PUSH1 0x20 ADD DUP3 ADD PUSH1 0x40 MSTORE DUP1 ISZERO PUSH2 0xD79 JUMPI DUP2 PUSH1 0x20 ADD JUMPDEST PUSH1 0x60 DUP2 MSTORE PUSH1 0x20 ADD SWAP1 PUSH1 0x1 SWAP1 SUB SWAP1 DUP2 PUSH2 0xD64 JUMPI SWAP1 POP JUMPDEST POP SWAP1 POP PUSH1 0x0 DUP1 PUSH1 0x0 SWAP1 POP JUMPDEST PUSH1 0x3 SLOAD DUP2 LT ISZERO PUSH2 0xE8A JUMPI DUP5 PUSH1 0xE PUSH1 0x0 DUP4 DUP2 MSTORE PUSH1 0x20 ADD SWAP1 DUP2 MSTORE PUSH1 0x20 ADD PUSH1 0x0 KECCAK256 PUSH1 0x0 ADD SLOAD SUB PUSH2 0xE69 JUMPI PUSH1 0xE PUSH1 0x0 DUP3 DUP2 MSTORE PUSH1 0x20 ADD SWAP1 DUP2 MSTORE PUSH1 0x20 ADD PUSH1 0x0 KECCAK256 PUSH1 0x1 ADD DUP1 SLOAD PUSH2 0xDCC SWAP1 PUSH2 0x3E72 JUMP JUMPDEST DUP1 PUSH1 0x1F ADD PUSH1 0x20 DUP1 SWAP2 DIV MUL PUSH1 0x20 ADD PUSH1 0x40 MLOAD SWAP1 DUP2 ADD PUSH1 0x40 MSTORE DUP1 SWAP3 SWAP2 SWAP1 DUP2 DUP2 MSTORE PUSH1 0x20 ADD DUP3 DUP1 SLOAD PUSH2 0xDF8 SWAP1 PUSH2 0x3E72 JUMP JUMPDEST DUP1 ISZERO PUSH2 0xE45 JUMPI DUP1 PUSH1 0x1F LT PUSH2 0xE1A JUMPI PUSH2 0x100 DUP1 DUP4 SLOAD DIV MUL DUP4 MSTORE SWAP2 PUSH1 0x20 ADD SWAP2 PUSH2 0xE45 JUMP JUMPDEST DUP3 ADD SWAP2 SWAP1 PUSH1 0x0 MSTORE PUSH1 0x20 PUSH1 0x0 KECCAK256 SWAP1 JUMPDEST DUP2 SLOAD DUP2 MSTORE SWAP1 PUSH1 0x1 ADD SWAP1 PUSH1 0x20 ADD DUP1 DUP4 GT PUSH2 0xE28 JUMPI DUP3 SWAP1 SUB PUSH1 0x1F AND DUP3 ADD SWAP2 JUMPDEST POP POP POP POP POP DUP4 DUP4 DUP2 MLOAD DUP2 LT PUSH2 0xE5D JUMPI PUSH2 0xE5C PUSH2 0x3EA3 JUMP JUMPDEST JUMPDEST PUSH1 0x20 MUL PUSH1 0x20 ADD ADD DUP2 SWAP1 MSTORE POP JUMPDEST DUP2 DUP1 PUSH2 0xE74 SWAP1 PUSH2 0x3F01 JUMP JUMPDEST SWAP3 POP POP DUP1 DUP1 PUSH2 0xE82 SWAP1 PUSH2 0x3F01 JUMP JUMPDEST SWAP2 POP POP PUSH2 0xD84 JUMP JUMPDEST POP DUP2 SWAP3 POP POP POP SWAP2 SWAP1 POP JUMP JUMPDEST PUSH1 0x2 SLOAD DUP2 JUMP JUMPDEST PUSH1 0x0 PUSH1 0x40 MLOAD DUP1 PUSH1 0x60 ADD PUSH1 0x40 MSTORE DUP1 DUP6 DUP2 MSTORE PUSH1 0x20 ADD DUP7 DUP2 MSTORE PUSH1 0x20 ADD PUSH1 0x0 DUP2 MSTORE POP PUSH1 0xE PUSH1 0x0 PUSH1 0x3 SLOAD DUP2 MSTORE PUSH1 0x20 ADD SWAP1 DUP2 MSTORE PUSH1 0x20 ADD PUSH1 0x0 KECCAK256 PUSH1 0x0 DUP3 ADD MLOAD DUP2 PUSH1 0x0 ADD SSTORE PUSH1 0x20 DUP3 ADD MLOAD DUP2 PUSH1 0x1 ADD SWAP1 DUP2 PUSH2 0xEED SWAP2 SWAP1 PUSH2 0x40F5 JUMP JUMPDEST POP PUSH1 0x40 DUP3 ADD MLOAD DUP2 PUSH1 0x2 ADD SSTORE SWAP1 POP POP PUSH1 0x1 PUSH1 0x16 DUP4 PUSH1 0x40 MLOAD PUSH2 0xF0D SWAP2 SWAP1 PUSH2 0x4203 JUMP JUMPDEST SWAP1 DUP2 MSTORE PUSH1 0x20 ADD PUSH1 0x40 MLOAD DUP1 SWAP2 SUB SWAP1 KECCAK256 PUSH1 0x1 ADD PUSH1 0x3 PUSH2 0x100 EXP DUP2 SLOAD DUP2 PUSH1 0xFF MUL NOT AND SWAP1 DUP4 ISZERO ISZERO MUL OR SWAP1 SSTORE POP PUSH1 0x3 PUSH1 0x0 DUP2 SLOAD DUP1 SWAP3 SWAP2 SWAP1 PUSH2 0xF48 SWAP1 PUSH2 0x3F01 JUMP JUMPDEST SWAP2 SWAP1 POP SSTORE POP PUSH1 0x0 JUMPDEST DUP4 MLOAD DUP2 LT ISZERO PUSH2 0xFAD JUMPI PUSH2 0xF82 PUSH1 0x3 SLOAD PUSH1 0x5 SLOAD DUP7 DUP5 DUP2 MLOAD DUP2 LT PUSH2 0xF75 JUMPI PUSH2 0xF74 PUSH2 0x3EA3 JUMP JUMPDEST JUMPDEST PUSH1 0x20 MUL PUSH1 0x20 ADD ADD MLOAD PUSH2 0x309F JUMP JUMPDEST PUSH1 0x5 PUSH1 0x0 DUP2 SLOAD DUP1 SWAP3 SWAP2 SWAP1 PUSH2 0xF95 SWAP1 PUSH2 0x3F01 JUMP JUMPDEST SWAP2 SWAP1 POP SSTORE POP DUP1 DUP1 PUSH2 0xFA5 SWAP1 PUSH2 0x3F01 JUMP JUMPDEST SWAP2 POP POP PUSH2 0xF50 JUMP JUMPDEST POP PUSH1 0x3 SLOAD SWAP1 POP SWAP5 SWAP4 POP POP POP POP JUMP JUMPDEST PUSH1 0x5 SLOAD DUP2 JUMP JUMPDEST PUSH1 0x12 PUSH1 0x20 MSTORE DUP1 PUSH1 0x0 MSTORE PUSH1 0x40 PUSH1 0x0 KECCAK256 PUSH1 0x0 SWAP2 POP SWAP1 POP DUP1 PUSH1 0x0 ADD SLOAD SWAP1 DUP1 PUSH1 0x1 ADD SLOAD SWAP1 DUP1 PUSH1 0x2 ADD DUP1 SLOAD PUSH2 0xFF0 SWAP1 PUSH2 0x3E72 JUMP JUMPDEST DUP1 PUSH1 0x1F ADD PUSH1 0x20 DUP1 SWAP2 DIV MUL PUSH1 0x20 ADD PUSH1 0x40 MLOAD SWAP1 DUP2 ADD PUSH1 0x40 MSTORE DUP1 SWAP3 SWAP2 SWAP1 DUP2 DUP2 MSTORE PUSH1 0x20 ADD DUP3 DUP1 SLOAD PUSH2 0x101C SWAP1 PUSH2 0x3E72 JUMP JUMPDEST DUP1 ISZERO PUSH2 0x1069 JUMPI DUP1 PUSH1 0x1F LT PUSH2 0x103E JUMPI PUSH2 0x100 DUP1 DUP4 SLOAD DIV MUL DUP4 MSTORE SWAP2 PUSH1 0x20 ADD SWAP2 PUSH2 0x1069 JUMP JUMPDEST DUP3 ADD SWAP2 SWAP1 PUSH1 0x0 MSTORE PUSH1 0x20 PUSH1 0x0 KECCAK256 SWAP1 JUMPDEST DUP2 SLOAD DUP2 MSTORE SWAP1 PUSH1 0x1 ADD SWAP1 PUSH1 0x20 ADD DUP1 DUP4 GT PUSH2 0x104C JUMPI DUP3 SWAP1 SUB PUSH1 0x1F AND DUP3 ADD SWAP2 JUMPDEST POP POP POP POP POP SWAP1 POP DUP4 JUMP JUMPDEST PUSH1 0x0 DUP1 PUSH1 0x0 SWAP1 POP JUMPDEST PUSH1 0x2 SLOAD DUP2 LT ISZERO PUSH2 0x10D9 JUMPI DUP3 DUP1 MLOAD SWAP1 PUSH1 0x20 ADD KECCAK256 PUSH1 0xD PUSH1 0x0 DUP4 DUP2 MSTORE PUSH1 0x20 ADD SWAP1 DUP2 MSTORE PUSH1 0x20 ADD PUSH1 0x0 KECCAK256 PUSH1 0x1 ADD PUSH1 0x40 MLOAD PUSH2 0x10B0 SWAP2 SWAP1 PUSH2 0x42BD JUMP JUMPDEST PUSH1 0x40 MLOAD DUP1 SWAP2 SUB SWAP1 KECCAK256 SUB PUSH2 0x10C6 JUMPI DUP1 SWAP2 POP POP PUSH2 0x10DF JUMP JUMPDEST DUP1 DUP1 PUSH2 0x10D1 SWAP1 PUSH2 0x3F01 JUMP JUMPDEST SWAP2 POP POP PUSH2 0x107B JUMP JUMPDEST POP PUSH1 0x0 SWAP1 POP JUMPDEST SWAP2 SWAP1 POP JUMP JUMPDEST PUSH1 0xA PUSH1 0x20 MSTORE DUP1 PUSH1 0x0 MSTORE PUSH1 0x40 PUSH1 0x0 KECCAK256 PUSH1 0x0 SWAP2 POP SWAP1 POP DUP1 PUSH1 0x0 ADD DUP1 SLOAD PUSH2 0x1107 SWAP1 PUSH2 0x3E72 JUMP JUMPDEST DUP1 PUSH1 0x1F ADD PUSH1 0x20 DUP1 SWAP2 DIV MUL PUSH1 0x20 ADD PUSH1 0x40 MLOAD SWAP1 DUP2 ADD PUSH1 0x40 MSTORE DUP1 SWAP3 SWAP2 SWAP1 DUP2 DUP2 MSTORE PUSH1 0x20 ADD DUP3 DUP1 SLOAD PUSH2 0x1133 SWAP1 PUSH2 0x3E72 JUMP JUMPDEST DUP1 ISZERO PUSH2 0x1180 JUMPI DUP1 PUSH1 0x1F LT PUSH2 0x1155 JUMPI PUSH2 0x100 DUP1 DUP4 SLOAD DIV MUL DUP4 MSTORE SWAP2 PUSH1 0x20 ADD SWAP2 PUSH2 0x1180 JUMP JUMPDEST DUP3 ADD SWAP2 SWAP1 PUSH1 0x0 MSTORE PUSH1 0x20 PUSH1 0x0 KECCAK256 SWAP1 JUMPDEST DUP2 SLOAD DUP2 MSTORE SWAP1 PUSH1 0x1 ADD SWAP1 PUSH1 0x20 ADD DUP1 DUP4 GT PUSH2 0x1163 JUMPI DUP3 SWAP1 SUB PUSH1 0x1F AND DUP3 ADD SWAP2 JUMPDEST POP POP POP POP POP SWAP1 DUP1 PUSH1 0x1 ADD DUP1 SLOAD PUSH2 0x1195 SWAP1 PUSH2 0x3E72 JUMP JUMPDEST DUP1 PUSH1 0x1F ADD PUSH1 0x20 DUP1 SWAP2 DIV MUL PUSH1 0x20 ADD PUSH1 0x40 MLOAD SWAP1 DUP2 ADD PUSH1 0x40 MSTORE DUP1 SWAP3 SWAP2 SWAP1 DUP2 DUP2 MSTORE PUSH1 0x20 ADD DUP3 DUP1 SLOAD PUSH2 0x11C1 SWAP1 PUSH2 0x3E72 JUMP JUMPDEST DUP1 ISZERO PUSH2 0x120E JUMPI DUP1 PUSH1 0x1F LT PUSH2 0x11E3 JUMPI PUSH2 0x100 DUP1 DUP4 SLOAD DIV MUL DUP4 MSTORE SWAP2 PUSH1 0x20 ADD SWAP2 PUSH2 0x120E JUMP JUMPDEST DUP3 ADD SWAP2 SWAP1 PUSH1 0x0 MSTORE PUSH1 0x20 PUSH1 0x0 KECCAK256 SWAP1 JUMPDEST DUP2 SLOAD DUP2 MSTORE SWAP1 PUSH1 0x1 ADD SWAP1 PUSH1 0x20 ADD DUP1 DUP4 GT PUSH2 0x11F1 JUMPI DUP3 SWAP1 SUB PUSH1 0x1F AND DUP3 ADD SWAP2 JUMPDEST POP POP POP POP POP SWAP1 DUP1 PUSH1 0x2 ADD DUP1 SLOAD PUSH2 0x1223 SWAP1 PUSH2 0x3E72 JUMP JUMPDEST DUP1 PUSH1 0x1F ADD PUSH1 0x20 DUP1 SWAP2 DIV MUL PUSH1 0x20 ADD PUSH1 0x40 MLOAD SWAP1 DUP2 ADD PUSH1 0x40 MSTORE DUP1 SWAP3 SWAP2 SWAP1 DUP2 DUP2 MSTORE PUSH1 0x20 ADD DUP3 DUP1 SLOAD PUSH2 0x124F SWAP1 PUSH2 0x3E72 JUMP JUMPDEST DUP1 ISZERO PUSH2 0x129C JUMPI DUP1 PUSH1 0x1F LT PUSH2 0x1271 JUMPI PUSH2 0x100 DUP1 DUP4 SLOAD DIV MUL DUP4 MSTORE SWAP2 PUSH1 0x20 ADD SWAP2 PUSH2 0x129C JUMP JUMPDEST DUP3 ADD SWAP2 SWAP1 PUSH1 0x0 MSTORE PUSH1 0x20 PUSH1 0x0 KECCAK256 SWAP1 JUMPDEST DUP2 SLOAD DUP2 MSTORE SWAP1 PUSH1 0x1 ADD SWAP1 PUSH1 0x20 ADD DUP1 DUP4 GT PUSH2 0x127F JUMPI DUP3 SWAP1 SUB PUSH1 0x1F AND DUP3 ADD SWAP2 JUMPDEST POP POP POP POP POP SWAP1 POP DUP4 JUMP JUMPDEST PUSH1 0x60 PUSH1 0x0 PUSH1 0x2 SLOAD PUSH8 0xFFFFFFFFFFFFFFFF DUP2 GT ISZERO PUSH2 0x12C6 JUMPI PUSH2 0x12C5 PUSH2 0x337B JUMP JUMPDEST JUMPDEST PUSH1 0x40 MLOAD SWAP1 DUP1 DUP3 MSTORE DUP1 PUSH1 0x20 MUL PUSH1 0x20 ADD DUP3 ADD PUSH1 0x40 MSTORE DUP1 ISZERO PUSH2 0x12F9 JUMPI DUP2 PUSH1 0x20 ADD JUMPDEST PUSH1 0x60 DUP2 MSTORE PUSH1 0x20 ADD SWAP1 PUSH1 0x1 SWAP1 SUB SWAP1 DUP2 PUSH2 0x12E4 JUMPI SWAP1 POP JUMPDEST POP SWAP1 POP PUSH1 0x0 JUMPDEST PUSH1 0x2 SLOAD DUP2 LT ISZERO PUSH2 0x13D9 JUMPI PUSH1 0xD PUSH1 0x0 DUP3 DUP2 MSTORE PUSH1 0x20 ADD SWAP1 DUP2 MSTORE PUSH1 0x20 ADD PUSH1 0x0 KECCAK256 PUSH1 0x1 ADD DUP1 SLOAD PUSH2 0x132A SWAP1 PUSH2 0x3E72 JUMP JUMPDEST DUP1 PUSH1 0x1F ADD PUSH1 0x20 DUP1 SWAP2 DIV MUL PUSH1 0x20 ADD PUSH1 0x40 MLOAD SWAP1 DUP2 ADD PUSH1 0x40 MSTORE DUP1 SWAP3 SWAP2 SWAP1 DUP2 DUP2 MSTORE PUSH1 0x20 ADD DUP3 DUP1 SLOAD PUSH2 0x1356 SWAP1 PUSH2 0x3E72 JUMP JUMPDEST DUP1 ISZERO PUSH2 0x13A3 JUMPI DUP1 PUSH1 0x1F LT PUSH2 0x1378 JUMPI PUSH2 0x100 DUP1 DUP4 SLOAD DIV MUL DUP4 MSTORE SWAP2 PUSH1 0x20 ADD SWAP2 PUSH2 0x13A3 JUMP JUMPDEST DUP3 ADD SWAP2 SWAP1 PUSH1 0x0 MSTORE PUSH1 0x20 PUSH1 0x0 KECCAK256 SWAP1 JUMPDEST DUP2 SLOAD DUP2 MSTORE SWAP1 PUSH1 0x1 ADD SWAP1 PUSH1 0x20 ADD DUP1 DUP4 GT PUSH2 0x1386 JUMPI DUP3 SWAP1 SUB PUSH1 0x1F AND DUP3 ADD SWAP2 JUMPDEST POP POP POP POP POP DUP3 DUP3 DUP2 MLOAD DUP2 LT PUSH2 0x13BB JUMPI PUSH2 0x13BA PUSH2 0x3EA3 JUMP JUMPDEST JUMPDEST PUSH1 0x20 MUL PUSH1 0x20 ADD ADD DUP2 SWAP1 MSTORE POP DUP1 DUP1 PUSH2 0x13D1 SWAP1 PUSH2 0x3F01 JUMP JUMPDEST SWAP2 POP POP PUSH2 0x12FF JUMP JUMPDEST POP DUP1 SWAP2 POP POP SWAP1 JUMP JUMPDEST PUSH1 0xC PUSH1 0x20 MSTORE DUP1 PUSH1 0x0 MSTORE PUSH1 0x40 PUSH1 0x0 KECCAK256 PUSH1 0x0 SWAP2 POP SWAP1 POP DUP1 PUSH1 0x0 ADD SLOAD SWAP1 DUP1 PUSH1 0x1 ADD DUP1 SLOAD PUSH2 0x140A SWAP1 PUSH2 0x3E72 JUMP JUMPDEST DUP1 PUSH1 0x1F ADD PUSH1 0x20 DUP1 SWAP2 DIV MUL PUSH1 0x20 ADD PUSH1 0x40 MLOAD SWAP1 DUP2 ADD PUSH1 0x40 MSTORE DUP1 SWAP3 SWAP2 SWAP1 DUP2 DUP2 MSTORE PUSH1 0x20 ADD DUP3 DUP1 SLOAD PUSH2 0x1436 SWAP1 PUSH2 0x3E72 JUMP JUMPDEST DUP1 ISZERO PUSH2 0x1483 JUMPI DUP1 PUSH1 0x1F LT PUSH2 0x1458 JUMPI PUSH2 0x100 DUP1 DUP4 SLOAD DIV MUL DUP4 MSTORE SWAP2 PUSH1 0x20 ADD SWAP2 PUSH2 0x1483 JUMP JUMPDEST DUP3 ADD SWAP2 SWAP1 PUSH1 0x0 MSTORE PUSH1 0x20 PUSH1 0x0 KECCAK256 SWAP1 JUMPDEST DUP2 SLOAD DUP2 MSTORE SWAP1 PUSH1 0x1 ADD SWAP1 PUSH1 0x20 ADD DUP1 DUP4 GT PUSH2 0x1466 JUMPI DUP3 SWAP1 SUB PUSH1 0x1F AND DUP3 ADD SWAP2 JUMPDEST POP POP POP POP POP SWAP1 POP DUP3 JUMP JUMPDEST PUSH1 0x0 PUSH1 0x1 PUSH1 0x16 DUP4 PUSH1 0x40 MLOAD PUSH2 0x14A1 SWAP2 SWAP1 PUSH2 0x4203 JUMP JUMPDEST SWAP1 DUP2 MSTORE PUSH1 0x20 ADD PUSH1 0x40 MLOAD DUP1 SWAP2 SUB SWAP1 KECCAK256 PUSH1 0x1 ADD PUSH1 0x6 PUSH2 0x100 EXP DUP2 SLOAD DUP2 PUSH1 0xFF MUL NOT AND SWAP1 DUP4 ISZERO ISZERO MUL OR SWAP1 SSTORE POP PUSH1 0x40 MLOAD DUP1 PUSH1 0x80 ADD PUSH1 0x40 MSTORE DUP1 PUSH1 0x7 SLOAD DUP2 MSTORE PUSH1 0x20 ADD DUP6 DUP2 MSTORE PUSH1 0x20 ADD DUP5 DUP2 MSTORE PUSH1 0x20 ADD DUP4 DUP2 MSTORE POP PUSH1 0x13 PUSH1 0x0 PUSH1 0x7 SLOAD DUP2 MSTORE PUSH1 0x20 ADD SWAP1 DUP2 MSTORE PUSH1 0x20 ADD PUSH1 0x0 KECCAK256 PUSH1 0x0 DUP3 ADD MLOAD DUP2 PUSH1 0x0 ADD SSTORE PUSH1 0x20 DUP3 ADD MLOAD DUP2 PUSH1 0x1 ADD SSTORE PUSH1 0x40 DUP3 ADD MLOAD DUP2 PUSH1 0x2 ADD SWAP1 DUP2 PUSH2 0x152A SWAP2 SWAP1 PUSH2 0x40F5 JUMP JUMPDEST POP PUSH1 0x60 DUP3 ADD MLOAD DUP2 PUSH1 0x3 ADD SWAP1 DUP2 PUSH2 0x1540 SWAP2 SWAP1 PUSH2 0x40F5 JUMP JUMPDEST POP SWAP1 POP POP PUSH1 0x7 PUSH1 0x0 DUP2 SLOAD DUP1 SWAP3 SWAP2 SWAP1 PUSH2 0x1557 SWAP1 PUSH2 0x3F01 JUMP JUMPDEST SWAP2 SWAP1 POP SSTORE POP PUSH1 0x7 SLOAD SWAP1 POP SWAP4 SWAP3 POP POP POP JUMP JUMPDEST PUSH1 0x15 PUSH1 0x20 MSTORE DUP1 PUSH1 0x0 MSTORE PUSH1 0x40 PUSH1 0x0 KECCAK256 PUSH1 0x0 SWAP2 POP SWAP1 POP DUP1 PUSH1 0x0 ADD SLOAD SWAP1 DUP1 PUSH1 0x1 ADD SLOAD SWAP1 DUP1 PUSH1 0x2 ADD SLOAD SWAP1 DUP1 PUSH1 0x3 ADD DUP1 SLOAD PUSH2 0x159D SWAP1 PUSH2 0x3E72 JUMP JUMPDEST DUP1 PUSH1 0x1F ADD PUSH1 0x20 DUP1 SWAP2 DIV MUL PUSH1 0x20 ADD PUSH1 0x40 MLOAD SWAP1 DUP2 ADD PUSH1 0x40 MSTORE DUP1 SWAP3 SWAP2 SWAP1 DUP2 DUP2 MSTORE PUSH1 0x20 ADD DUP3 DUP1 SLOAD PUSH2 0x15C9 SWAP1 PUSH2 0x3E72 JUMP JUMPDEST DUP1 ISZERO PUSH2 0x1616 JUMPI DUP1 PUSH1 0x1F LT PUSH2 0x15EB JUMPI PUSH2 0x100 DUP1 DUP4 SLOAD DIV MUL DUP4 MSTORE SWAP2 PUSH1 0x20 ADD SWAP2 PUSH2 0x1616 JUMP JUMPDEST DUP3 ADD SWAP2 SWAP1 PUSH1 0x0 MSTORE PUSH1 0x20 PUSH1 0x0 KECCAK256 SWAP1 JUMPDEST DUP2 SLOAD DUP2 MSTORE SWAP1 PUSH1 0x1 ADD SWAP1 PUSH1 0x20 ADD DUP1 DUP4 GT PUSH2 0x15F9 JUMPI DUP3 SWAP1 SUB PUSH1 0x1F AND DUP3 ADD SWAP2 JUMPDEST POP POP POP POP POP SWAP1 POP DUP5 JUMP JUMPDEST PUSH1 0xE PUSH1 0x20 MSTORE DUP1 PUSH1 0x0 MSTORE PUSH1 0x40 PUSH1 0x0 KECCAK256 PUSH1 0x0 SWAP2 POP SWAP1 POP DUP1 PUSH1 0x0 ADD SLOAD SWAP1 DUP1 PUSH1 0x1 ADD DUP1 SLOAD PUSH2 0x1649 SWAP1 PUSH2 0x3E72 JUMP JUMPDEST DUP1 PUSH1 0x1F ADD PUSH1 0x20 DUP1 SWAP2 DIV MUL PUSH1 0x20 ADD PUSH1 0x40 MLOAD SWAP1 DUP2 ADD PUSH1 0x40 MSTORE DUP1 SWAP3 SWAP2 SWAP1 DUP2 DUP2 MSTORE PUSH1 0x20 ADD DUP3 DUP1 SLOAD PUSH2 0x1675 SWAP1 PUSH2 0x3E72 JUMP JUMPDEST DUP1 ISZERO PUSH2 0x16C2 JUMPI DUP1 PUSH1 0x1F LT PUSH2 0x1697 JUMPI PUSH2 0x100 DUP1 DUP4 SLOAD DIV MUL DUP4 MSTORE SWAP2 PUSH1 0x20 ADD SWAP2 PUSH2 0x16C2 JUMP JUMPDEST DUP3 ADD SWAP2 SWAP1 PUSH1 0x0 MSTORE PUSH1 0x20 PUSH1 0x0 KECCAK256 SWAP1 JUMPDEST DUP2 SLOAD DUP2 MSTORE SWAP1 PUSH1 0x1 ADD SWAP1 PUSH1 0x20 ADD DUP1 DUP4 GT PUSH2 0x16A5 JUMPI DUP3 SWAP1 SUB PUSH1 0x1F AND DUP3 ADD SWAP2 JUMPDEST POP POP POP POP POP SWAP1 DUP1 PUSH1 0x2 ADD SLOAD SWAP1 POP DUP4 JUMP JUMPDEST PUSH1 0x0 PUSH1 0x1 PUSH1 0x16 DUP4 PUSH1 0x40 MLOAD PUSH2 0x16E6 SWAP2 SWAP1 PUSH2 0x4203 JUMP JUMPDEST SWAP1 DUP2 MSTORE PUSH1 0x20 ADD PUSH1 0x40 MLOAD DUP1 SWAP2 SUB SWAP1 KECCAK256 PUSH1 0x1 ADD PUSH1 0x7 PUSH2 0x100 EXP DUP2 SLOAD DUP2 PUSH1 0xFF MUL NOT AND SWAP1 DUP4 ISZERO ISZERO MUL OR SWAP1 SSTORE POP PUSH1 0x40 MLOAD DUP1 PUSH1 0x80 ADD PUSH1 0x40 MSTORE DUP1 PUSH1 0x9 SLOAD DUP2 MSTORE PUSH1 0x20 ADD DUP7 DUP2 MSTORE PUSH1 0x20 ADD DUP5 DUP2 MSTORE PUSH1 0x20 ADD DUP6 DUP2 MSTORE POP PUSH1 0x15 PUSH1 0x0 PUSH1 0x9 SLOAD DUP2 MSTORE PUSH1 0x20 ADD SWAP1 DUP2 MSTORE PUSH1 0x20 ADD PUSH1 0x0 KECCAK256 PUSH1 0x0 DUP3 ADD MLOAD DUP2 PUSH1 0x0 ADD SSTORE PUSH1 0x20 DUP3 ADD MLOAD DUP2 PUSH1 0x1 ADD SSTORE PUSH1 0x40 DUP3 ADD MLOAD DUP2 PUSH1 0x2 ADD SSTORE PUSH1 0x60 DUP3 ADD MLOAD DUP2 PUSH1 0x3 ADD SWAP1 DUP2 PUSH2 0x1779 SWAP2 SWAP1 PUSH2 0x40F5 JUMP JUMPDEST POP SWAP1 POP POP PUSH1 0x9 PUSH1 0x0 DUP2 SLOAD DUP1 SWAP3 SWAP2 SWAP1 PUSH2 0x1790 SWAP1 PUSH2 0x3F01 JUMP JUMPDEST SWAP2 SWAP1 POP SSTORE POP PUSH1 0x9 SLOAD SWAP1 POP SWAP5 SWAP4 POP POP POP POP JUMP JUMPDEST PUSH1 0x6 SLOAD DUP2 JUMP JUMPDEST PUSH1 0x60 PUSH1 0x0 PUSH1 0x6 SLOAD PUSH8 0xFFFFFFFFFFFFFFFF DUP2 GT ISZERO PUSH2 0x17C8 JUMPI PUSH2 0x17C7 PUSH2 0x337B JUMP JUMPDEST JUMPDEST PUSH1 0x40 MLOAD SWAP1 DUP1 DUP3 MSTORE DUP1 PUSH1 0x20 MUL PUSH1 0x20 ADD DUP3 ADD PUSH1 0x40 MSTORE DUP1 ISZERO PUSH2 0x17FB JUMPI DUP2 PUSH1 0x20 ADD JUMPDEST PUSH1 0x60 DUP2 MSTORE PUSH1 0x20 ADD SWAP1 PUSH1 0x1 SWAP1 SUB SWAP1 DUP2 PUSH2 0x17E6 JUMPI SWAP1 POP JUMPDEST POP SWAP1 POP PUSH1 0x0 DUP1 PUSH1 0x0 SWAP1 POP JUMPDEST PUSH1 0x6 SLOAD DUP2 LT ISZERO PUSH2 0x192E JUMPI DUP6 PUSH1 0x12 PUSH1 0x0 DUP4 DUP2 MSTORE PUSH1 0x20 ADD SWAP1 DUP2 MSTORE PUSH1 0x20 ADD PUSH1 0x0 KECCAK256 PUSH1 0x0 ADD SLOAD EQ DUP1 ISZERO PUSH2 0x184A JUMPI POP DUP5 PUSH1 0x12 PUSH1 0x0 DUP4 DUP2 MSTORE PUSH1 0x20 ADD SWAP1 DUP2 MSTORE PUSH1 0x20 ADD PUSH1 0x0 KECCAK256 PUSH1 0x1 ADD SLOAD EQ JUMPDEST ISZERO PUSH2 0x190D JUMPI PUSH1 0x12 PUSH1 0x0 DUP3 DUP2 MSTORE PUSH1 0x20 ADD SWAP1 DUP2 MSTORE PUSH1 0x20 ADD PUSH1 0x0 KECCAK256 PUSH1 0x2 ADD DUP1 SLOAD PUSH2 0x1870 SWAP1 PUSH2 0x3E72 JUMP JUMPDEST DUP1 PUSH1 0x1F ADD PUSH1 0x20 DUP1 SWAP2 DIV MUL PUSH1 0x20 ADD PUSH1 0x40 MLOAD SWAP1 DUP2 ADD PUSH1 0x40 MSTORE DUP1 SWAP3 SWAP2 SWAP1 DUP2 DUP2 MSTORE PUSH1 0x20 ADD DUP3 DUP1 SLOAD PUSH2 0x189C SWAP1 PUSH2 0x3E72 JUMP JUMPDEST DUP1 ISZERO PUSH2 0x18E9 JUMPI DUP1 PUSH1 0x1F LT PUSH2 0x18BE JUMPI PUSH2 0x100 DUP1 DUP4 SLOAD DIV MUL DUP4 MSTORE SWAP2 PUSH1 0x20 ADD SWAP2 PUSH2 0x18E9 JUMP JUMPDEST DUP3 ADD SWAP2 SWAP1 PUSH1 0x0 MSTORE PUSH1 0x20 PUSH1 0x0 KECCAK256 SWAP1 JUMPDEST DUP2 SLOAD DUP2 MSTORE SWAP1 PUSH1 0x1 ADD SWAP1 PUSH1 0x20 ADD DUP1 DUP4 GT PUSH2 0x18CC JUMPI DUP3 SWAP1 SUB PUSH1 0x1F AND DUP3 ADD SWAP2 JUMPDEST POP POP POP POP POP DUP4 DUP4 DUP2 MLOAD DUP2 LT PUSH2 0x1901 JUMPI PUSH2 0x1900 PUSH2 0x3EA3 JUMP JUMPDEST JUMPDEST PUSH1 0x20 MUL PUSH1 0x20 ADD ADD DUP2 SWAP1 MSTORE POP JUMPDEST DUP2 DUP1 PUSH2 0x1918 SWAP1 PUSH2 0x3F01 JUMP JUMPDEST SWAP3 POP POP DUP1 DUP1 PUSH2 0x1926 SWAP1 PUSH2 0x3F01 JUMP JUMPDEST SWAP2 POP POP PUSH2 0x1806 JUMP JUMPDEST POP DUP2 SWAP3 POP POP POP SWAP3 SWAP2 POP POP JUMP JUMPDEST PUSH1 0x1 PUSH1 0x16 DUP3 PUSH1 0x40 MLOAD PUSH2 0x194C SWAP2 SWAP1 PUSH2 0x4203 JUMP JUMPDEST SWAP1 DUP2 MSTORE PUSH1 0x20 ADD PUSH1 0x40 MLOAD DUP1 SWAP2 SUB SWAP1 KECCAK256 PUSH1 0x1 ADD PUSH1 0x1 PUSH2 0x100 EXP DUP2 SLOAD DUP2 PUSH1 0xFF MUL NOT AND SWAP1 DUP4 ISZERO ISZERO MUL OR SWAP1 SSTORE POP PUSH1 0x40 MLOAD DUP1 PUSH1 0x40 ADD PUSH1 0x40 MSTORE DUP1 DUP4 DUP2 MSTORE PUSH1 0x20 ADD DUP3 DUP2 MSTORE POP PUSH1 0xC PUSH1 0x0 PUSH1 0x4 SLOAD DUP2 MSTORE PUSH1 0x20 ADD SWAP1 DUP2 MSTORE PUSH1 0x20 ADD PUSH1 0x0 KECCAK256 PUSH1 0x0 DUP3 ADD MLOAD DUP2 PUSH1 0x0 ADD SSTORE PUSH1 0x20 DUP3 ADD MLOAD DUP2 PUSH1 0x1 ADD SWAP1 DUP2 PUSH2 0x19BD SWAP2 SWAP1 PUSH2 0x40F5 JUMP JUMPDEST POP SWAP1 POP POP PUSH1 0x4 PUSH1 0x0 DUP2 SLOAD DUP1 SWAP3 SWAP2 SWAP1 PUSH2 0x19D4 SWAP1 PUSH2 0x3F01 JUMP JUMPDEST SWAP2 SWAP1 POP SSTORE POP POP POP JUMP JUMPDEST PUSH1 0x60 PUSH1 0xA PUSH1 0x0 DUP4 DUP2 MSTORE PUSH1 0x20 ADD SWAP1 DUP2 MSTORE PUSH1 0x20 ADD PUSH1 0x0 KECCAK256 PUSH1 0x1 ADD DUP1 SLOAD PUSH2 0x1A00 SWAP1 PUSH2 0x3E72 JUMP JUMPDEST DUP1 PUSH1 0x1F ADD PUSH1 0x20 DUP1 SWAP2 DIV MUL PUSH1 0x20 ADD PUSH1 0x40 MLOAD SWAP1 DUP2 ADD PUSH1 0x40 MSTORE DUP1 SWAP3 SWAP2 SWAP1 DUP2 DUP2 MSTORE PUSH1 0x20 ADD DUP3 DUP1 SLOAD PUSH2 0x1A2C SWAP1 PUSH2 0x3E72 JUMP JUMPDEST DUP1 ISZERO PUSH2 0x1A79 JUMPI DUP1 PUSH1 0x1F LT PUSH2 0x1A4E JUMPI PUSH2 0x100 DUP1 DUP4 SLOAD DIV MUL DUP4 MSTORE SWAP2 PUSH1 0x20 ADD SWAP2 PUSH2 0x1A79 JUMP JUMPDEST DUP3 ADD SWAP2 SWAP1 PUSH1 0x0 MSTORE PUSH1 0x20 PUSH1 0x0 KECCAK256 SWAP1 JUMPDEST DUP2 SLOAD DUP2 MSTORE SWAP1 PUSH1 0x1 ADD SWAP1 PUSH1 0x20 ADD DUP1 DUP4 GT PUSH2 0x1A5C JUMPI DUP3 SWAP1 SUB PUSH1 0x1F AND DUP3 ADD SWAP2 JUMPDEST POP POP POP POP POP SWAP1 POP SWAP2 SWAP1 POP JUMP JUMPDEST PUSH1 0xB PUSH1 0x20 MSTORE DUP1 PUSH1 0x0 MSTORE PUSH1 0x40 PUSH1 0x0 KECCAK256 PUSH1 0x0 SWAP2 POP SWAP1 POP DUP1 SLOAD PUSH2 0x1AA4 SWAP1 PUSH2 0x3E72 JUMP JUMPDEST DUP1 PUSH1 0x1F ADD PUSH1 0x20 DUP1 SWAP2 DIV MUL PUSH1 0x20 ADD PUSH1 0x40 MLOAD SWAP1 DUP2 ADD PUSH1 0x40 MSTORE DUP1 SWAP3 SWAP2 SWAP1 DUP2 DUP2 MSTORE PUSH1 0x20 ADD DUP3 DUP1 SLOAD PUSH2 0x1AD0 SWAP1 PUSH2 0x3E72 JUMP JUMPDEST DUP1 ISZERO PUSH2 0x1B1D JUMPI DUP1 PUSH1 0x1F LT PUSH2 0x1AF2 JUMPI PUSH2 0x100 DUP1 DUP4 SLOAD DIV MUL DUP4 MSTORE SWAP2 PUSH1 0x20 ADD SWAP2 PUSH2 0x1B1D JUMP JUMPDEST DUP3 ADD SWAP2 SWAP1 PUSH1 0x0 MSTORE PUSH1 0x20 PUSH1 0x0 KECCAK256 SWAP1 JUMPDEST DUP2 SLOAD DUP2 MSTORE SWAP1 PUSH1 0x1 ADD SWAP1 PUSH1 0x20 ADD DUP1 DUP4 GT PUSH2 0x1B00 JUMPI DUP3 SWAP1 SUB PUSH1 0x1F AND DUP3 ADD SWAP2 JUMPDEST POP POP POP POP POP DUP2 JUMP JUMPDEST PUSH1 0xF DUP2 DUP1 MLOAD PUSH1 0x20 DUP2 ADD DUP3 ADD DUP1 MLOAD DUP5 DUP3 MSTORE PUSH1 0x20 DUP4 ADD PUSH1 0x20 DUP6 ADD KECCAK256 DUP2 DUP4 MSTORE DUP1 SWAP6 POP POP POP POP POP POP PUSH1 0x0 SWAP2 POP SWAP1 POP SLOAD DUP2 JUMP JUMPDEST PUSH1 0x0 PUSH1 0x40 MLOAD DUP1 PUSH1 0x40 ADD PUSH1 0x40 MSTORE DUP1 DUP5 DUP2 MSTORE PUSH1 0x20 ADD DUP6 DUP2 MSTORE POP PUSH1 0xD PUSH1 0x0 PUSH1 0x2 SLOAD DUP2 MSTORE PUSH1 0x20 ADD SWAP1 DUP2 MSTORE PUSH1 0x20 ADD PUSH1 0x0 KECCAK256 PUSH1 0x0 DUP3 ADD MLOAD DUP2 PUSH1 0x0 ADD SSTORE PUSH1 0x20 DUP3 ADD MLOAD DUP2 PUSH1 0x1 ADD SWAP1 DUP2 PUSH2 0x1B9E SWAP2 SWAP1 PUSH2 0x40F5 JUMP JUMPDEST POP SWAP1 POP POP PUSH1 0x1 PUSH1 0x16 DUP4 PUSH1 0x40 MLOAD PUSH2 0x1BB4 SWAP2 SWAP1 PUSH2 0x4203 JUMP JUMPDEST SWAP1 DUP2 MSTORE PUSH1 0x20 ADD PUSH1 0x40 MLOAD DUP1 SWAP2 SUB SWAP1 KECCAK256 PUSH1 0x1 ADD PUSH1 0x2 PUSH2 0x100 EXP DUP2 SLOAD DUP2 PUSH1 0xFF MUL NOT AND SWAP1 DUP4 ISZERO ISZERO MUL OR SWAP1 SSTORE POP PUSH1 0x2 PUSH1 0x0 DUP2 SLOAD DUP1 SWAP3 SWAP2 SWAP1 PUSH2 0x1BEF SWAP1 PUSH2 0x3F01 JUMP JUMPDEST SWAP2 SWAP1 POP SSTORE POP PUSH1 0x2 SLOAD SWAP1 POP SWAP4 SWAP3 POP POP POP JUMP JUMPDEST PUSH1 0x0 SLOAD DUP2 JUMP JUMPDEST PUSH1 0xD PUSH1 0x20 MSTORE DUP1 PUSH1 0x0 MSTORE PUSH1 0x40 PUSH1 0x0 KECCAK256 PUSH1 0x0 SWAP2 POP SWAP1 POP DUP1 PUSH1 0x0 ADD SLOAD SWAP1 DUP1 PUSH1 0x1 ADD DUP1 SLOAD PUSH2 0x1C2F SWAP1 PUSH2 0x3E72 JUMP JUMPDEST DUP1 PUSH1 0x1F ADD PUSH1 0x20 DUP1 SWAP2 DIV MUL PUSH1 0x20 ADD PUSH1 0x40 MLOAD SWAP1 DUP2 ADD PUSH1 0x40 MSTORE DUP1 SWAP3 SWAP2 SWAP1 DUP2 DUP2 MSTORE PUSH1 0x20 ADD DUP3 DUP1 SLOAD PUSH2 0x1C5B SWAP1 PUSH2 0x3E72 JUMP JUMPDEST DUP1 ISZERO PUSH2 0x1CA8 JUMPI DUP1 PUSH1 0x1F LT PUSH2 0x1C7D JUMPI PUSH2 0x100 DUP1 DUP4 SLOAD DIV MUL DUP4 MSTORE SWAP2 PUSH1 0x20 ADD SWAP2 PUSH2 0x1CA8 JUMP JUMPDEST DUP3 ADD SWAP2 SWAP1 PUSH1 0x0 MSTORE PUSH1 0x20 PUSH1 0x0 KECCAK256 SWAP1 JUMPDEST DUP2 SLOAD DUP2 MSTORE SWAP1 PUSH1 0x1 ADD SWAP1 PUSH1 0x20 ADD DUP1 DUP4 GT PUSH2 0x1C8B JUMPI DUP3 SWAP1 SUB PUSH1 0x1F AND DUP3 ADD SWAP2 JUMPDEST POP POP POP POP POP SWAP1 POP DUP3 JUMP JUMPDEST PUSH1 0x10 PUSH1 0x20 MSTORE DUP1 PUSH1 0x0 MSTORE PUSH1 0x40 PUSH1 0x0 KECCAK256 PUSH1 0x0 SWAP2 POP SWAP1 POP DUP1 PUSH1 0x0 ADD SLOAD SWAP1 DUP1 PUSH1 0x1 ADD DUP1 SLOAD PUSH2 0x1CDB SWAP1 PUSH2 0x3E72 JUMP JUMPDEST DUP1 PUSH1 0x1F ADD PUSH1 0x20 DUP1 SWAP2 DIV MUL PUSH1 0x20 ADD PUSH1 0x40 MLOAD SWAP1 DUP2 ADD PUSH1 0x40 MSTORE DUP1 SWAP3 SWAP2 SWAP1 DUP2 DUP2 MSTORE PUSH1 0x20 ADD DUP3 DUP1 SLOAD PUSH2 0x1D07 SWAP1 PUSH2 0x3E72 JUMP JUMPDEST DUP1 ISZERO PUSH2 0x1D54 JUMPI DUP1 PUSH1 0x1F LT PUSH2 0x1D29 JUMPI PUSH2 0x100 DUP1 DUP4 SLOAD DIV MUL DUP4 MSTORE SWAP2 PUSH1 0x20 ADD SWAP2 PUSH2 0x1D54 JUMP JUMPDEST DUP3 ADD SWAP2 SWAP1 PUSH1 0x0 MSTORE PUSH1 0x20 PUSH1 0x0 KECCAK256 SWAP1 JUMPDEST DUP2 SLOAD DUP2 MSTORE SWAP1 PUSH1 0x1 ADD SWAP1 PUSH1 0x20 ADD DUP1 DUP4 GT PUSH2 0x1D37 JUMPI DUP3 SWAP1 SUB PUSH1 0x1F AND DUP3 ADD SWAP2 JUMPDEST POP POP POP POP POP SWAP1 DUP1 PUSH1 0x2 ADD SLOAD SWAP1 POP DUP4 JUMP JUMPDEST PUSH1 0x60 PUSH1 0x0 PUSH1 0x7 SLOAD PUSH8 0xFFFFFFFFFFFFFFFF DUP2 GT ISZERO PUSH2 0x1D84 JUMPI PUSH2 0x1D83 PUSH2 0x337B JUMP JUMPDEST JUMPDEST PUSH1 0x40 MLOAD SWAP1 DUP1 DUP3 MSTORE DUP1 PUSH1 0x20 MUL PUSH1 0x20 ADD DUP3 ADD PUSH1 0x40 MSTORE DUP1 ISZERO PUSH2 0x1DB2 JUMPI DUP2 PUSH1 0x20 ADD PUSH1 0x20 DUP3 MUL DUP1 CALLDATASIZE DUP4 CALLDATACOPY DUP1 DUP3 ADD SWAP2 POP POP SWAP1 POP JUMPDEST POP SWAP1 POP PUSH1 0x0 DUP1 PUSH1 0x0 SWAP1 POP JUMPDEST PUSH1 0x7 SLOAD DUP2 LT ISZERO PUSH2 0x1E3C JUMPI DUP5 PUSH1 0x13 PUSH1 0x0 DUP4 DUP2 MSTORE PUSH1 0x20 ADD SWAP1 DUP2 MSTORE PUSH1 0x20 ADD PUSH1 0x0 KECCAK256 PUSH1 0x1 ADD SLOAD SUB PUSH2 0x1E29 JUMPI PUSH1 0x13 PUSH1 0x0 DUP3 DUP2 MSTORE PUSH1 0x20 ADD SWAP1 DUP2 MSTORE PUSH1 0x20 ADD PUSH1 0x0 KECCAK256 PUSH1 0x0 ADD SLOAD DUP4 DUP4 DUP2 MLOAD DUP2 LT PUSH2 0x1E0E JUMPI PUSH2 0x1E0D PUSH2 0x3EA3 JUMP JUMPDEST JUMPDEST PUSH1 0x20 MUL PUSH1 0x20 ADD ADD DUP2 DUP2 MSTORE POP POP DUP2 DUP1 PUSH2 0x1E25 SWAP1 PUSH2 0x3F01 JUMP JUMPDEST SWAP3 POP POP JUMPDEST DUP1 DUP1 PUSH2 0x1E34 SWAP1 PUSH2 0x3F01 JUMP JUMPDEST SWAP2 POP POP PUSH2 0x1DBD JUMP JUMPDEST POP DUP2 SWAP3 POP POP POP SWAP2 SWAP1 POP JUMP JUMPDEST PUSH1 0x60 PUSH1 0x0 PUSH1 0x9 SLOAD PUSH8 0xFFFFFFFFFFFFFFFF DUP2 GT ISZERO PUSH2 0x1E67 JUMPI PUSH2 0x1E66 PUSH2 0x337B JUMP JUMPDEST JUMPDEST PUSH1 0x40 MLOAD SWAP1 DUP1 DUP3 MSTORE DUP1 PUSH1 0x20 MUL PUSH1 0x20 ADD DUP3 ADD PUSH1 0x40 MSTORE DUP1 ISZERO PUSH2 0x1E95 JUMPI DUP2 PUSH1 0x20 ADD PUSH1 0x20 DUP3 MUL DUP1 CALLDATASIZE DUP4 CALLDATACOPY DUP1 DUP3 ADD SWAP2 POP POP SWAP1 POP JUMPDEST POP SWAP1 POP PUSH1 0x0 DUP1 PUSH1 0x0 SWAP1 POP JUMPDEST PUSH1 0x9 SLOAD DUP2 LT ISZERO PUSH2 0x1F1F JUMPI DUP5 PUSH1 0x15 PUSH1 0x0 DUP4 DUP2 MSTORE PUSH1 0x20 ADD SWAP1 DUP2 MSTORE PUSH1 0x20 ADD PUSH1 0x0 KECCAK256 PUSH1 0x1 ADD SLOAD SUB PUSH2 0x1F0C JUMPI PUSH1 0x15 PUSH1 0x0 DUP3 DUP2 MSTORE PUSH1 0x20 ADD SWAP1 DUP2 MSTORE PUSH1 0x20 ADD PUSH1 0x0 KECCAK256 PUSH1 0x0 ADD SLOAD DUP4 DUP4 DUP2 MLOAD DUP2 LT PUSH2 0x1EF1 JUMPI PUSH2 0x1EF0 PUSH2 0x3EA3 JUMP JUMPDEST JUMPDEST PUSH1 0x20 MUL PUSH1 0x20 ADD ADD DUP2 DUP2 MSTORE POP POP DUP2 DUP1 PUSH2 0x1F08 SWAP1 PUSH2 0x3F01 JUMP JUMPDEST SWAP3 POP POP JUMPDEST DUP1 DUP1 PUSH2 0x1F17 SWAP1 PUSH2 0x3F01 JUMP JUMPDEST SWAP2 POP POP PUSH2 0x1EA0 JUMP JUMPDEST POP DUP2 SWAP3 POP POP POP SWAP2 SWAP1 POP JUMP JUMPDEST PUSH1 0x0 PUSH1 0x1 PUSH1 0x16 DUP4 PUSH1 0x40 MLOAD PUSH2 0x1F3E SWAP2 SWAP1 PUSH2 0x4203 JUMP JUMPDEST SWAP1 DUP2 MSTORE PUSH1 0x20 ADD PUSH1 0x40 MLOAD DUP1 SWAP2 SUB SWAP1 KECCAK256 PUSH1 0x1 ADD PUSH1 0x4 PUSH2 0x100 EXP DUP2 SLOAD DUP2 PUSH1 0xFF MUL NOT AND SWAP1 DUP4 ISZERO ISZERO MUL OR SWAP1 SSTORE POP PUSH1 0x40 MLOAD DUP1 PUSH1 0x60 ADD PUSH1 0x40 MSTORE DUP1 DUP6 DUP2 MSTORE PUSH1 0x20 ADD DUP5 DUP2 MSTORE PUSH1 0x20 ADD DUP4 DUP2 MSTORE POP PUSH1 0x12 PUSH1 0x0 PUSH1 0x6 SLOAD DUP2 MSTORE PUSH1 0x20 ADD SWAP1 DUP2 MSTORE PUSH1 0x20 ADD PUSH1 0x0 KECCAK256 PUSH1 0x0 DUP3 ADD MLOAD DUP2 PUSH1 0x0 ADD SSTORE PUSH1 0x20 DUP3 ADD MLOAD DUP2 PUSH1 0x1 ADD SSTORE PUSH1 0x40 DUP3 ADD MLOAD DUP2 PUSH1 0x2 ADD SWAP1 DUP2 PUSH2 0x1FBF SWAP2 SWAP1 PUSH2 0x40F5 JUMP JUMPDEST POP SWAP1 POP POP PUSH1 0x6 PUSH1 0x0 DUP2 SLOAD DUP1 SWAP3 SWAP2 SWAP1 PUSH2 0x1FD6 SWAP1 PUSH2 0x3F01 JUMP JUMPDEST SWAP2 SWAP1 POP SSTORE POP PUSH1 0x6 SLOAD SWAP1 POP SWAP4 SWAP3 POP POP POP JUMP JUMPDEST DUP1 PUSH1 0xB PUSH1 0x0 DUP5 DUP2 MSTORE PUSH1 0x20 ADD SWAP1 DUP2 MSTORE PUSH1 0x20 ADD PUSH1 0x0 KECCAK256 SWAP1 DUP2 PUSH2 0x2007 SWAP2 SWAP1 PUSH2 0x40F5 JUMP JUMPDEST POP POP POP JUMP JUMPDEST DUP2 PUSH1 0xA PUSH1 0x0 DUP6 DUP2 MSTORE PUSH1 0x20 ADD SWAP1 DUP2 MSTORE PUSH1 0x20 ADD PUSH1 0x0 KECCAK256 PUSH1 0x0 ADD SWAP1 DUP2 PUSH2 0x202F SWAP2 SWAP1 PUSH2 0x40F5 JUMP JUMPDEST POP DUP1 PUSH1 0xA PUSH1 0x0 DUP6 DUP2 MSTORE PUSH1 0x20 ADD SWAP1 DUP2 MSTORE PUSH1 0x20 ADD PUSH1 0x0 KECCAK256 PUSH1 0x1 ADD SWAP1 DUP2 PUSH2 0x2053 SWAP2 SWAP1 PUSH2 0x40F5 JUMP JUMPDEST POP POP POP POP JUMP JUMPDEST PUSH1 0x0 PUSH1 0x40 MLOAD DUP1 PUSH1 0x80 ADD PUSH1 0x40 MSTORE DUP1 DUP7 DUP2 MSTORE PUSH1 0x20 ADD DUP6 DUP2 MSTORE PUSH1 0x20 ADD DUP5 DUP2 MSTORE PUSH1 0x20 ADD DUP4 DUP2 MSTORE POP PUSH1 0x14 PUSH1 0x0 PUSH1 0x8 SLOAD DUP2 MSTORE PUSH1 0x20 ADD SWAP1 DUP2 MSTORE PUSH1 0x20 ADD PUSH1 0x0 KECCAK256 PUSH1 0x0 DUP3 ADD MLOAD DUP2 PUSH1 0x0 ADD SSTORE PUSH1 0x20 DUP3 ADD MLOAD DUP2 PUSH1 0x1 ADD SSTORE PUSH1 0x40 DUP3 ADD MLOAD DUP2 PUSH1 0x2 ADD SWAP1 DUP2 PUSH2 0x20BA SWAP2 SWAP1 PUSH2 0x40F5 JUMP JUMPDEST POP PUSH1 0x60 DUP3 ADD MLOAD DUP2 PUSH1 0x3 ADD SWAP1 DUP2 PUSH2 0x20D0 SWAP2 SWAP1 PUSH2 0x40F5 JUMP JUMPDEST POP SWAP1 POP POP PUSH1 0x8 PUSH1 0x0 DUP2 SLOAD DUP1 SWAP3 SWAP2 SWAP1 PUSH2 0x20E7 SWAP1 PUSH2 0x3F01 JUMP JUMPDEST SWAP2 SWAP1 POP SSTORE POP PUSH1 0x8 SLOAD SWAP1 POP SWAP5 SWAP4 POP POP POP POP JUMP JUMPDEST PUSH1 0x60 PUSH1 0xE PUSH1 0x0 DUP4 DUP2 MSTORE PUSH1 0x20 ADD SWAP1 DUP2 MSTORE PUSH1 0x20 ADD PUSH1 0x0 KECCAK256 PUSH1 0x1 ADD DUP1 SLOAD PUSH2 0x211C SWAP1 PUSH2 0x3E72 JUMP JUMPDEST DUP1 PUSH1 0x1F ADD PUSH1 0x20 DUP1 SWAP2 DIV MUL PUSH1 0x20 ADD PUSH1 0x40 MLOAD SWAP1 DUP2 ADD PUSH1 0x40 MSTORE DUP1 SWAP3 SWAP2 SWAP1 DUP2 DUP2 MSTORE PUSH1 0x20 ADD DUP3 DUP1 SLOAD PUSH2 0x2148 SWAP1 PUSH2 0x3E72 JUMP JUMPDEST DUP1 ISZERO PUSH2 0x2195 JUMPI DUP1 PUSH1 0x1F LT PUSH2 0x216A JUMPI PUSH2 0x100 DUP1 DUP4 SLOAD DIV MUL DUP4 MSTORE SWAP2 PUSH1 0x20 ADD SWAP2 PUSH2 0x2195 JUMP JUMPDEST DUP3 ADD SWAP2 SWAP1 PUSH1 0x0 MSTORE PUSH1 0x20 PUSH1 0x0 KECCAK256 SWAP1 JUMPDEST DUP2 SLOAD DUP2 MSTORE SWAP1 PUSH1 0x1 ADD SWAP1 PUSH1 0x20 ADD DUP1 DUP4 GT PUSH2 0x2178 JUMPI DUP3 SWAP1 SUB PUSH1 0x1F AND DUP3 ADD SWAP2 JUMPDEST POP POP POP POP POP SWAP1 POP SWAP2 SWAP1 POP JUMP JUMPDEST PUSH1 0x7 SLOAD DUP2 JUMP JUMPDEST PUSH1 0x60 PUSH1 0x0 PUSH1 0x3 SLOAD PUSH8 0xFFFFFFFFFFFFFFFF DUP2 GT ISZERO PUSH2 0x21C7 JUMPI PUSH2 0x21C6 PUSH2 0x337B JUMP JUMPDEST JUMPDEST PUSH1 0x40 MLOAD SWAP1 DUP1 DUP3 MSTORE DUP1 PUSH1 0x20 MUL PUSH1 0x20 ADD DUP3 ADD PUSH1 0x40 MSTORE DUP1 ISZERO PUSH2 0x21FA JUMPI DUP2 PUSH1 0x20 ADD JUMPDEST PUSH1 0x60 DUP2 MSTORE PUSH1 0x20 ADD SWAP1 PUSH1 0x1 SWAP1 SUB SWAP1 DUP2 PUSH2 0x21E5 JUMPI SWAP1 POP JUMPDEST POP SWAP1 POP PUSH1 0x0 JUMPDEST PUSH1 0x3 SLOAD DUP2 LT ISZERO PUSH2 0x22DA JUMPI PUSH1 0xE PUSH1 0x0 DUP3 DUP2 MSTORE PUSH1 0x20 ADD SWAP1 DUP2 MSTORE PUSH1 0x20 ADD PUSH1 0x0 KECCAK256 PUSH1 0x1 ADD DUP1 SLOAD PUSH2 0x222B SWAP1 PUSH2 0x3E72 JUMP JUMPDEST DUP1 PUSH1 0x1F ADD PUSH1 0x20 DUP1 SWAP2 DIV MUL PUSH1 0x20 ADD PUSH1 0x40 MLOAD SWAP1 DUP2 ADD PUSH1 0x40 MSTORE DUP1 SWAP3 SWAP2 SWAP1 DUP2 DUP2 MSTORE PUSH1 0x20 ADD DUP3 DUP1 SLOAD PUSH2 0x2257 SWAP1 PUSH2 0x3E72 JUMP JUMPDEST DUP1 ISZERO PUSH2 0x22A4 JUMPI DUP1 PUSH1 0x1F LT PUSH2 0x2279 JUMPI PUSH2 0x100 DUP1 DUP4 SLOAD DIV MUL DUP4 MSTORE SWAP2 PUSH1 0x20 ADD SWAP2 PUSH2 0x22A4 JUMP JUMPDEST DUP3 ADD SWAP2 SWAP1 PUSH1 0x0 MSTORE PUSH1 0x20 PUSH1 0x0 KECCAK256 SWAP1 JUMPDEST DUP2 SLOAD DUP2 MSTORE SWAP1 PUSH1 0x1 ADD SWAP1 PUSH1 0x20 ADD DUP1 DUP4 GT PUSH2 0x2287 JUMPI DUP3 SWAP1 SUB PUSH1 0x1F AND DUP3 ADD SWAP2 JUMPDEST POP POP POP POP POP DUP3 DUP3 DUP2 MLOAD DUP2 LT PUSH2 0x22BC JUMPI PUSH2 0x22BB PUSH2 0x3EA3 JUMP JUMPDEST JUMPDEST PUSH1 0x20 MUL PUSH1 0x20 ADD ADD DUP2 SWAP1 MSTORE POP DUP1 DUP1 PUSH2 0x22D2 SWAP1 PUSH2 0x3F01 JUMP JUMPDEST SWAP2 POP POP PUSH2 0x2200 JUMP JUMPDEST POP DUP1 SWAP2 POP POP SWAP1 JUMP JUMPDEST PUSH1 0x16 DUP2 DUP1 MLOAD PUSH1 0x20 DUP2 ADD DUP3 ADD DUP1 MLOAD DUP5 DUP3 MSTORE PUSH1 0x20 DUP4 ADD PUSH1 0x20 DUP6 ADD KECCAK256 DUP2 DUP4 MSTORE DUP1 SWAP6 POP POP POP POP POP POP PUSH1 0x0 SWAP2 POP SWAP1 POP DUP1 PUSH1 0x0 ADD DUP1 SLOAD PUSH2 0x231B SWAP1 PUSH2 0x3E72 JUMP JUMPDEST DUP1 PUSH1 0x1F ADD PUSH1 0x20 DUP1 SWAP2 DIV MUL PUSH1 0x20 ADD PUSH1 0x40 MLOAD SWAP1 DUP2 ADD PUSH1 0x40 MSTORE DUP1 SWAP3 SWAP2 SWAP1 DUP2 DUP2 MSTORE PUSH1 0x20 ADD DUP3 DUP1 SLOAD PUSH2 0x2347 SWAP1 PUSH2 0x3E72 JUMP JUMPDEST DUP1 ISZERO PUSH2 0x2394 JUMPI DUP1 PUSH1 0x1F LT PUSH2 0x2369 JUMPI PUSH2 0x100 DUP1 DUP4 SLOAD DIV MUL DUP4 MSTORE SWAP2 PUSH1 0x20 ADD SWAP2 PUSH2 0x2394 JUMP JUMPDEST DUP3 ADD SWAP2 SWAP1 PUSH1 0x0 MSTORE PUSH1 0x20 PUSH1 0x0 KECCAK256 SWAP1 JUMPDEST DUP2 SLOAD DUP2 MSTORE SWAP1 PUSH1 0x1 ADD SWAP1 PUSH1 0x20 ADD DUP1 DUP4 GT PUSH2 0x2377 JUMPI DUP3 SWAP1 SUB PUSH1 0x1F AND DUP3 ADD SWAP2 JUMPDEST POP POP POP POP POP SWAP1 DUP1 PUSH1 0x1 ADD PUSH1 0x0 SWAP1 SLOAD SWAP1 PUSH2 0x100 EXP SWAP1 DIV PUSH1 0xFF AND SWAP1 DUP1 PUSH1 0x1 ADD PUSH1 0x1 SWAP1 SLOAD SWAP1 PUSH2 0x100 EXP SWAP1 DIV PUSH1 0xFF AND SWAP1 DUP1 PUSH1 0x1 ADD PUSH1 0x2 SWAP1 SLOAD SWAP1 PUSH2 0x100 EXP SWAP1 DIV PUSH1 0xFF AND SWAP1 DUP1 PUSH1 0x1 ADD PUSH1 0x3 SWAP1 SLOAD SWAP1 PUSH2 0x100 EXP SWAP1 DIV PUSH1 0xFF AND SWAP1 DUP1 PUSH1 0x1 ADD PUSH1 0x4 SWAP1 SLOAD SWAP1 PUSH2 0x100 EXP SWAP1 DIV PUSH1 0xFF AND SWAP1 DUP1 PUSH1 0x1 ADD PUSH1 0x5 SWAP1 SLOAD SWAP1 PUSH2 0x100 EXP SWAP1 DIV PUSH1 0xFF AND SWAP1 DUP1 PUSH1 0x1 ADD PUSH1 0x6 SWAP1 SLOAD SWAP1 PUSH2 0x100 EXP SWAP1 DIV PUSH1 0xFF AND SWAP1 DUP1 PUSH1 0x1 ADD PUSH1 0x7 SWAP1 SLOAD SWAP1 PUSH2 0x100 EXP SWAP1 DIV PUSH1 0xFF AND SWAP1 POP DUP10 JUMP JUMPDEST PUSH1 0x0 DUP1 PUSH1 0x0 SWAP1 POP JUMPDEST PUSH1 0x3 SLOAD DUP2 LT ISZERO PUSH2 0x249C JUMPI DUP3 DUP1 MLOAD SWAP1 PUSH1 0x20 ADD KECCAK256 PUSH1 0xE PUSH1 0x0 DUP4 DUP2 MSTORE PUSH1 0x20 ADD SWAP1 DUP2 MSTORE PUSH1 0x20 ADD PUSH1 0x0 KECCAK256 PUSH1 0x1 ADD PUSH1 0x40 MLOAD PUSH2 0x2473 SWAP2 SWAP1 PUSH2 0x42BD JUMP JUMPDEST PUSH1 0x40 MLOAD DUP1 SWAP2 SUB SWAP1 KECCAK256 SUB PUSH2 0x2489 JUMPI DUP1 SWAP2 POP POP PUSH2 0x24A2 JUMP JUMPDEST DUP1 DUP1 PUSH2 0x2494 SWAP1 PUSH2 0x3F01 JUMP JUMPDEST SWAP2 POP POP PUSH2 0x243E JUMP JUMPDEST POP PUSH1 0x0 SWAP1 POP JUMPDEST SWAP2 SWAP1 POP JUMP JUMPDEST PUSH1 0x9 SLOAD DUP2 JUMP JUMPDEST PUSH1 0x0 DUP1 PUSH1 0x0 SWAP1 POP JUMPDEST PUSH1 0x3 SLOAD DUP2 LT ISZERO PUSH2 0x2529 JUMPI DUP3 DUP1 MLOAD SWAP1 PUSH1 0x20 ADD KECCAK256 PUSH1 0xE PUSH1 0x0 DUP4 DUP2 MSTORE PUSH1 0x20 ADD SWAP1 DUP2 MSTORE PUSH1 0x20 ADD PUSH1 0x0 KECCAK256 PUSH1 0x1 ADD PUSH1 0x40 MLOAD PUSH2 0x24EA SWAP2 SWAP1 PUSH2 0x42BD JUMP JUMPDEST PUSH1 0x40 MLOAD DUP1 SWAP2 SUB SWAP1 KECCAK256 SUB PUSH2 0x2516 JUMPI PUSH1 0xE PUSH1 0x0 DUP3 DUP2 MSTORE PUSH1 0x20 ADD SWAP1 DUP2 MSTORE PUSH1 0x20 ADD PUSH1 0x0 KECCAK256 PUSH1 0x0 ADD SLOAD SWAP2 POP POP PUSH2 0x252F JUMP JUMPDEST DUP1 DUP1 PUSH2 0x2521 SWAP1 PUSH2 0x3F01 JUMP JUMPDEST SWAP2 POP POP PUSH2 0x24B5 JUMP JUMPDEST POP PUSH1 0x0 SWAP1 POP JUMPDEST SWAP2 SWAP1 POP JUMP JUMPDEST PUSH1 0x0 JUMPDEST PUSH1 0x0 SLOAD DUP2 LT ISZERO PUSH2 0x259A JUMPI PUSH1 0xA PUSH1 0x0 DUP3 DUP2 MSTORE PUSH1 0x20 ADD SWAP1 DUP2 MSTORE PUSH1 0x20 ADD PUSH1 0x0 KECCAK256 PUSH1 0x0 DUP1 DUP3 ADD PUSH1 0x0 PUSH2 0x2565 SWAP2 SWAP1 PUSH2 0x30FF JUMP JUMPDEST PUSH1 0x1 DUP3 ADD PUSH1 0x0 PUSH2 0x2575 SWAP2 SWAP1 PUSH2 0x30FF JUMP JUMPDEST PUSH1 0x2 DUP3 ADD PUSH1 0x0 PUSH2 0x2585 SWAP2 SWAP1 PUSH2 0x30FF JUMP JUMPDEST POP POP DUP1 DUP1 PUSH2 0x2592 SWAP1 PUSH2 0x3F01 JUMP JUMPDEST SWAP2 POP POP PUSH2 0x2537 JUMP JUMPDEST POP PUSH1 0x0 JUMPDEST PUSH1 0x2 SLOAD DUP2 LT ISZERO PUSH2 0x25E9 JUMPI PUSH1 0xD PUSH1 0x0 DUP3 DUP2 MSTORE PUSH1 0x20 ADD SWAP1 DUP2 MSTORE PUSH1 0x20 ADD PUSH1 0x0 KECCAK256 PUSH1 0x0 DUP1 DUP3 ADD PUSH1 0x0 SWAP1 SSTORE PUSH1 0x1 DUP3 ADD PUSH1 0x0 PUSH2 0x25D4 SWAP2 SWAP1 PUSH2 0x30FF JUMP JUMPDEST POP POP DUP1 DUP1 PUSH2 0x25E1 SWAP1 PUSH2 0x3F01 JUMP JUMPDEST SWAP2 POP POP PUSH2 0x259E JUMP JUMPDEST POP PUSH1 0x0 JUMPDEST PUSH1 0x3 SLOAD DUP2 LT ISZERO PUSH2 0x2640 JUMPI PUSH1 0xE PUSH1 0x0 DUP3 DUP2 MSTORE PUSH1 0x20 ADD SWAP1 DUP2 MSTORE PUSH1 0x20 ADD PUSH1 0x0 KECCAK256 PUSH1 0x0 DUP1 DUP3 ADD PUSH1 0x0 SWAP1 SSTORE PUSH1 0x1 DUP3 ADD PUSH1 0x0 PUSH2 0x2623 SWAP2 SWAP1 PUSH2 0x30FF JUMP JUMPDEST PUSH1 0x2 DUP3 ADD PUSH1 0x0 SWAP1 SSTORE POP POP DUP1 DUP1 PUSH2 0x2638 SWAP1 PUSH2 0x3F01 JUMP JUMPDEST SWAP2 POP POP PUSH2 0x25ED JUMP JUMPDEST POP PUSH1 0x0 JUMPDEST PUSH1 0x2 SLOAD DUP2 LT ISZERO PUSH2 0x2697 JUMPI PUSH1 0x11 PUSH1 0x0 DUP3 DUP2 MSTORE PUSH1 0x20 ADD SWAP1 DUP2 MSTORE PUSH1 0x20 ADD PUSH1 0x0 KECCAK256 PUSH1 0x0 DUP1 DUP3 ADD PUSH1 0x0 SWAP1 SSTORE PUSH1 0x1 DUP3 ADD PUSH1 0x0 SWAP1 SSTORE PUSH1 0x2 DUP3 ADD PUSH1 0x0 PUSH2 0x2682 SWAP2 SWAP1 PUSH2 0x30FF JUMP JUMPDEST POP POP DUP1 DUP1 PUSH2 0x268F SWAP1 PUSH2 0x3F01 JUMP JUMPDEST SWAP2 POP POP PUSH2 0x2644 JUMP JUMPDEST POP PUSH1 0x0 JUMPDEST PUSH1 0x7 SLOAD DUP2 LT ISZERO PUSH2 0x26FE JUMPI PUSH1 0x13 PUSH1 0x0 DUP3 DUP2 MSTORE PUSH1 0x20 ADD SWAP1 DUP2 MSTORE PUSH1 0x20 ADD PUSH1 0x0 KECCAK256 PUSH1 0x0 DUP1 DUP3 ADD PUSH1 0x0 SWAP1 SSTORE PUSH1 0x1 DUP3 ADD PUSH1 0x0 SWAP1 SSTORE PUSH1 0x2 DUP3 ADD PUSH1 0x0 PUSH2 0x26D9 SWAP2 SWAP1 PUSH2 0x30FF JUMP JUMPDEST PUSH1 0x3 DUP3 ADD PUSH1 0x0 PUSH2 0x26E9 SWAP2 SWAP1 PUSH2 0x30FF JUMP JUMPDEST POP POP DUP1 DUP1 PUSH2 0x26F6 SWAP1 PUSH2 0x3F01 JUMP JUMPDEST SWAP2 POP POP PUSH2 0x269B JUMP JUMPDEST POP PUSH1 0x0 JUMPDEST PUSH1 0x9 SLOAD DUP2 LT ISZERO PUSH2 0x275D JUMPI PUSH1 0x15 PUSH1 0x0 DUP3 DUP2 MSTORE PUSH1 0x20 ADD SWAP1 DUP2 MSTORE PUSH1 0x20 ADD PUSH1 0x0 KECCAK256 PUSH1 0x0 DUP1 DUP3 ADD PUSH1 0x0 SWAP1 SSTORE PUSH1 0x1 DUP3 ADD PUSH1 0x0 SWAP1 SSTORE PUSH1 0x2 DUP3 ADD PUSH1 0x0 SWAP1 SSTORE PUSH1 0x3 DUP3 ADD PUSH1 0x0 PUSH2 0x2748 SWAP2 SWAP1 PUSH2 0x30FF JUMP JUMPDEST POP POP DUP1 DUP1 PUSH2 0x2755 SWAP1 PUSH2 0x3F01 JUMP JUMPDEST SWAP2 POP POP PUSH2 0x2702 JUMP JUMPDEST POP PUSH1 0x0 JUMPDEST PUSH1 0x6 SLOAD DUP2 LT ISZERO PUSH2 0x27B4 JUMPI PUSH1 0x12 PUSH1 0x0 DUP3 DUP2 MSTORE PUSH1 0x20 ADD SWAP1 DUP2 MSTORE PUSH1 0x20 ADD PUSH1 0x0 KECCAK256 PUSH1 0x0 DUP1 DUP3 ADD PUSH1 0x0 SWAP1 SSTORE PUSH1 0x1 DUP3 ADD PUSH1 0x0 SWAP1 SSTORE PUSH1 0x2 DUP3 ADD PUSH1 0x0 PUSH2 0x279F SWAP2 SWAP1 PUSH2 0x30FF JUMP JUMPDEST POP POP DUP1 DUP1 PUSH2 0x27AC SWAP1 PUSH2 0x3F01 JUMP JUMPDEST SWAP2 POP POP PUSH2 0x2761 JUMP JUMPDEST POP PUSH1 0x0 DUP1 DUP2 SWAP1 SSTORE POP PUSH1 0x0 PUSH1 0x2 DUP2 SWAP1 SSTORE POP PUSH1 0x0 PUSH1 0x3 DUP2 SWAP1 SSTORE POP PUSH1 0x0 PUSH1 0x7 DUP2 SWAP1 SSTORE POP PUSH1 0x0 PUSH1 0x9 DUP2 SWAP1 SSTORE POP PUSH1 0x0 PUSH1 0x6 DUP2 SWAP1 SSTORE POP JUMP JUMPDEST PUSH1 0x13 PUSH1 0x20 MSTORE DUP1 PUSH1 0x0 MSTORE PUSH1 0x40 PUSH1 0x0 KECCAK256 PUSH1 0x0 SWAP2 POP SWAP1 POP DUP1 PUSH1 0x0 ADD SLOAD SWAP1 DUP1 PUSH1 0x1 ADD SLOAD SWAP1 DUP1 PUSH1 0x2 ADD DUP1 SLOAD PUSH2 0x2815 SWAP1 PUSH2 0x3E72 JUMP JUMPDEST DUP1 PUSH1 0x1F ADD PUSH1 0x20 DUP1 SWAP2 DIV MUL PUSH1 0x20 ADD PUSH1 0x40 MLOAD SWAP1 DUP2 ADD PUSH1 0x40 MSTORE DUP1 SWAP3 SWAP2 SWAP1 DUP2 DUP2 MSTORE PUSH1 0x20 ADD DUP3 DUP1 SLOAD PUSH2 0x2841 SWAP1 PUSH2 0x3E72 JUMP JUMPDEST DUP1 ISZERO PUSH2 0x288E JUMPI DUP1 PUSH1 0x1F LT PUSH2 0x2863 JUMPI PUSH2 0x100 DUP1 DUP4 SLOAD DIV MUL DUP4 MSTORE SWAP2 PUSH1 0x20 ADD SWAP2 PUSH2 0x288E JUMP JUMPDEST DUP3 ADD SWAP2 SWAP1 PUSH1 0x0 MSTORE PUSH1 0x20 PUSH1 0x0 KECCAK256 SWAP1 JUMPDEST DUP2 SLOAD DUP2 MSTORE SWAP1 PUSH1 0x1 ADD SWAP1 PUSH1 0x20 ADD DUP1 DUP4 GT PUSH2 0x2871 JUMPI DUP3 SWAP1 SUB PUSH1 0x1F AND DUP3 ADD SWAP2 JUMPDEST POP POP POP POP POP SWAP1 DUP1 PUSH1 0x3 ADD DUP1 SLOAD PUSH2 0x28A3 SWAP1 PUSH2 0x3E72 JUMP JUMPDEST DUP1 PUSH1 0x1F ADD PUSH1 0x20 DUP1 SWAP2 DIV MUL PUSH1 0x20 ADD PUSH1 0x40 MLOAD SWAP1 DUP2 ADD PUSH1 0x40 MSTORE DUP1 SWAP3 SWAP2 SWAP1 DUP2 DUP2 MSTORE PUSH1 0x20 ADD DUP3 DUP1 SLOAD PUSH2 0x28CF SWAP1 PUSH2 0x3E72 JUMP JUMPDEST DUP1 ISZERO PUSH2 0x291C JUMPI DUP1 PUSH1 0x1F LT PUSH2 0x28F1 JUMPI PUSH2 0x100 DUP1 DUP4 SLOAD DIV MUL DUP4 MSTORE SWAP2 PUSH1 0x20 ADD SWAP2 PUSH2 0x291C JUMP JUMPDEST DUP3 ADD SWAP2 SWAP1 PUSH1 0x0 MSTORE PUSH1 0x20 PUSH1 0x0 KECCAK256 SWAP1 JUMPDEST DUP2 SLOAD DUP2 MSTORE SWAP1 PUSH1 0x1 ADD SWAP1 PUSH1 0x20 ADD DUP1 DUP4 GT PUSH2 0x28FF JUMPI DUP3 SWAP1 SUB PUSH1 0x1F AND DUP3 ADD SWAP2 JUMPDEST POP POP POP POP POP SWAP1 POP DUP5 JUMP JUMPDEST DUP1 PUSH1 0xE PUSH1 0x0 DUP5 DUP2 MSTORE PUSH1 0x20 ADD SWAP1 DUP2 MSTORE PUSH1 0x20 ADD PUSH1 0x0 KECCAK256 PUSH1 0x1 ADD SWAP1 DUP2 PUSH2 0x2949 SWAP2 SWAP1 PUSH2 0x40F5 JUMP JUMPDEST POP POP POP JUMP JUMPDEST PUSH1 0x60 PUSH1 0x0 DUP1 SLOAD PUSH8 0xFFFFFFFFFFFFFFFF DUP2 GT ISZERO PUSH2 0x296D JUMPI PUSH2 0x296C PUSH2 0x337B JUMP JUMPDEST JUMPDEST PUSH1 0x40 MLOAD SWAP1 DUP1 DUP3 MSTORE DUP1 PUSH1 0x20 MUL PUSH1 0x20 ADD DUP3 ADD PUSH1 0x40 MSTORE DUP1 ISZERO PUSH2 0x29A0 JUMPI DUP2 PUSH1 0x20 ADD JUMPDEST PUSH1 0x60 DUP2 MSTORE PUSH1 0x20 ADD SWAP1 PUSH1 0x1 SWAP1 SUB SWAP1 DUP2 PUSH2 0x298B JUMPI SWAP1 POP JUMPDEST POP SWAP1 POP PUSH1 0x0 JUMPDEST PUSH1 0x0 SLOAD DUP2 LT ISZERO PUSH2 0x2A80 JUMPI PUSH1 0xA PUSH1 0x0 DUP3 DUP2 MSTORE PUSH1 0x20 ADD SWAP1 DUP2 MSTORE PUSH1 0x20 ADD PUSH1 0x0 KECCAK256 PUSH1 0x1 ADD DUP1 SLOAD PUSH2 0x29D1 SWAP1 PUSH2 0x3E72 JUMP JUMPDEST DUP1 PUSH1 0x1F ADD PUSH1 0x20 DUP1 SWAP2 DIV MUL PUSH1 0x20 ADD PUSH1 0x40 MLOAD SWAP1 DUP2 ADD PUSH1 0x40 MSTORE DUP1 SWAP3 SWAP2 SWAP1 DUP2 DUP2 MSTORE PUSH1 0x20 ADD DUP3 DUP1 SLOAD PUSH2 0x29FD SWAP1 PUSH2 0x3E72 JUMP JUMPDEST DUP1 ISZERO PUSH2 0x2A4A JUMPI DUP1 PUSH1 0x1F LT PUSH2 0x2A1F JUMPI PUSH2 0x100 DUP1 DUP4 SLOAD DIV MUL DUP4 MSTORE SWAP2 PUSH1 0x20 ADD SWAP2 PUSH2 0x2A4A JUMP JUMPDEST DUP3 ADD SWAP2 SWAP1 PUSH1 0x0 MSTORE PUSH1 0x20 PUSH1 0x0 KECCAK256 SWAP1 JUMPDEST DUP2 SLOAD DUP2 MSTORE SWAP1 PUSH1 0x1 ADD SWAP1 PUSH1 0x20 ADD DUP1 DUP4 GT PUSH2 0x2A2D JUMPI DUP3 SWAP1 SUB PUSH1 0x1F AND DUP3 ADD SWAP2 JUMPDEST POP POP POP POP POP DUP3 DUP3 DUP2 MLOAD DUP2 LT PUSH2 0x2A62 JUMPI PUSH2 0x2A61 PUSH2 0x3EA3 JUMP JUMPDEST JUMPDEST PUSH1 0x20 MUL PUSH1 0x20 ADD ADD DUP2 SWAP1 MSTORE POP DUP1 DUP1 PUSH2 0x2A78 SWAP1 PUSH2 0x3F01 JUMP JUMPDEST SWAP2 POP POP PUSH2 0x29A6 JUMP JUMPDEST POP DUP1 SWAP2 POP POP SWAP1 JUMP JUMPDEST DUP1 PUSH1 0xD PUSH1 0x0 DUP5 DUP2 MSTORE PUSH1 0x20 ADD SWAP1 DUP2 MSTORE PUSH1 0x20 ADD PUSH1 0x0 KECCAK256 PUSH1 0x1 ADD SWAP1 DUP2 PUSH2 0x2AAB SWAP2 SWAP1 PUSH2 0x40F5 JUMP JUMPDEST POP POP POP JUMP JUMPDEST PUSH1 0x8 SLOAD DUP2 JUMP JUMPDEST PUSH1 0x14 PUSH1 0x20 MSTORE DUP1 PUSH1 0x0 MSTORE PUSH1 0x40 PUSH1 0x0 KECCAK256 PUSH1 0x0 SWAP2 POP SWAP1 POP DUP1 PUSH1 0x0 ADD SLOAD SWAP1 DUP1 PUSH1 0x1 ADD SLOAD SWAP1 DUP1 PUSH1 0x2 ADD DUP1 SLOAD PUSH2 0x2AE5 SWAP1 PUSH2 0x3E72 JUMP JUMPDEST DUP1 PUSH1 0x1F ADD PUSH1 0x20 DUP1 SWAP2 DIV MUL PUSH1 0x20 ADD PUSH1 0x40 MLOAD SWAP1 DUP2 ADD PUSH1 0x40 MSTORE DUP1 SWAP3 SWAP2 SWAP1 DUP2 DUP2 MSTORE PUSH1 0x20 ADD DUP3 DUP1 SLOAD PUSH2 0x2B11 SWAP1 PUSH2 0x3E72 JUMP JUMPDEST DUP1 ISZERO PUSH2 0x2B5E JUMPI DUP1 PUSH1 0x1F LT PUSH2 0x2B33 JUMPI PUSH2 0x100 DUP1 DUP4 SLOAD DIV MUL DUP4 MSTORE SWAP2 PUSH1 0x20 ADD SWAP2 PUSH2 0x2B5E JUMP JUMPDEST DUP3 ADD SWAP2 SWAP1 PUSH1 0x0 MSTORE PUSH1 0x20 PUSH1 0x0 KECCAK256 SWAP1 JUMPDEST DUP2 SLOAD DUP2 MSTORE SWAP1 PUSH1 0x1 ADD SWAP1 PUSH1 0x20 ADD DUP1 DUP4 GT PUSH2 0x2B41 JUMPI DUP3 SWAP1 SUB PUSH1 0x1F AND DUP3 ADD SWAP2 JUMPDEST POP POP POP POP POP SWAP1 DUP1 PUSH1 0x3 ADD DUP1 SLOAD PUSH2 0x2B73 SWAP1 PUSH2 0x3E72 JUMP JUMPDEST DUP1 PUSH1 0x1F ADD PUSH1 0x20 DUP1 SWAP2 DIV MUL PUSH1 0x20 ADD PUSH1 0x40 MLOAD SWAP1 DUP2 ADD PUSH1 0x40 MSTORE DUP1 SWAP3 SWAP2 SWAP1 DUP2 DUP2 MSTORE PUSH1 0x20 ADD DUP3 DUP1 SLOAD PUSH2 0x2B9F SWAP1 PUSH2 0x3E72 JUMP JUMPDEST DUP1 ISZERO PUSH2 0x2BEC JUMPI DUP1 PUSH1 0x1F LT PUSH2 0x2BC1 JUMPI PUSH2 0x100 DUP1 DUP4 SLOAD DIV MUL DUP4 MSTORE SWAP2 PUSH1 0x20 ADD SWAP2 PUSH2 0x2BEC JUMP JUMPDEST DUP3 ADD SWAP2 SWAP1 PUSH1 0x0 MSTORE PUSH1 0x20 PUSH1 0x0 KECCAK256 SWAP1 JUMPDEST DUP2 SLOAD DUP2 MSTORE SWAP1 PUSH1 0x1 ADD SWAP1 PUSH1 0x20 ADD DUP1 DUP4 GT PUSH2 0x2BCF JUMPI DUP3 SWAP1 SUB PUSH1 0x1F AND DUP3 ADD SWAP2 JUMPDEST POP POP POP POP POP SWAP1 POP DUP5 JUMP JUMPDEST PUSH1 0x0 DUP1 PUSH1 0x0 SWAP1 POP PUSH1 0x0 JUMPDEST PUSH1 0x8 SLOAD DUP2 LT ISZERO PUSH2 0x2C7C JUMPI DUP5 PUSH1 0x14 PUSH1 0x0 DUP4 DUP2 MSTORE PUSH1 0x20 ADD SWAP1 DUP2 MSTORE PUSH1 0x20 ADD PUSH1 0x0 KECCAK256 PUSH1 0x0 ADD SLOAD EQ DUP1 ISZERO PUSH2 0x2C5F JUMPI POP PUSH1 0x14 PUSH1 0x0 DUP3 DUP2 MSTORE PUSH1 0x20 ADD SWAP1 DUP2 MSTORE PUSH1 0x20 ADD PUSH1 0x0 KECCAK256 PUSH1 0x3 ADD PUSH1 0x40 MLOAD PUSH2 0x2C4D SWAP2 SWAP1 PUSH2 0x42BD JUMP JUMPDEST PUSH1 0x40 MLOAD DUP1 SWAP2 SUB SWAP1 KECCAK256 DUP5 DUP1 MLOAD SWAP1 PUSH1 0x20 ADD KECCAK256 EQ JUMPDEST ISZERO PUSH2 0x2C69 JUMPI PUSH1 0x1 SWAP2 POP JUMPDEST DUP1 DUP1 PUSH2 0x2C74 SWAP1 PUSH2 0x3F01 JUMP JUMPDEST SWAP2 POP POP PUSH2 0x2C00 JUMP JUMPDEST POP DUP1 SWAP2 POP POP SWAP3 SWAP2 POP POP JUMP JUMPDEST PUSH1 0x3 SLOAD DUP2 JUMP JUMPDEST PUSH1 0x60 PUSH1 0xD PUSH1 0x0 DUP4 DUP2 MSTORE PUSH1 0x20 ADD SWAP1 DUP2 MSTORE PUSH1 0x20 ADD PUSH1 0x0 KECCAK256 PUSH1 0x1 ADD DUP1 SLOAD PUSH2 0x2CB0 SWAP1 PUSH2 0x3E72 JUMP JUMPDEST DUP1 PUSH1 0x1F ADD PUSH1 0x20 DUP1 SWAP2 DIV MUL PUSH1 0x20 ADD PUSH1 0x40 MLOAD SWAP1 DUP2 ADD PUSH1 0x40 MSTORE DUP1 SWAP3 SWAP2 SWAP1 DUP2 DUP2 MSTORE PUSH1 0x20 ADD DUP3 DUP1 SLOAD PUSH2 0x2CDC SWAP1 PUSH2 0x3E72 JUMP JUMPDEST DUP1 ISZERO PUSH2 0x2D29 JUMPI DUP1 PUSH1 0x1F LT PUSH2 0x2CFE JUMPI PUSH2 0x100 DUP1 DUP4 SLOAD DIV MUL DUP4 MSTORE SWAP2 PUSH1 0x20 ADD SWAP2 PUSH2 0x2D29 JUMP JUMPDEST DUP3 ADD SWAP2 SWAP1 PUSH1 0x0 MSTORE PUSH1 0x20 PUSH1 0x0 KECCAK256 SWAP1 JUMPDEST DUP2 SLOAD DUP2 MSTORE SWAP1 PUSH1 0x1 ADD SWAP1 PUSH1 0x20 ADD DUP1 DUP4 GT PUSH2 0x2D0C JUMPI DUP3 SWAP1 SUB PUSH1 0x1F AND DUP3 ADD SWAP2 JUMPDEST POP POP POP POP POP SWAP1 POP SWAP2 SWAP1 POP JUMP JUMPDEST PUSH1 0x1 PUSH1 0x16 DUP3 PUSH1 0x40 MLOAD PUSH2 0x2D47 SWAP2 SWAP1 PUSH2 0x4203 JUMP JUMPDEST SWAP1 DUP2 MSTORE PUSH1 0x20 ADD PUSH1 0x40 MLOAD DUP1 SWAP2 SUB SWAP1 KECCAK256 PUSH1 0x1 ADD PUSH1 0x5 PUSH2 0x100 EXP DUP2 SLOAD DUP2 PUSH1 0xFF MUL NOT AND SWAP1 DUP4 ISZERO ISZERO MUL OR SWAP1 SSTORE POP DUP2 PUSH1 0xE PUSH1 0x0 DUP6 DUP2 MSTORE PUSH1 0x20 ADD SWAP1 DUP2 MSTORE PUSH1 0x20 ADD PUSH1 0x0 KECCAK256 PUSH1 0x2 ADD PUSH1 0x0 DUP3 DUP3 SLOAD PUSH2 0x2D95 SWAP2 SWAP1 PUSH2 0x42D4 JUMP JUMPDEST SWAP3 POP POP DUP2 SWAP1 SSTORE POP DUP2 PUSH1 0xF DUP3 PUSH1 0x40 MLOAD PUSH2 0x2DAD SWAP2 SWAP1 PUSH2 0x4203 JUMP JUMPDEST SWAP1 DUP2 MSTORE PUSH1 0x20 ADD PUSH1 0x40 MLOAD DUP1 SWAP2 SUB SWAP1 KECCAK256 PUSH1 0x0 DUP3 DUP3 SLOAD PUSH2 0x2DCA SWAP2 SWAP1 PUSH2 0x42D4 JUMP JUMPDEST SWAP3 POP POP DUP2 SWAP1 SSTORE POP PUSH1 0x40 MLOAD DUP1 PUSH1 0x60 ADD PUSH1 0x40 MSTORE DUP1 DUP5 DUP2 MSTORE PUSH1 0x20 ADD DUP3 DUP2 MSTORE PUSH1 0x20 ADD DUP4 DUP2 MSTORE POP PUSH1 0x10 PUSH1 0x0 PUSH1 0x1 SLOAD DUP2 MSTORE PUSH1 0x20 ADD SWAP1 DUP2 MSTORE PUSH1 0x20 ADD PUSH1 0x0 KECCAK256 PUSH1 0x0 DUP3 ADD MLOAD DUP2 PUSH1 0x0 ADD SSTORE PUSH1 0x20 DUP3 ADD MLOAD DUP2 PUSH1 0x1 ADD SWAP1 DUP2 PUSH2 0x2E20 SWAP2 SWAP1 PUSH2 0x40F5 JUMP JUMPDEST POP PUSH1 0x40 DUP3 ADD MLOAD DUP2 PUSH1 0x2 ADD SSTORE SWAP1 POP POP PUSH1 0x1 PUSH1 0x0 DUP2 SLOAD DUP1 SWAP3 SWAP2 SWAP1 PUSH2 0x2E41 SWAP1 PUSH2 0x3F01 JUMP JUMPDEST SWAP2 SWAP1 POP SSTORE POP POP POP POP JUMP JUMPDEST PUSH1 0x1 SLOAD DUP2 JUMP JUMPDEST PUSH1 0x0 PUSH1 0x40 MLOAD DUP1 PUSH1 0x60 ADD PUSH1 0x40 MSTORE DUP1 DUP6 DUP2 MSTORE PUSH1 0x20 ADD DUP5 DUP2 MSTORE PUSH1 0x20 ADD PUSH1 0x40 MLOAD DUP1 PUSH1 0x40 ADD PUSH1 0x40 MSTORE DUP1 PUSH1 0x5 DUP2 MSTORE PUSH1 0x20 ADD PUSH32 0x46616C7365000000000000000000000000000000000000000000000000000000 DUP2 MSTORE POP DUP2 MSTORE POP PUSH1 0xA PUSH1 0x0 DUP1 SLOAD DUP2 MSTORE PUSH1 0x20 ADD SWAP1 DUP2 MSTORE PUSH1 0x20 ADD PUSH1 0x0 KECCAK256 PUSH1 0x0 DUP3 ADD MLOAD DUP2 PUSH1 0x0 ADD SWAP1 DUP2 PUSH2 0x2ECC SWAP2 SWAP1 PUSH2 0x40F5 JUMP JUMPDEST POP PUSH1 0x20 DUP3 ADD MLOAD DUP2 PUSH1 0x1 ADD SWAP1 DUP2 PUSH2 0x2EE2 SWAP2 SWAP1 PUSH2 0x40F5 JUMP JUMPDEST POP PUSH1 0x40 DUP3 ADD MLOAD DUP2 PUSH1 0x2 ADD SWAP1 DUP2 PUSH2 0x2EF8 SWAP2 SWAP1 PUSH2 0x40F5 JUMP JUMPDEST POP SWAP1 POP POP DUP2 PUSH1 0xB PUSH1 0x0 DUP1 SLOAD DUP2 MSTORE PUSH1 0x20 ADD SWAP1 DUP2 MSTORE PUSH1 0x20 ADD PUSH1 0x0 KECCAK256 SWAP1 DUP2 PUSH2 0x2F1D SWAP2 SWAP1 PUSH2 0x40F5 JUMP JUMPDEST POP PUSH1 0x1 PUSH1 0x16 DUP6 PUSH1 0x40 MLOAD PUSH2 0x2F30 SWAP2 SWAP1 PUSH2 0x4203 JUMP JUMPDEST SWAP1 DUP2 MSTORE PUSH1 0x20 ADD PUSH1 0x40 MLOAD DUP1 SWAP2 SUB SWAP1 KECCAK256 PUSH1 0x1 ADD PUSH1 0x0 PUSH2 0x100 EXP DUP2 SLOAD DUP2 PUSH1 0xFF MUL NOT AND SWAP1 DUP4 ISZERO ISZERO MUL OR SWAP1 SSTORE POP PUSH1 0x0 DUP1 DUP2 SLOAD DUP1 SWAP3 SWAP2 SWAP1 PUSH2 0x2F6A SWAP1 PUSH2 0x3F01 JUMP JUMPDEST SWAP2 SWAP1 POP SSTORE POP PUSH1 0x0 SLOAD SWAP1 POP SWAP4 SWAP3 POP POP POP JUMP JUMPDEST PUSH1 0x0 DUP1 PUSH1 0x0 SWAP1 POP JUMPDEST PUSH1 0x4 SLOAD DUP2 LT ISZERO PUSH2 0x2FE2 JUMPI DUP3 DUP1 MLOAD SWAP1 PUSH1 0x20 ADD KECCAK256 PUSH1 0xC PUSH1 0x0 DUP4 DUP2 MSTORE PUSH1 0x20 ADD SWAP1 DUP2 MSTORE PUSH1 0x20 ADD PUSH1 0x0 KECCAK256 PUSH1 0x1 ADD PUSH1 0x40 MLOAD PUSH2 0x2FB8 SWAP2 SWAP1 PUSH2 0x42BD JUMP JUMPDEST PUSH1 0x40 MLOAD DUP1 SWAP2 SUB SWAP1 KECCAK256 SUB PUSH2 0x2FCF JUMPI PUSH1 0x1 SWAP2 POP POP PUSH2 0x2FE8 JUMP JUMPDEST DUP1 DUP1 PUSH2 0x2FDA SWAP1 PUSH2 0x3F01 JUMP JUMPDEST SWAP2 POP POP PUSH2 0x2F83 JUMP JUMPDEST POP PUSH1 0x0 SWAP1 POP JUMPDEST SWAP2 SWAP1 POP JUMP JUMPDEST PUSH1 0x11 PUSH1 0x20 MSTORE DUP1 PUSH1 0x0 MSTORE PUSH1 0x40 PUSH1 0x0 KECCAK256 PUSH1 0x0 SWAP2 POP SWAP1 POP DUP1 PUSH1 0x0 ADD SLOAD SWAP1 DUP1 PUSH1 0x1 ADD SLOAD SWAP1 DUP1 PUSH1 0x2 ADD DUP1 SLOAD PUSH2 0x301C SWAP1 PUSH2 0x3E72 JUMP JUMPDEST DUP1 PUSH1 0x1F ADD PUSH1 0x20 DUP1 SWAP2 DIV MUL PUSH1 0x20 ADD PUSH1 0x40 MLOAD SWAP1 DUP2 ADD PUSH1 0x40 MSTORE DUP1 SWAP3 SWAP2 SWAP1 DUP2 DUP2 MSTORE PUSH1 0x20 ADD DUP3 DUP1 SLOAD PUSH2 0x3048 SWAP1 PUSH2 0x3E72 JUMP JUMPDEST DUP1 ISZERO PUSH2 0x3095 JUMPI DUP1 PUSH1 0x1F LT PUSH2 0x306A JUMPI PUSH2 0x100 DUP1 DUP4 SLOAD DIV MUL DUP4 MSTORE SWAP2 PUSH1 0x20 ADD SWAP2 PUSH2 0x3095 JUMP JUMPDEST DUP3 ADD SWAP2 SWAP1 PUSH1 0x0 MSTORE PUSH1 0x20 PUSH1 0x0 KECCAK256 SWAP1 JUMPDEST DUP2 SLOAD DUP2 MSTORE SWAP1 PUSH1 0x1 ADD SWAP1 PUSH1 0x20 ADD DUP1 DUP4 GT PUSH2 0x3078 JUMPI DUP3 SWAP1 SUB PUSH1 0x1F AND DUP3 ADD SWAP2 JUMPDEST POP POP POP POP POP SWAP1 POP DUP4 JUMP JUMPDEST PUSH1 0x40 MLOAD DUP1 PUSH1 0x60 ADD PUSH1 0x40 MSTORE DUP1 DUP5 DUP2 MSTORE PUSH1 0x20 ADD DUP4 DUP2 MSTORE PUSH1 0x20 ADD DUP3 DUP2 MSTORE POP PUSH1 0x11 PUSH1 0x0 DUP5 DUP2 MSTORE PUSH1 0x20 ADD SWAP1 DUP2 MSTORE PUSH1 0x20 ADD PUSH1 0x0 KECCAK256 PUSH1 0x0 DUP3 ADD MLOAD DUP2 PUSH1 0x0 ADD SSTORE PUSH1 0x20 DUP3 ADD MLOAD DUP2 PUSH1 0x1 ADD SSTORE PUSH1 0x40 DUP3 ADD MLOAD DUP2 PUSH1 0x2 ADD SWAP1 DUP2 PUSH2 0x30F6 SWAP2 SWAP1 PUSH2 0x40F5 JUMP JUMPDEST POP SWAP1 POP POP POP POP POP JUMP JUMPDEST POP DUP1 SLOAD PUSH2 0x310B SWAP1 PUSH2 0x3E72 JUMP JUMPDEST PUSH1 0x0 DUP3 SSTORE DUP1 PUSH1 0x1F LT PUSH2 0x311D JUMPI POP PUSH2 0x313C JUMP JUMPDEST PUSH1 0x1F ADD PUSH1 0x20 SWAP1 DIV SWAP1 PUSH1 0x0 MSTORE PUSH1 0x20 PUSH1 0x0 KECCAK256 SWAP1 DUP2 ADD SWAP1 PUSH2 0x313B SWAP2 SWAP1 PUSH2 0x313F JUMP JUMPDEST JUMPDEST POP JUMP JUMPDEST JUMPDEST DUP1 DUP3 GT ISZERO PUSH2 0x3158 JUMPI PUSH1 0x0 DUP2 PUSH1 0x0 SWAP1 SSTORE POP PUSH1 0x1 ADD PUSH2 0x3140 JUMP JUMPDEST POP SWAP1 JUMP JUMPDEST PUSH1 0x0 PUSH1 0x40 MLOAD SWAP1 POP SWAP1 JUMP JUMPDEST PUSH1 0x0 DUP1 REVERT JUMPDEST PUSH1 0x0 DUP1 REVERT JUMPDEST PUSH1 0x0 DUP2 SWAP1 POP SWAP2 SWAP1 POP JUMP JUMPDEST PUSH2 0x3183 DUP2 PUSH2 0x3170 JUMP JUMPDEST DUP2 EQ PUSH2 0x318E JUMPI PUSH1 0x0 DUP1 REVERT JUMPDEST POP JUMP JUMPDEST PUSH1 0x0 DUP2 CALLDATALOAD SWAP1 POP PUSH2 0x31A0 DUP2 PUSH2 0x317A JUMP JUMPDEST SWAP3 SWAP2 POP POP JUMP JUMPDEST PUSH1 0x0 PUSH1 0x20 DUP3 DUP5 SUB SLT ISZERO PUSH2 0x31BC JUMPI PUSH2 0x31BB PUSH2 0x3166 JUMP JUMPDEST JUMPDEST PUSH1 0x0 PUSH2 0x31CA DUP5 DUP3 DUP6 ADD PUSH2 0x3191 JUMP JUMPDEST SWAP2 POP POP SWAP3 SWAP2 POP POP JUMP JUMPDEST PUSH1 0x0 DUP2 MLOAD SWAP1 POP SWAP2 SWAP1 POP JUMP JUMPDEST PUSH1 0x0 DUP3 DUP3 MSTORE PUSH1 0x20 DUP3 ADD SWAP1 POP SWAP3 SWAP2 POP POP JUMP JUMPDEST PUSH1 0x0 DUP2 SWAP1 POP PUSH1 0x20 DUP3 ADD SWAP1 POP SWAP2 SWAP1 POP JUMP JUMPDEST PUSH1 0x0 DUP2 MLOAD SWAP1 POP SWAP2 SWAP1 POP JUMP JUMPDEST PUSH1 0x0 DUP3 DUP3 MSTORE PUSH1 0x20 DUP3 ADD SWAP1 POP SWAP3 SWAP2 POP POP JUMP JUMPDEST PUSH1 0x0 JUMPDEST DUP4 DUP2 LT ISZERO PUSH2 0x3239 JUMPI DUP1 DUP3 ADD MLOAD DUP2 DUP5 ADD MSTORE PUSH1 0x20 DUP2 ADD SWAP1 POP PUSH2 0x321E JUMP JUMPDEST PUSH1 0x0 DUP5 DUP5 ADD MSTORE POP POP POP POP JUMP JUMPDEST PUSH1 0x0 PUSH1 0x1F NOT PUSH1 0x1F DUP4 ADD AND SWAP1 POP SWAP2 SWAP1 POP JUMP JUMPDEST PUSH1 0x0 PUSH2 0x3261 DUP3 PUSH2 0x31FF JUMP JUMPDEST PUSH2 0x326B DUP2 DUP6 PUSH2 0x320A JUMP JUMPDEST SWAP4 POP PUSH2 0x327B DUP2 DUP6 PUSH1 0x20 DUP7 ADD PUSH2 0x321B JUMP JUMPDEST PUSH2 0x3284 DUP2 PUSH2 0x3245 JUMP JUMPDEST DUP5 ADD SWAP2 POP POP SWAP3 SWAP2 POP POP JUMP JUMPDEST PUSH1 0x0 PUSH2 0x329B DUP4 DUP4 PUSH2 0x3256 JUMP JUMPDEST SWAP1 POP SWAP3 SWAP2 POP POP JUMP JUMPDEST PUSH1 0x0 PUSH1 0x20 DUP3 ADD SWAP1 POP SWAP2 SWAP1 POP JUMP JUMPDEST PUSH1 0x0 PUSH2 0x32BB DUP3 PUSH2 0x31D3 JUMP JUMPDEST PUSH2 0x32C5 DUP2 DUP6 PUSH2 0x31DE JUMP JUMPDEST SWAP4 POP DUP4 PUSH1 0x20 DUP3 MUL DUP6 ADD PUSH2 0x32D7 DUP6 PUSH2 0x31EF JUMP JUMPDEST DUP1 PUSH1 0x0 JUMPDEST DUP6 DUP2 LT ISZERO PUSH2 0x3313 JUMPI DUP5 DUP5 SUB DUP10 MSTORE DUP2 MLOAD PUSH2 0x32F4 DUP6 DUP3 PUSH2 0x328F JUMP JUMPDEST SWAP5 POP PUSH2 0x32FF DUP4 PUSH2 0x32A3 JUMP JUMPDEST SWAP3 POP PUSH1 0x20 DUP11 ADD SWAP10 POP POP PUSH1 0x1 DUP2 ADD SWAP1 POP PUSH2 0x32DB JUMP JUMPDEST POP DUP3 SWAP8 POP DUP8 SWAP6 POP POP POP POP POP POP SWAP3 SWAP2 POP POP JUMP JUMPDEST PUSH1 0x0 PUSH1 0x20 DUP3 ADD SWAP1 POP DUP2 DUP2 SUB PUSH1 0x0 DUP4 ADD MSTORE PUSH2 0x333F DUP2 DUP5 PUSH2 0x32B0 JUMP JUMPDEST SWAP1 POP SWAP3 SWAP2 POP POP JUMP JUMPDEST PUSH2 0x3350 DUP2 PUSH2 0x3170 JUMP JUMPDEST DUP3 MSTORE POP POP JUMP JUMPDEST PUSH1 0x0 PUSH1 0x20 DUP3 ADD SWAP1 POP PUSH2 0x336B PUSH1 0x0 DUP4 ADD DUP5 PUSH2 0x3347 JUMP JUMPDEST SWAP3 SWAP2 POP POP JUMP JUMPDEST PUSH1 0x0 DUP1 REVERT JUMPDEST PUSH1 0x0 DUP1 REVERT JUMPDEST PUSH32 0x4E487B7100000000000000000000000000000000000000000000000000000000 PUSH1 0x0 MSTORE PUSH1 0x41 PUSH1 0x4 MSTORE PUSH1 0x24 PUSH1 0x0 REVERT JUMPDEST PUSH2 0x33B3 DUP3 PUSH2 0x3245 JUMP JUMPDEST DUP2 ADD DUP2 DUP2 LT PUSH8 0xFFFFFFFFFFFFFFFF DUP3 GT OR ISZERO PUSH2 0x33D2 JUMPI PUSH2 0x33D1 PUSH2 0x337B JUMP JUMPDEST JUMPDEST DUP1 PUSH1 0x40 MSTORE POP POP POP JUMP JUMPDEST PUSH1 0x0 PUSH2 0x33E5 PUSH2 0x315C JUMP JUMPDEST SWAP1 POP PUSH2 0x33F1 DUP3 DUP3 PUSH2 0x33AA JUMP JUMPDEST SWAP2 SWAP1 POP JUMP JUMPDEST PUSH1 0x0 PUSH8 0xFFFFFFFFFFFFFFFF DUP3 GT ISZERO PUSH2 0x3411 JUMPI PUSH2 0x3410 PUSH2 0x337B JUMP JUMPDEST JUMPDEST PUSH2 0x341A DUP3 PUSH2 0x3245 JUMP JUMPDEST SWAP1 POP PUSH1 0x20 DUP2 ADD SWAP1 POP SWAP2 SWAP1 POP JUMP JUMPDEST DUP3 DUP2 DUP4 CALLDATACOPY PUSH1 0x0 DUP4 DUP4 ADD MSTORE POP POP POP JUMP JUMPDEST PUSH1 0x0 PUSH2 0x3449 PUSH2 0x3444 DUP5 PUSH2 0x33F6 JUMP JUMPDEST PUSH2 0x33DB JUMP JUMPDEST SWAP1 POP DUP3 DUP2 MSTORE PUSH1 0x20 DUP2 ADD DUP5 DUP5 DUP5 ADD GT ISZERO PUSH2 0x3465 JUMPI PUSH2 0x3464 PUSH2 0x3376 JUMP JUMPDEST JUMPDEST PUSH2 0x3470 DUP5 DUP3 DUP6 PUSH2 0x3427 JUMP JUMPDEST POP SWAP4 SWAP3 POP POP POP JUMP JUMPDEST PUSH1 0x0 DUP3 PUSH1 0x1F DUP4 ADD SLT PUSH2 0x348D JUMPI PUSH2 0x348C PUSH2 0x3371 JUMP JUMPDEST JUMPDEST DUP2 CALLDATALOAD PUSH2 0x349D DUP5 DUP3 PUSH1 0x20 DUP7 ADD PUSH2 0x3436 JUMP JUMPDEST SWAP2 POP POP SWAP3 SWAP2 POP POP JUMP JUMPDEST PUSH1 0x0 PUSH8 0xFFFFFFFFFFFFFFFF DUP3 GT ISZERO PUSH2 0x34C1 JUMPI PUSH2 0x34C0 PUSH2 0x337B JUMP JUMPDEST JUMPDEST PUSH1 0x20 DUP3 MUL SWAP1 POP PUSH1 0x20 DUP2 ADD SWAP1 POP SWAP2 SWAP1 POP JUMP JUMPDEST PUSH1 0x0 DUP1 REVERT JUMPDEST PUSH1 0x0 PUSH2 0x34EA PUSH2 0x34E5 DUP5 PUSH2 0x34A6 JUMP JUMPDEST PUSH2 0x33DB JUMP JUMPDEST SWAP1 POP DUP1 DUP4 DUP3 MSTORE PUSH1 0x20 DUP3 ADD SWAP1 POP PUSH1 0x20 DUP5 MUL DUP4 ADD DUP6 DUP2 GT ISZERO PUSH2 0x350D JUMPI PUSH2 0x350C PUSH2 0x34D2 JUMP JUMPDEST JUMPDEST DUP4 JUMPDEST DUP2 DUP2 LT ISZERO PUSH2 0x3554 JUMPI DUP1 CALLDATALOAD PUSH8 0xFFFFFFFFFFFFFFFF DUP2 GT ISZERO PUSH2 0x3532 JUMPI PUSH2 0x3531 PUSH2 0x3371 JUMP JUMPDEST JUMPDEST DUP1 DUP7 ADD PUSH2 0x353F DUP10 DUP3 PUSH2 0x3478 JUMP JUMPDEST DUP6 MSTORE PUSH1 0x20 DUP6 ADD SWAP5 POP POP POP PUSH1 0x20 DUP2 ADD SWAP1 POP PUSH2 0x350F JUMP JUMPDEST POP POP POP SWAP4 SWAP3 POP POP POP JUMP JUMPDEST PUSH1 0x0 DUP3 PUSH1 0x1F DUP4 ADD SLT PUSH2 0x3573 JUMPI PUSH2 0x3572 PUSH2 0x3371 JUMP JUMPDEST JUMPDEST DUP2 CALLDATALOAD PUSH2 0x3583 DUP5 DUP3 PUSH1 0x20 DUP7 ADD PUSH2 0x34D7 JUMP JUMPDEST SWAP2 POP POP SWAP3 SWAP2 POP POP JUMP JUMPDEST PUSH1 0x0 DUP1 PUSH1 0x0 DUP1 PUSH1 0x80 DUP6 DUP8 SUB SLT ISZERO PUSH2 0x35A6 JUMPI PUSH2 0x35A5 PUSH2 0x3166 JUMP JUMPDEST JUMPDEST PUSH1 0x0 DUP6 ADD CALLDATALOAD PUSH8 0xFFFFFFFFFFFFFFFF DUP2 GT ISZERO PUSH2 0x35C4 JUMPI PUSH2 0x35C3 PUSH2 0x316B JUMP JUMPDEST JUMPDEST PUSH2 0x35D0 DUP8 DUP3 DUP9 ADD PUSH2 0x3478 JUMP JUMPDEST SWAP5 POP POP PUSH1 0x20 PUSH2 0x35E1 DUP8 DUP3 DUP9 ADD PUSH2 0x3191 JUMP JUMPDEST SWAP4 POP POP PUSH1 0x40 DUP6 ADD CALLDATALOAD PUSH8 0xFFFFFFFFFFFFFFFF DUP2 GT ISZERO PUSH2 0x3602 JUMPI PUSH2 0x3601 PUSH2 0x316B JUMP JUMPDEST JUMPDEST PUSH2 0x360E DUP8 DUP3 DUP9 ADD PUSH2 0x355E JUMP JUMPDEST SWAP3 POP POP PUSH1 0x60 DUP6 ADD CALLDATALOAD PUSH8 0xFFFFFFFFFFFFFFFF DUP2 GT ISZERO PUSH2 0x362F JUMPI PUSH2 0x362E PUSH2 0x316B JUMP JUMPDEST JUMPDEST PUSH2 0x363B DUP8 DUP3 DUP9 ADD PUSH2 0x3478 JUMP JUMPDEST SWAP2 POP POP SWAP3 SWAP6 SWAP2 SWAP5 POP SWAP3 POP JUMP JUMPDEST PUSH1 0x0 DUP3 DUP3 MSTORE PUSH1 0x20 DUP3 ADD SWAP1 POP SWAP3 SWAP2 POP POP JUMP JUMPDEST PUSH1 0x0 PUSH2 0x3663 DUP3 PUSH2 0x31FF JUMP JUMPDEST PUSH2 0x366D DUP2 DUP6 PUSH2 0x3647 JUMP JUMPDEST SWAP4 POP PUSH2 0x367D DUP2 DUP6 PUSH1 0x20 DUP7 ADD PUSH2 0x321B JUMP JUMPDEST PUSH2 0x3686 DUP2 PUSH2 0x3245 JUMP JUMPDEST DUP5 ADD SWAP2 POP POP SWAP3 SWAP2 POP POP JUMP JUMPDEST PUSH1 0x0 PUSH1 0x60 DUP3 ADD SWAP1 POP PUSH2 0x36A6 PUSH1 0x0 DUP4 ADD DUP7 PUSH2 0x3347 JUMP JUMPDEST PUSH2 0x36B3 PUSH1 0x20 DUP4 ADD DUP6 PUSH2 0x3347 JUMP JUMPDEST DUP2 DUP2 SUB PUSH1 0x40 DUP4 ADD MSTORE PUSH2 0x36C5 DUP2 DUP5 PUSH2 0x3658 JUMP JUMPDEST SWAP1 POP SWAP5 SWAP4 POP POP POP POP JUMP JUMPDEST PUSH1 0x0 PUSH1 0x20 DUP3 DUP5 SUB SLT ISZERO PUSH2 0x36E5 JUMPI PUSH2 0x36E4 PUSH2 0x3166 JUMP JUMPDEST JUMPDEST PUSH1 0x0 DUP3 ADD CALLDATALOAD PUSH8 0xFFFFFFFFFFFFFFFF DUP2 GT ISZERO PUSH2 0x3703 JUMPI PUSH2 0x3702 PUSH2 0x316B JUMP JUMPDEST JUMPDEST PUSH2 0x370F DUP5 DUP3 DUP6 ADD PUSH2 0x3478 JUMP JUMPDEST SWAP2 POP POP SWAP3 SWAP2 POP POP JUMP JUMPDEST PUSH1 0x0 PUSH1 0x60 DUP3 ADD SWAP1 POP DUP2 DUP2 SUB PUSH1 0x0 DUP4 ADD MSTORE PUSH2 0x3732 DUP2 DUP7 PUSH2 0x3658 JUMP JUMPDEST SWAP1 POP DUP2 DUP2 SUB PUSH1 0x20 DUP4 ADD MSTORE PUSH2 0x3746 DUP2 DUP6 PUSH2 0x3658 JUMP JUMPDEST SWAP1 POP DUP2 DUP2 SUB PUSH1 0x40 DUP4 ADD MSTORE PUSH2 0x375A DUP2 DUP5 PUSH2 0x3658 JUMP JUMPDEST SWAP1 POP SWAP5 SWAP4 POP POP POP POP JUMP JUMPDEST PUSH1 0x0 PUSH1 0x40 DUP3 ADD SWAP1 POP PUSH2 0x3779 PUSH1 0x0 DUP4 ADD DUP6 PUSH2 0x3347 JUMP JUMPDEST DUP2 DUP2 SUB PUSH1 0x20 DUP4 ADD MSTORE PUSH2 0x378B DUP2 DUP5 PUSH2 0x3658 JUMP JUMPDEST SWAP1 POP SWAP4 SWAP3 POP POP POP JUMP JUMPDEST PUSH1 0x0 DUP1 PUSH1 0x0 PUSH1 0x60 DUP5 DUP7 SUB SLT ISZERO PUSH2 0x37AD JUMPI PUSH2 0x37AC PUSH2 0x3166 JUMP JUMPDEST JUMPDEST PUSH1 0x0 PUSH2 0x37BB DUP7 DUP3 DUP8 ADD PUSH2 0x3191 JUMP JUMPDEST SWAP4 POP POP PUSH1 0x20 DUP5 ADD CALLDATALOAD PUSH8 0xFFFFFFFFFFFFFFFF DUP2 GT ISZERO PUSH2 0x37DC JUMPI PUSH2 0x37DB PUSH2 0x316B JUMP JUMPDEST JUMPDEST PUSH2 0x37E8 DUP7 DUP3 DUP8 ADD PUSH2 0x3478 JUMP JUMPDEST SWAP3 POP POP PUSH1 0x40 DUP5 ADD CALLDATALOAD PUSH8 0xFFFFFFFFFFFFFFFF DUP2 GT ISZERO PUSH2 0x3809 JUMPI PUSH2 0x3808 PUSH2 0x316B JUMP JUMPDEST JUMPDEST PUSH2 0x3815 DUP7 DUP3 DUP8 ADD PUSH2 0x3478 JUMP JUMPDEST SWAP2 POP POP SWAP3 POP SWAP3 POP SWAP3 JUMP JUMPDEST PUSH1 0x0 PUSH1 0x80 DUP3 ADD SWAP1 POP PUSH2 0x3834 PUSH1 0x0 DUP4 ADD DUP8 PUSH2 0x3347 JUMP JUMPDEST PUSH2 0x3841 PUSH1 0x20 DUP4 ADD DUP7 PUSH2 0x3347 JUMP JUMPDEST PUSH2 0x384E PUSH1 0x40 DUP4 ADD DUP6 PUSH2 0x3347 JUMP JUMPDEST DUP2 DUP2 SUB PUSH1 0x60 DUP4 ADD MSTORE PUSH2 0x3860 DUP2 DUP5 PUSH2 0x3658 JUMP JUMPDEST SWAP1 POP SWAP6 SWAP5 POP POP POP POP POP JUMP JUMPDEST PUSH1 0x0 PUSH1 0x60 DUP3 ADD SWAP1 POP PUSH2 0x3880 PUSH1 0x0 DUP4 ADD DUP7 PUSH2 0x3347 JUMP JUMPDEST DUP2 DUP2 SUB PUSH1 0x20 DUP4 ADD MSTORE PUSH2 0x3892 DUP2 DUP6 PUSH2 0x3658 JUMP JUMPDEST SWAP1 POP PUSH2 0x38A1 PUSH1 0x40 DUP4 ADD DUP5 PUSH2 0x3347 JUMP JUMPDEST SWAP5 SWAP4 POP POP POP POP JUMP JUMPDEST PUSH1 0x0 DUP1 PUSH1 0x0 DUP1 PUSH1 0x80 DUP6 DUP8 SUB SLT ISZERO PUSH2 0x38C3 JUMPI PUSH2 0x38C2 PUSH2 0x3166 JUMP JUMPDEST JUMPDEST PUSH1 0x0 PUSH2 0x38D1 DUP8 DUP3 DUP9 ADD PUSH2 0x3191 JUMP JUMPDEST SWAP5 POP POP PUSH1 0x20 DUP6 ADD CALLDATALOAD PUSH8 0xFFFFFFFFFFFFFFFF DUP2 GT ISZERO PUSH2 0x38F2 JUMPI PUSH2 0x38F1 PUSH2 0x316B JUMP JUMPDEST JUMPDEST PUSH2 0x38FE DUP8 DUP3 DUP9 ADD PUSH2 0x3478 JUMP JUMPDEST SWAP4 POP POP PUSH1 0x40 PUSH2 0x390F DUP8 DUP3 DUP9 ADD PUSH2 0x3191 JUMP JUMPDEST SWAP3 POP POP PUSH1 0x60 DUP6 ADD CALLDATALOAD PUSH8 0xFFFFFFFFFFFFFFFF DUP2 GT ISZERO PUSH2 0x3930 JUMPI PUSH2 0x392F PUSH2 0x316B JUMP JUMPDEST JUMPDEST PUSH2 0x393C DUP8 DUP3 DUP9 ADD PUSH2 0x3478 JUMP JUMPDEST SWAP2 POP POP SWAP3 SWAP6 SWAP2 SWAP5 POP SWAP3 POP JUMP JUMPDEST PUSH1 0x0 DUP1 PUSH1 0x40 DUP4 DUP6 SUB SLT ISZERO PUSH2 0x395F JUMPI PUSH2 0x395E PUSH2 0x3166 JUMP JUMPDEST JUMPDEST PUSH1 0x0 PUSH2 0x396D DUP6 DUP3 DUP7 ADD PUSH2 0x3191 JUMP JUMPDEST SWAP3 POP POP PUSH1 0x20 PUSH2 0x397E DUP6 DUP3 DUP7 ADD PUSH2 0x3191 JUMP JUMPDEST SWAP2 POP POP SWAP3 POP SWAP3 SWAP1 POP JUMP JUMPDEST PUSH1 0x0 DUP1 PUSH1 0x40 DUP4 DUP6 SUB SLT ISZERO PUSH2 0x399F JUMPI PUSH2 0x399E PUSH2 0x3166 JUMP JUMPDEST JUMPDEST PUSH1 0x0 PUSH2 0x39AD DUP6 DUP3 DUP7 ADD PUSH2 0x3191 JUMP JUMPDEST SWAP3 POP POP PUSH1 0x20 DUP4 ADD CALLDATALOAD PUSH8 0xFFFFFFFFFFFFFFFF DUP2 GT ISZERO PUSH2 0x39CE JUMPI PUSH2 0x39CD PUSH2 0x316B JUMP JUMPDEST JUMPDEST PUSH2 0x39DA DUP6 DUP3 DUP7 ADD PUSH2 0x3478 JUMP JUMPDEST SWAP2 POP POP SWAP3 POP SWAP3 SWAP1 POP JUMP JUMPDEST PUSH1 0x0 PUSH1 0x20 DUP3 ADD SWAP1 POP DUP2 DUP2 SUB PUSH1 0x0 DUP4 ADD MSTORE PUSH2 0x39FE DUP2 DUP5 PUSH2 0x3658 JUMP JUMPDEST SWAP1 POP SWAP3 SWAP2 POP POP JUMP JUMPDEST PUSH1 0x0 DUP1 PUSH1 0x0 PUSH1 0x60 DUP5 DUP7 SUB SLT ISZERO PUSH2 0x3A1F JUMPI PUSH2 0x3A1E PUSH2 0x3166 JUMP JUMPDEST JUMPDEST PUSH1 0x0 DUP5 ADD CALLDATALOAD PUSH8 0xFFFFFFFFFFFFFFFF DUP2 GT ISZERO PUSH2 0x3A3D JUMPI PUSH2 0x3A3C PUSH2 0x316B JUMP JUMPDEST JUMPDEST PUSH2 0x3A49 DUP7 DUP3 DUP8 ADD PUSH2 0x3478 JUMP JUMPDEST SWAP4 POP POP PUSH1 0x20 PUSH2 0x3A5A DUP7 DUP3 DUP8 ADD PUSH2 0x3191 JUMP JUMPDEST SWAP3 POP POP PUSH1 0x40 DUP5 ADD CALLDATALOAD PUSH8 0xFFFFFFFFFFFFFFFF DUP2 GT ISZERO PUSH2 0x3A7B JUMPI PUSH2 0x3A7A PUSH2 0x316B JUMP JUMPDEST JUMPDEST PUSH2 0x3A87 DUP7 DUP3 DUP8 ADD PUSH2 0x3478 JUMP JUMPDEST SWAP2 POP POP SWAP3 POP SWAP3 POP SWAP3 JUMP JUMPDEST PUSH1 0x0 DUP2 MLOAD SWAP1 POP SWAP2 SWAP1 POP JUMP JUMPDEST PUSH1 0x0 DUP3 DUP3 MSTORE PUSH1 0x20 DUP3 ADD SWAP1 POP SWAP3 SWAP2 POP POP JUMP JUMPDEST PUSH1 0x0 DUP2 SWAP1 POP PUSH1 0x20 DUP3 ADD SWAP1 POP SWAP2 SWAP1 POP JUMP JUMPDEST PUSH2 0x3AC6 DUP2 PUSH2 0x3170 JUMP JUMPDEST DUP3 MSTORE POP POP JUMP JUMPDEST PUSH1 0x0 PUSH2 0x3AD8 DUP4 DUP4 PUSH2 0x3ABD JUMP JUMPDEST PUSH1 0x20 DUP4 ADD SWAP1 POP SWAP3 SWAP2 POP POP JUMP JUMPDEST PUSH1 0x0 PUSH1 0x20 DUP3 ADD SWAP1 POP SWAP2 SWAP1 POP JUMP JUMPDEST PUSH1 0x0 PUSH2 0x3AFC DUP3 PUSH2 0x3A91 JUMP JUMPDEST PUSH2 0x3B06 DUP2 DUP6 PUSH2 0x3A9C JUMP JUMPDEST SWAP4 POP PUSH2 0x3B11 DUP4 PUSH2 0x3AAD JUMP JUMPDEST DUP1 PUSH1 0x0 JUMPDEST DUP4 DUP2 LT ISZERO PUSH2 0x3B42 JUMPI DUP2 MLOAD PUSH2 0x3B29 DUP9 DUP3 PUSH2 0x3ACC JUMP JUMPDEST SWAP8 POP PUSH2 0x3B34 DUP4 PUSH2 0x3AE4 JUMP JUMPDEST SWAP3 POP POP PUSH1 0x1 DUP2 ADD SWAP1 POP PUSH2 0x3B15 JUMP JUMPDEST POP DUP6 SWAP4 POP POP POP POP SWAP3 SWAP2 POP POP JUMP JUMPDEST PUSH1 0x0 PUSH1 0x20 DUP3 ADD SWAP1 POP DUP2 DUP2 SUB PUSH1 0x0 DUP4 ADD MSTORE PUSH2 0x3B69 DUP2 DUP5 PUSH2 0x3AF1 JUMP JUMPDEST SWAP1 POP SWAP3 SWAP2 POP POP JUMP JUMPDEST PUSH1 0x0 DUP1 PUSH1 0x0 PUSH1 0x60 DUP5 DUP7 SUB SLT ISZERO PUSH2 0x3B8A JUMPI PUSH2 0x3B89 PUSH2 0x3166 JUMP JUMPDEST JUMPDEST PUSH1 0x0 PUSH2 0x3B98 DUP7 DUP3 DUP8 ADD PUSH2 0x3191 JUMP JUMPDEST SWAP4 POP POP PUSH1 0x20 PUSH2 0x3BA9 DUP7 DUP3 DUP8 ADD PUSH2 0x3191 JUMP JUMPDEST SWAP3 POP POP PUSH1 0x40 DUP5 ADD CALLDATALOAD PUSH8 0xFFFFFFFFFFFFFFFF DUP2 GT ISZERO PUSH2 0x3BCA JUMPI PUSH2 0x3BC9 PUSH2 0x316B JUMP JUMPDEST JUMPDEST PUSH2 0x3BD6 DUP7 DUP3 DUP8 ADD PUSH2 0x3478 JUMP JUMPDEST SWAP2 POP POP SWAP3 POP SWAP3 POP SWAP3 JUMP JUMPDEST PUSH1 0x0 DUP1 PUSH1 0x0 DUP1 PUSH1 0x80 DUP6 DUP8 SUB SLT ISZERO PUSH2 0x3BFA JUMPI PUSH2 0x3BF9 PUSH2 0x3166 JUMP JUMPDEST JUMPDEST PUSH1 0x0 PUSH2 0x3C08 DUP8 DUP3 DUP9 ADD PUSH2 0x3191 JUMP JUMPDEST SWAP5 POP POP PUSH1 0x20 PUSH2 0x3C19 DUP8 DUP3 DUP9 ADD PUSH2 0x3191 JUMP JUMPDEST SWAP4 POP POP PUSH1 0x40 DUP6 ADD CALLDATALOAD PUSH8 0xFFFFFFFFFFFFFFFF DUP2 GT ISZERO PUSH2 0x3C3A JUMPI PUSH2 0x3C39 PUSH2 0x316B JUMP JUMPDEST JUMPDEST PUSH2 0x3C46 DUP8 DUP3 DUP9 ADD PUSH2 0x3478 JUMP JUMPDEST SWAP3 POP POP PUSH1 0x60 DUP6 ADD CALLDATALOAD PUSH8 0xFFFFFFFFFFFFFFFF DUP2 GT ISZERO PUSH2 0x3C67 JUMPI PUSH2 0x3C66 PUSH2 0x316B JUMP JUMPDEST JUMPDEST PUSH2 0x3C73 DUP8 DUP3 DUP9 ADD PUSH2 0x3478 JUMP JUMPDEST SWAP2 POP POP SWAP3 SWAP6 SWAP2 SWAP5 POP SWAP3 POP JUMP JUMPDEST PUSH1 0x0 DUP2 ISZERO ISZERO SWAP1 POP SWAP2 SWAP1 POP JUMP JUMPDEST PUSH2 0x3C94 DUP2 PUSH2 0x3C7F JUMP JUMPDEST DUP3 MSTORE POP POP JUMP JUMPDEST PUSH1 0x0 PUSH2 0x120 DUP3 ADD SWAP1 POP DUP2 DUP2 SUB PUSH1 0x0 DUP4 ADD MSTORE PUSH2 0x3CB5 DUP2 DUP13 PUSH2 0x3658 JUMP JUMPDEST SWAP1 POP PUSH2 0x3CC4 PUSH1 0x20 DUP4 ADD DUP12 PUSH2 0x3C8B JUMP JUMPDEST PUSH2 0x3CD1 PUSH1 0x40 DUP4 ADD DUP11 PUSH2 0x3C8B JUMP JUMPDEST PUSH2 0x3CDE PUSH1 0x60 DUP4 ADD DUP10 PUSH2 0x3C8B JUMP JUMPDEST PUSH2 0x3CEB PUSH1 0x80 DUP4 ADD DUP9 PUSH2 0x3C8B JUMP JUMPDEST PUSH2 0x3CF8 PUSH1 0xA0 DUP4 ADD DUP8 PUSH2 0x3C8B JUMP JUMPDEST PUSH2 0x3D05 PUSH1 0xC0 DUP4 ADD DUP7 PUSH2 0x3C8B JUMP JUMPDEST PUSH2 0x3D12 PUSH1 0xE0 DUP4 ADD DUP6 PUSH2 0x3C8B JUMP JUMPDEST PUSH2 0x3D20 PUSH2 0x100 DUP4 ADD DUP5 PUSH2 0x3C8B JUMP JUMPDEST SWAP11 SWAP10 POP POP POP POP POP POP POP POP POP POP JUMP JUMPDEST PUSH1 0x0 PUSH1 0x80 DUP3 ADD SWAP1 POP PUSH2 0x3D43 PUSH1 0x0 DUP4 ADD DUP8 PUSH2 0x3347 JUMP JUMPDEST PUSH2 0x3D50 PUSH1 0x20 DUP4 ADD DUP7 PUSH2 0x3347 JUMP JUMPDEST DUP2 DUP2 SUB PUSH1 0x40 DUP4 ADD MSTORE PUSH2 0x3D62 DUP2 DUP6 PUSH2 0x3658 JUMP JUMPDEST SWAP1 POP DUP2 DUP2 SUB PUSH1 0x60 DUP4 ADD MSTORE PUSH2 0x3D76 DUP2 DUP5 PUSH2 0x3658 JUMP JUMPDEST SWAP1 POP SWAP6 SWAP5 POP POP POP POP POP JUMP JUMPDEST PUSH1 0x0 PUSH1 0x20 DUP3 ADD SWAP1 POP PUSH2 0x3D96 PUSH1 0x0 DUP4 ADD DUP5 PUSH2 0x3C8B JUMP JUMPDEST SWAP3 SWAP2 POP POP JUMP JUMPDEST PUSH1 0x0 DUP1 PUSH1 0x0 PUSH1 0x60 DUP5 DUP7 SUB SLT ISZERO PUSH2 0x3DB5 JUMPI PUSH2 0x3DB4 PUSH2 0x3166 JUMP JUMPDEST JUMPDEST PUSH1 0x0 DUP5 ADD CALLDATALOAD PUSH8 0xFFFFFFFFFFFFFFFF DUP2 GT ISZERO PUSH2 0x3DD3 JUMPI PUSH2 0x3DD2 PUSH2 0x316B JUMP JUMPDEST JUMPDEST PUSH2 0x3DDF DUP7 DUP3 DUP8 ADD PUSH2 0x3478 JUMP JUMPDEST SWAP4 POP POP PUSH1 0x20 DUP5 ADD CALLDATALOAD PUSH8 0xFFFFFFFFFFFFFFFF DUP2 GT ISZERO PUSH2 0x3E00 JUMPI PUSH2 0x3DFF PUSH2 0x316B JUMP JUMPDEST JUMPDEST PUSH2 0x3E0C DUP7 DUP3 DUP8 ADD PUSH2 0x3478 JUMP JUMPDEST SWAP3 POP POP PUSH1 0x40 DUP5 ADD CALLDATALOAD PUSH8 0xFFFFFFFFFFFFFFFF DUP2 GT ISZERO PUSH2 0x3E2D JUMPI PUSH2 0x3E2C PUSH2 0x316B JUMP JUMPDEST JUMPDEST PUSH2 0x3E39 DUP7 DUP3 DUP8 ADD PUSH2 0x3478 JUMP JUMPDEST SWAP2 POP POP SWAP3 POP SWAP3 POP SWAP3 JUMP JUMPDEST PUSH32 0x4E487B7100000000000000000000000000000000000000000000000000000000 PUSH1 0x0 MSTORE PUSH1 0x22 PUSH1 0x4 MSTORE PUSH1 0x24 PUSH1 0x0 REVERT JUMPDEST PUSH1 0x0 PUSH1 0x2 DUP3 DIV SWAP1 POP PUSH1 0x1 DUP3 AND DUP1 PUSH2 0x3E8A JUMPI PUSH1 0x7F DUP3 AND SWAP2 POP JUMPDEST PUSH1 0x20 DUP3 LT DUP2 SUB PUSH2 0x3E9D JUMPI PUSH2 0x3E9C PUSH2 0x3E43 JUMP JUMPDEST JUMPDEST POP SWAP2 SWAP1 POP JUMP JUMPDEST PUSH32 0x4E487B7100000000000000000000000000000000000000000000000000000000 PUSH1 0x0 MSTORE PUSH1 0x32 PUSH1 0x4 MSTORE PUSH1 0x24 PUSH1 0x0 REVERT JUMPDEST PUSH32 0x4E487B7100000000000000000000000000000000000000000000000000000000 PUSH1 0x0 MSTORE PUSH1 0x11 PUSH1 0x4 MSTORE PUSH1 0x24 PUSH1 0x0 REVERT JUMPDEST PUSH1 0x0 PUSH2 0x3F0C DUP3 PUSH2 0x3170 JUMP JUMPDEST SWAP2 POP PUSH32 0xFFFFFFFFFFFFFFFFFFFFFFFFFFFFFFFFFFFFFFFFFFFFFFFFFFFFFFFFFFFFFFFF DUP3 SUB PUSH2 0x3F3E JUMPI PUSH2 0x3F3D PUSH2 0x3ED2 JUMP JUMPDEST JUMPDEST PUSH1 0x1 DUP3 ADD SWAP1 POP SWAP2 SWAP1 POP JUMP JUMPDEST PUSH1 0x0 DUP2 SWAP1 POP DUP2 PUSH1 0x0 MSTORE PUSH1 0x20 PUSH1 0x0 KECCAK256 SWAP1 POP SWAP2 SWAP1 POP JUMP JUMPDEST PUSH1 0x0 PUSH1 0x20 PUSH1 0x1F DUP4 ADD DIV SWAP1 POP SWAP2 SWAP1 POP JUMP JUMPDEST PUSH1 0x0 DUP3 DUP3 SHL SWAP1 POP SWAP3 SWAP2 POP POP JUMP JUMPDEST PUSH1 0x0 PUSH1 0x8 DUP4 MUL PUSH2 0x3FAB PUSH32 0xFFFFFFFFFFFFFFFFFFFFFFFFFFFFFFFFFFFFFFFFFFFFFFFFFFFFFFFFFFFFFFFF DUP3 PUSH2 0x3F6E JUMP JUMPDEST PUSH2 0x3FB5 DUP7 DUP4 PUSH2 0x3F6E JUMP JUMPDEST SWAP6 POP DUP1 NOT DUP5 AND SWAP4 POP DUP1 DUP7 AND DUP5 OR SWAP3 POP POP POP SWAP4 SWAP3 POP POP POP JUMP JUMPDEST PUSH1 0x0 DUP2 SWAP1 POP SWAP2 SWAP1 POP JUMP JUMPDEST PUSH1 0x0 PUSH2 0x3FF2 PUSH2 0x3FED PUSH2 0x3FE8 DUP5 PUSH2 0x3170 JUMP JUMPDEST PUSH2 0x3FCD JUMP JUMPDEST PUSH2 0x3170 JUMP JUMPDEST SWAP1 POP SWAP2 SWAP1 POP JUMP JUMPDEST PUSH1 0x0 DUP2 SWAP1 POP SWAP2 SWAP1 POP JUMP JUMPDEST PUSH2 0x400C DUP4 PUSH2 0x3FD7 JUMP JUMPDEST PUSH2 0x4020 PUSH2 0x4018 DUP3 PUSH2 0x3FF9 JUMP JUMPDEST DUP5 DUP5 SLOAD PUSH2 0x3F7B JUMP JUMPDEST DUP3 SSTORE POP POP POP POP JUMP JUMPDEST PUSH1 0x0 SWAP1 JUMP JUMPDEST PUSH2 0x4035 PUSH2 0x4028 JUMP JUMPDEST PUSH2 0x4040 DUP2 DUP5 DUP5 PUSH2 0x4003 JUMP JUMPDEST POP POP POP JUMP JUMPDEST JUMPDEST DUP2 DUP2 LT ISZERO PUSH2 0x4064 JUMPI PUSH2 0x4059 PUSH1 0x0 DUP3 PUSH2 0x402D JUMP JUMPDEST PUSH1 0x1 DUP2 ADD SWAP1 POP PUSH2 0x4046 JUMP JUMPDEST POP POP JUMP JUMPDEST PUSH1 0x1F DUP3 GT ISZERO PUSH2 0x40A9 JUMPI PUSH2 0x407A DUP2 PUSH2 0x3F49 JUMP JUMPDEST PUSH2 0x4083 DUP5 PUSH2 0x3F5E JUMP JUMPDEST DUP2 ADD PUSH1 0x20 DUP6 LT ISZERO PUSH2 0x4092 JUMPI DUP2 SWAP1 POP JUMPDEST PUSH2 0x40A6 PUSH2 0x409E DUP6 PUSH2 0x3F5E JUMP JUMPDEST DUP4 ADD DUP3 PUSH2 0x4045 JUMP JUMPDEST POP POP JUMPDEST POP POP POP JUMP JUMPDEST PUSH1 0x0 DUP3 DUP3 SHR SWAP1 POP SWAP3 SWAP2 POP POP JUMP JUMPDEST PUSH1 0x0 PUSH2 0x40CC PUSH1 0x0 NOT DUP5 PUSH1 0x8 MUL PUSH2 0x40AE JUMP JUMPDEST NOT DUP1 DUP4 AND SWAP2 POP POP SWAP3 SWAP2 POP POP JUMP JUMPDEST PUSH1 0x0 PUSH2 0x40E5 DUP4 DUP4 PUSH2 0x40BB JUMP JUMPDEST SWAP2 POP DUP3 PUSH1 0x2 MUL DUP3 OR SWAP1 POP SWAP3 SWAP2 POP POP JUMP JUMPDEST PUSH2 0x40FE DUP3 PUSH2 0x31FF JUMP JUMPDEST PUSH8 0xFFFFFFFFFFFFFFFF DUP2 GT ISZERO PUSH2 0x4117 JUMPI PUSH2 0x4116 PUSH2 0x337B JUMP JUMPDEST JUMPDEST PUSH2 0x4121 DUP3 SLOAD PUSH2 0x3E72 JUMP JUMPDEST PUSH2 0x412C DUP3 DUP3 DUP6 PUSH2 0x4068 JUMP JUMPDEST PUSH1 0x0 PUSH1 0x20 SWAP1 POP PUSH1 0x1F DUP4 GT PUSH1 0x1 DUP2 EQ PUSH2 0x415F JUMPI PUSH1 0x0 DUP5 ISZERO PUSH2 0x414D JUMPI DUP3 DUP8 ADD MLOAD SWAP1 POP JUMPDEST PUSH2 0x4157 DUP6 DUP3 PUSH2 0x40D9 JUMP JUMPDEST DUP7 SSTORE POP PUSH2 0x41BF JUMP JUMPDEST PUSH1 0x1F NOT DUP5 AND PUSH2 0x416D DUP7 PUSH2 0x3F49 JUMP JUMPDEST PUSH1 0x0 JUMPDEST DUP3 DUP2 LT ISZERO PUSH2 0x4195 JUMPI DUP5 DUP10 ADD MLOAD DUP3 SSTORE PUSH1 0x1 DUP3 ADD SWAP2 POP PUSH1 0x20 DUP6 ADD SWAP5 POP PUSH1 0x20 DUP2 ADD SWAP1 POP PUSH2 0x4170 JUMP JUMPDEST DUP7 DUP4 LT ISZERO PUSH2 0x41B2 JUMPI DUP5 DUP10 ADD MLOAD PUSH2 0x41AE PUSH1 0x1F DUP10 AND DUP3 PUSH2 0x40BB JUMP JUMPDEST DUP4 SSTORE POP JUMPDEST PUSH1 0x1 PUSH1 0x2 DUP9 MUL ADD DUP9 SSTORE POP POP POP JUMPDEST POP POP POP POP POP POP JUMP JUMPDEST PUSH1 0x0 DUP2 SWAP1 POP SWAP3 SWAP2 POP POP JUMP JUMPDEST PUSH1 0x0 PUSH2 0x41DD DUP3 PUSH2 0x31FF JUMP JUMPDEST PUSH2 0x41E7 DUP2 DUP6 PUSH2 0x41C7 JUMP JUMPDEST SWAP4 POP PUSH2 0x41F7 DUP2 DUP6 PUSH1 0x20 DUP7 ADD PUSH2 0x321B JUMP JUMPDEST DUP1 DUP5 ADD SWAP2 POP POP SWAP3 SWAP2 POP POP JUMP JUMPDEST PUSH1 0x0 PUSH2 0x420F DUP3 DUP5 PUSH2 0x41D2 JUMP JUMPDEST SWAP2 POP DUP2 SWAP1 POP SWAP3 SWAP2 POP POP JUMP JUMPDEST PUSH1 0x0 DUP2 SWAP1 POP SWAP3 SWAP2 POP POP JUMP JUMPDEST PUSH1 0x0 DUP2 SWAP1 POP DUP2 PUSH1 0x0 MSTORE PUSH1 0x20 PUSH1 0x0 KECCAK256 SWAP1 POP SWAP2 SWAP1 POP JUMP JUMPDEST PUSH1 0x0 DUP2 SLOAD PUSH2 0x4247 DUP2 PUSH2 0x3E72 JUMP JUMPDEST PUSH2 0x4251 DUP2 DUP7 PUSH2 0x421A JUMP JUMPDEST SWAP5 POP PUSH1 0x1 DUP3 AND PUSH1 0x0 DUP2 EQ PUSH2 0x426C JUMPI PUSH1 0x1 DUP2 EQ PUSH2 0x4281 JUMPI PUSH2 0x42B4 JUMP JUMPDEST PUSH1 0xFF NOT DUP4 AND DUP7 MSTORE DUP2 ISZERO ISZERO DUP3 MUL DUP7 ADD SWAP4 POP PUSH2 0x42B4 JUMP JUMPDEST PUSH2 0x428A DUP6 PUSH2 0x4225 JUMP JUMPDEST PUSH1 0x0 JUMPDEST DUP4 DUP2 LT ISZERO PUSH2 0x42AC JUMPI DUP2 SLOAD DUP2 DUP10 ADD MSTORE PUSH1 0x1 DUP3 ADD SWAP2 POP PUSH1 0x20 DUP2 ADD SWAP1 POP PUSH2 0x428D JUMP JUMPDEST DUP4 DUP9 ADD SWAP6 POP POP POP JUMPDEST POP POP POP SWAP3 SWAP2 POP POP JUMP JUMPDEST PUSH1 0x0 PUSH2 0x42C9 DUP3 DUP5 PUSH2 0x423A JUMP JUMPDEST SWAP2 POP DUP2 SWAP1 POP SWAP3 SWAP2 POP POP JUMP JUMPDEST PUSH1 0x0 PUSH2 0x42DF DUP3 PUSH2 0x3170 JUMP JUMPDEST SWAP2 POP PUSH2 0x42EA DUP4 PUSH2 0x3170 JUMP JUMPDEST SWAP3 POP DUP3 DUP3 ADD SWAP1 POP DUP1 DUP3 GT ISZERO PUSH2 0x4302 JUMPI PUSH2 0x4301 PUSH2 0x3ED2 JUMP JUMPDEST JUMPDEST SWAP3 SWAP2 POP POP JUMP INVALID LOG2 PUSH5 0x6970667358 0x22 SLT KECCAK256 0xB8 SWAP7 PUSH13 0x2E470EDCA5120846842D4169FC KECCAK256 DUP6 NOT 0xC0 0x2F PUSH6 0xA713B0976DED LOG1 0xE5 PUSH29 0x1564736F6C634300081100330000000000000000000000000000000000 "},"gasEstimates":{"creation":{"codeDepositCost":"3442800","executionCost":"3844","totalCost":"3446644"},"external":{"_dao_ids()":"2496","_dao_uris(uint256)":"infinite","_donated(string)":"infinite","_donations(uint256)":"infinite","_donations_ids()":"2495","_goal_ids()":"2542","_goal_uris(uint256)":"infinite","_ideas_ids()":"2496","_ideas_uris(uint256)":"infinite","_ideas_vote_ids()":"2519","_join_ids()":"2498","_joined_person(uint256)":"infinite","_message_ids()":"2497","_message_read_ids()":"2518","_reply_ids()":"2518","_smart_contract_ids()":"2586","_smart_contracts_uris(uint256)":"infinite","_template_uris(uint256)":"infinite","_user_badges(string)":"infinite","add_donation(uint256,uint256,string)":"infinite","all_goal_ideas_votes(uint256)":"infinite","all_messages(uint256)":"infinite","all_read_messages(uint256)":"infinite","all_replies(uint256)":"infinite","create_dao(string,string,string)":"infinite","create_goal(string,uint256,string)":"infinite","create_goal_ideas_vote(uint256,uint256,string)":"infinite","create_ideas(string,uint256,string[],string)":"infinite","dao_uri(uint256)":"infinite","getMsgIDs(uint256)":"infinite","getReadMsg(uint256,string)":"infinite","getReplyIDs(uint256)":"infinite","get_all_daos()":"infinite","get_all_goals()":"infinite","get_all_goals_by_dao_id(uint256)":"infinite","get_all_ideas()":"infinite","get_all_ideas_by_goal_id(uint256)":"infinite","get_goal_id_by_goal_uri(string)":"infinite","get_goal_id_from_ideas_uri(string)":"infinite","get_ideas_id_by_ideas_uri(string)":"infinite","get_ideas_votes_from_goal(uint256,uint256)":"infinite","goal_uri(uint256)":"infinite","ideas_uri(uint256)":"infinite","is_person_joined(string)":"infinite","join_community(uint256,string)":"infinite","reset_all()":"infinite","sendMsg(uint256,string,string)":"infinite","sendReadMsg(uint256,uint256,string,string)":"infinite","sendReply(uint256,string,uint256,string)":"infinite","set_dao(uint256,string,string)":"infinite","set_goal(uint256,string)":"infinite","set_ideas(uint256,string)":"infinite","update_template(uint256,string)":"infinite"},"internal":{"create_ideas_smart_contract(uint256,uint256,string memory)":"infinite"}},"methodIdentifiers":{"_dao_ids()":"7bbd582d","_dao_uris(uint256)":"27a568b9","_donated(string)":"77935be7","_donations(uint256)":"7fc543ec","_donations_ids()":"ec245802","_goal_ids()":"13bf4cea","_goal_uris(uint256)":"7f2035d4","_ideas_ids()":"d3791b20","_ideas_uris(uint256)":"468d0c80","_ideas_vote_ids()":"4a797bd7","_join_ids()":"1171b621","_joined_person(uint256)":"330b8f26","_message_ids()":"9077007d","_message_read_ids()":"ca013f17","_reply_ids()":"aa2bf5d3","_smart_contract_ids()":"1b592aeb","_smart_contracts_uris(uint256)":"ff4a37ef","_template_uris(uint256)":"6ecda4ee","_user_badges(string)":"9f9ff54b","add_donation(uint256,uint256,string)":"e3863cef","all_goal_ideas_votes(uint256)":"1ba44c4c","all_messages(uint256)":"b527d45e","all_read_messages(uint256)":"cace8d46","all_replies(uint256)":"3f87a2f4","create_dao(string,string,string)":"ec399255","create_goal(string,uint256,string)":"77b2ec23","create_goal_ideas_vote(uint256,uint256,string)":"82fcc732","create_ideas(string,uint256,string[],string)":"18426b46","dao_uri(uint256)":"5d907da1","getMsgIDs(uint256)":"803f5b9f","getReadMsg(uint256,string)":"cd230809","getReplyIDs(uint256)":"812fae1f","get_all_daos()":"c04fe978","get_all_goals()":"29b56f60","get_all_goals_by_dao_id(uint256)":"109ac970","get_all_ideas()":"97ee7606","get_all_ideas_by_goal_id(uint256)":"131d44f2","get_goal_id_by_goal_uri(string)":"1e9ac9f5","get_goal_id_from_ideas_uri(string)":"aa4cdf2a","get_ideas_id_by_ideas_uri(string)":"a1ca9178","get_ideas_votes_from_goal(uint256,uint256)":"4be7adb5","goal_uri(uint256)":"e32acc1a","ideas_uri(uint256)":"8d3d2595","is_person_joined(string)":"eca7f5fe","join_community(uint256,string)":"5132f0c7","reset_all()":"b16060a6","sendMsg(uint256,string,string)":"3f50602f","sendReadMsg(uint256,uint256,string,string)":"8c59143d","sendReply(uint256,string,uint256,string)":"494ce295","set_dao(uint256,string,string)":"881de858","set_goal(uint256,string)":"c29595c5","set_ideas(uint256,string)":"c04e7430","update_template(uint256,string)":"87633eb2"}},"storageLayout":{"storage":[{"astId":100,"contract":"contracts/JustDAO.sol:JustDAO","label":"_dao_ids","offset":0,"slot":"0","type":"t_uint256"},{"astId":102,"contract":"contracts/JustDAO.sol:JustDAO","label":"_donations_ids","offset":0,"slot":"1","type":"t_uint256"},{"astId":104,"contract":"contracts/JustDAO.sol:JustDAO","label":"_goal_ids","offset":0,"slot":"2","type":"t_uint256"},{"astId":106,"contract":"contracts/JustDAO.sol:JustDAO","label":"_ideas_ids","offset":0,"slot":"3","type":"t_uint256"},{"astId":108,"contract":"contracts/JustDAO.sol:JustDAO","label":"_join_ids","offset":0,"slot":"4","type":"t_uint256"},{"astId":110,"contract":"contracts/JustDAO.sol:JustDAO","label":"_smart_contract_ids","offset":0,"slot":"5","type":"t_uint256"},{"astId":112,"contract":"contracts/JustDAO.sol:JustDAO","label":"_ideas_vote_ids","offset":0,"slot":"6","type":"t_uint256"},{"astId":114,"contract":"contracts/JustDAO.sol:JustDAO","label":"_message_ids","offset":0,"slot":"7","type":"t_uint256"},{"astId":116,"contract":"contracts/JustDAO.sol:JustDAO","label":"_message_read_ids","offset":0,"slot":"8","type":"t_uint256"},{"astId":118,"contract":"contracts/JustDAO.sol:JustDAO","label":"_reply_ids","offset":0,"slot":"9","type":"t_uint256"},{"astId":123,"contract":"contracts/JustDAO.sol:JustDAO","label":"_dao_uris","offset":0,"slot":"10","type":"t_mapping(t_uint256,t_struct(dao_uri_struct)9_storage)"},{"astId":127,"contract":"contracts/JustDAO.sol:JustDAO","label":"_template_uris","offset":0,"slot":"11","type":"t_mapping(t_uint256,t_string_storage)"},{"astId":132,"contract":"contracts/JustDAO.sol:JustDAO","label":"_joined_person","offset":0,"slot":"12","type":"t_mapping(t_uint256,t_struct(join_struct)79_storage)"},{"astId":137,"contract":"contracts/JustDAO.sol:JustDAO","label":"_goal_uris","offset":0,"slot":"13","type":"t_mapping(t_uint256,t_struct(goal_uri_struct)14_storage)"},{"astId":142,"contract":"contracts/JustDAO.sol:JustDAO","label":"_ideas_uris","offset":0,"slot":"14","type":"t_mapping(t_uint256,t_struct(ideas_uri_struct)21_storage)"},{"astId":146,"contract":"contracts/JustDAO.sol:JustDAO","label":"_donated","offset":0,"slot":"15","type":"t_mapping(t_string_memory_ptr,t_uint256)"},{"astId":151,"contract":"contracts/JustDAO.sol:JustDAO","label":"_donations","offset":0,"slot":"16","type":"t_mapping(t_uint256,t_struct(donation_struct)28_storage)"},{"astId":156,"contract":"contracts/JustDAO.sol:JustDAO","label":"_smart_contracts_uris","offset":0,"slot":"17","type":"t_mapping(t_uint256,t_struct(smart_contract_uri_struct)35_storage)"},{"astId":161,"contract":"contracts/JustDAO.sol:JustDAO","label":"all_goal_ideas_votes","offset":0,"slot":"18","type":"t_mapping(t_uint256,t_struct(goal_ideas_votes_struct)42_storage)"},{"astId":166,"contract":"contracts/JustDAO.sol:JustDAO","label":"all_messages","offset":0,"slot":"19","type":"t_mapping(t_uint256,t_struct(message_struct)51_storage)"},{"astId":171,"contract":"contracts/JustDAO.sol:JustDAO","label":"all_read_messages","offset":0,"slot":"20","type":"t_mapping(t_uint256,t_struct(message_read_struct)60_storage)"},{"astId":176,"contract":"contracts/JustDAO.sol:JustDAO","label":"all_replies","offset":0,"slot":"21","type":"t_mapping(t_uint256,t_struct(reply_struct)69_storage)"},{"astId":181,"contract":"contracts/JustDAO.sol:JustDAO","label":"_user_badges","offset":0,"slot":"22","type":"t_mapping(t_string_memory_ptr,t_struct(user_badge_struct)98_storage)"}],"types":{"t_bool":{"encoding":"inplace","label":"bool","numberOfBytes":"1"},"t_mapping(t_string_memory_ptr,t_struct(user_badge_struct)98_storage)":{"encoding":"mapping","key":"t_string_memory_ptr","label":"mapping(string => struct JustDAO.user_badge_struct)","numberOfBytes":"32","value":"t_struct(user_badge_struct)98_storage"},"t_mapping(t_string_memory_ptr,t_uint256)":{"encoding":"mapping","key":"t_string_memory_ptr","label":"mapping(string => uint256)","numberOfBytes":"32","value":"t_uint256"},"t_mapping(t_uint256,t_string_storage)":{"encoding":"mapping","key":"t_uint256","label":"mapping(uint256 => string)","numberOfBytes":"32","value":"t_string_storage"},"t_mapping(t_uint256,t_struct(dao_uri_struct)9_storage)":{"encoding":"mapping","key":"t_uint256","label":"mapping(uint256 => struct JustDAO.dao_uri_struct)","numberOfBytes":"32","value":"t_struct(dao_uri_struct)9_storage"},"t_mapping(t_uint256,t_struct(donation_struct)28_storage)":{"encoding":"mapping","key":"t_uint256","label":"mapping(uint256 => struct JustDAO.donation_struct)","numberOfBytes":"32","value":"t_struct(donation_struct)28_storage"},"t_mapping(t_uint256,t_struct(goal_ideas_votes_struct)42_storage)":{"encoding":"mapping","key":"t_uint256","label":"mapping(uint256 => struct JustDAO.goal_ideas_votes_struct)","numberOfBytes":"32","value":"t_struct(goal_ideas_votes_struct)42_storage"},"t_mapping(t_uint256,t_struct(goal_uri_struct)14_storage)":{"encoding":"mapping","key":"t_uint256","label":"mapping(uint256 => struct JustDAO.goal_uri_struct)","numberOfBytes":"32","value":"t_struct(goal_uri_struct)14_storage"},"t_mapping(t_uint256,t_struct(ideas_uri_struct)21_storage)":{"encoding":"mapping","key":"t_uint256","label":"mapping(uint256 => struct JustDAO.ideas_uri_struct)","numberOfBytes":"32","value":"t_struct(ideas_uri_struct)21_storage"},"t_mapping(t_uint256,t_struct(join_struct)79_storage)":{"encoding":"mapping","key":"t_uint256","label":"mapping(uint256 => struct JustDAO.join_struct)","numberOfBytes":"32","value":"t_struct(join_struct)79_storage"},"t_mapping(t_uint256,t_struct(message_read_struct)60_storage)":{"encoding":"mapping","key":"t_uint256","label":"mapping(uint256 => struct JustDAO.message_read_struct)","numberOfBytes":"32","value":"t_struct(message_read_struct)60_storage"},"t_mapping(t_uint256,t_struct(message_struct)51_storage)":{"encoding":"mapping","key":"t_uint256","label":"mapping(uint256 => struct JustDAO.message_struct)","numberOfBytes":"32","value":"t_struct(message_struct)51_storage"},"t_mapping(t_uint256,t_struct(reply_struct)69_storage)":{"encoding":"mapping","key":"t_uint256","label":"mapping(uint256 => struct JustDAO.reply_struct)","numberOfBytes":"32","value":"t_struct(reply_struct)69_storage"},"t_mapping(t_uint256,t_struct(smart_contract_uri_struct)35_storage)":{"encoding":"mapping","key":"t_uint256","label":"mapping(uint256 => struct JustDAO.smart_contract_uri_struct)","numberOfBytes":"32","value":"t_struct(smart_contract_uri_struct)35_storage"},"t_string_memory_ptr":{"encoding":"bytes","label":"string","numberOfBytes":"32"},"t_string_storage":{"encoding":"bytes","label":"string","numberOfBytes":"32"},"t_struct(dao_uri_struct)9_storage":{"encoding":"inplace","label":"struct JustDAO.dao_uri_struct","members":[{"astId":4,"contract":"contracts/JustDAO.sol:JustDAO","label":"dao_wallet","offset":0,"slot":"0","type":"t_string_storage"},{"astId":6,"contract":"contracts/JustDAO.sol:JustDAO","label":"dao_uri","offset":0,"slot":"1","type":"t_string_storage"},{"astId":8,"contract":"contracts/JustDAO.sol:JustDAO","label":"finished","offset":0,"slot":"2","type":"t_string_storage"}],"numberOfBytes":"96"},"t_struct(donation_struct)28_storage":{"encoding":"inplace","label":"struct JustDAO.donation_struct","members":[{"astId":23,"contract":"contracts/JustDAO.sol:JustDAO","label":"ideas_id","offset":0,"slot":"0","type":"t_uint256"},{"astId":25,"contract":"contracts/JustDAO.sol:JustDAO","label":"wallet","offset":0,"slot":"1","type":"t_string_storage"},{"astId":27,"contract":"contracts/JustDAO.sol:JustDAO","label":"donation","offset":0,"slot":"2","type":"t_uint256"}],"numberOfBytes":"96"},"t_struct(goal_ideas_votes_struct)42_storage":{"encoding":"inplace","label":"struct JustDAO.goal_ideas_votes_struct","members":[{"astId":37,"contract":"contracts/JustDAO.sol:JustDAO","label":"goal_id","offset":0,"slot":"0","type":"t_uint256"},{"astId":39,"contract":"contracts/JustDAO.sol:JustDAO","label":"ideas_id","offset":0,"slot":"1","type":"t_uint256"},{"astId":41,"contract":"contracts/JustDAO.sol:JustDAO","label":"wallet","offset":0,"slot":"2","type":"t_string_storage"}],"numberOfBytes":"96"},"t_struct(goal_uri_struct)14_storage":{"encoding":"inplace","label":"struct JustDAO.goal_uri_struct","members":[{"astId":11,"contract":"contracts/JustDAO.sol:JustDAO","label":"dao_id","offset":0,"slot":"0","type":"t_uint256"},{"astId":13,"contract":"contracts/JustDAO.sol:JustDAO","label":"goal_uri","offset":0,"slot":"1","type":"t_string_storage"}],"numberOfBytes":"64"},"t_struct(ideas_uri_struct)21_storage":{"encoding":"inplace","label":"struct JustDAO.ideas_uri_struct","members":[{"astId":16,"contract":"contracts/JustDAO.sol:JustDAO","label":"goal_id","offset":0,"slot":"0","type":"t_uint256"},{"astId":18,"contract":"contracts/JustDAO.sol:JustDAO","label":"ideas_uri","offset":0,"slot":"1","type":"t_string_storage"},{"astId":20,"contract":"contracts/JustDAO.sol:JustDAO","label":"donation","offset":0,"slot":"2","type":"t_uint256"}],"numberOfBytes":"96"},"t_struct(join_struct)79_storage":{"encoding":"inplace","label":"struct JustDAO.join_struct","members":[{"astId":76,"contract":"contracts/JustDAO.sol:JustDAO","label":"daoid","offset":0,"slot":"0","type":"t_uint256"},{"astId":78,"contract":"contracts/JustDAO.sol:JustDAO","label":"wallet","offset":0,"slot":"1","type":"t_string_storage"}],"numberOfBytes":"64"},"t_struct(message_read_struct)60_storage":{"encoding":"inplace","label":"struct JustDAO.message_read_struct","members":[{"astId":53,"contract":"contracts/JustDAO.sol:JustDAO","label":"message_id","offset":0,"slot":"0","type":"t_uint256"},{"astId":55,"contract":"contracts/JustDAO.sol:JustDAO","label":"ideas_id","offset":0,"slot":"1","type":"t_uint256"},{"astId":57,"contract":"contracts/JustDAO.sol:JustDAO","label":"wallet","offset":0,"slot":"2","type":"t_string_storage"},{"astId":59,"contract":"contracts/JustDAO.sol:JustDAO","label":"msg_type","offset":0,"slot":"3","type":"t_string_storage"}],"numberOfBytes":"128"},"t_struct(message_struct)51_storage":{"encoding":"inplace","label":"struct JustDAO.message_struct","members":[{"astId":44,"contract":"contracts/JustDAO.sol:JustDAO","label":"message_id","offset":0,"slot":"0","type":"t_uint256"},{"astId":46,"contract":"contracts/JustDAO.sol:JustDAO","label":"ideas_id","offset":0,"slot":"1","type":"t_uint256"},{"astId":48,"contract":"contracts/JustDAO.sol:JustDAO","label":"message","offset":0,"slot":"2","type":"t_string_storage"},{"astId":50,"contract":"contracts/JustDAO.sol:JustDAO","label":"sender","offset":0,"slot":"3","type":"t_string_storage"}],"numberOfBytes":"128"},"t_struct(reply_struct)69_storage":{"encoding":"inplace","label":"struct JustDAO.reply_struct","members":[{"astId":62,"contract":"contracts/JustDAO.sol:JustDAO","label":"reply_id","offset":0,"slot":"0","type":"t_uint256"},{"astId":64,"contract":"contracts/JustDAO.sol:JustDAO","label":"message_id","offset":0,"slot":"1","type":"t_uint256"},{"astId":66,"contract":"contracts/JustDAO.sol:JustDAO","label":"ideas_id","offset":0,"slot":"2","type":"t_uint256"},{"astId":68,"contract":"contracts/JustDAO.sol:JustDAO","label":"message","offset":0,"slot":"3","type":"t_string_storage"}],"numberOfBytes":"128"},"t_struct(smart_contract_uri_struct)35_storage":{"encoding":"inplace","label":"struct JustDAO.smart_contract_uri_struct","members":[{"astId":30,"contract":"contracts/JustDAO.sol:JustDAO","label":"smart_contract_id","offset":0,"slot":"0","type":"t_uint256"},{"astId":32,"contract":"contracts/JustDAO.sol:JustDAO","label":"ideas_id","offset":0,"slot":"1","type":"t_uint256"},{"astId":34,"contract":"contracts/JustDAO.sol:JustDAO","label":"smart_contract_uri","offset":0,"slot":"2","type":"t_string_storage"}],"numberOfBytes":"96"},"t_struct(user_badge_struct)98_storage":{"encoding":"inplace","label":"struct JustDAO.user_badge_struct","members":[{"astId":81,"contract":"contracts/JustDAO.sol:JustDAO","label":"wallet","offset":0,"slot":"0","type":"t_string_storage"},{"astId":83,"contract":"contracts/JustDAO.sol:JustDAO","label":"dao","offset":0,"slot":"1","type":"t_bool"},{"astId":85,"contract":"contracts/JustDAO.sol:JustDAO","label":"joined","offset":1,"slot":"1","type":"t_bool"},{"astId":87,"contract":"contracts/JustDAO.sol:JustDAO","label":"goal","offset":2,"slot":"1","type":"t_bool"},{"astId":89,"contract":"contracts/JustDAO.sol:JustDAO","label":"ideas","offset":3,"slot":"1","type":"t_bool"},{"astId":91,"contract":"contracts/JustDAO.sol:JustDAO","label":"vote","offset":4,"slot":"1","type":"t_bool"},{"astId":93,"contract":"contracts/JustDAO.sol:JustDAO","label":"donation","offset":5,"slot":"1","type":"t_bool"},{"astId":95,"contract":"contracts/JustDAO.sol:JustDAO","label":"comment","offset":6,"slot":"1","type":"t_bool"},{"astId":97,"contract":"contracts/JustDAO.sol:JustDAO","label":"reply","offset":7,"slot":"1","type":"t_bool"}],"numberOfBytes":"64"},"t_uint256":{"encoding":"inplace","label":"uint256","numberOfBytes":"32"}}},"userdoc":{"kind":"user","methods":{},"version":1}}}}